{
  "_format": "hh-sol-artifact-1",
  "contractName": "NFTSpace",
  "sourceName": "contracts/Nft.sol",
  "abi": [
    {
      "inputs": [
        {
          "internalType": "string",
          "name": "_name",
          "type": "string"
        },
        {
          "internalType": "string",
          "name": "_symbol",
          "type": "string"
        }
      ],
      "stateMutability": "nonpayable",
      "type": "constructor"
    },
    {
      "anonymous": false,
      "inputs": [
        {
          "indexed": true,
          "internalType": "address",
          "name": "owner",
          "type": "address"
        },
        {
          "indexed": true,
          "internalType": "address",
          "name": "approved",
          "type": "address"
        },
        {
          "indexed": true,
          "internalType": "uint256",
          "name": "tokenId",
          "type": "uint256"
        }
      ],
      "name": "Approval",
      "type": "event"
    },
    {
      "anonymous": false,
      "inputs": [
        {
          "indexed": true,
          "internalType": "address",
          "name": "owner",
          "type": "address"
        },
        {
          "indexed": true,
          "internalType": "address",
          "name": "operator",
          "type": "address"
        },
        {
          "indexed": false,
          "internalType": "bool",
          "name": "approved",
          "type": "bool"
        }
      ],
      "name": "ApprovalForAll",
      "type": "event"
    },
    {
      "anonymous": false,
      "inputs": [
        {
          "indexed": true,
          "internalType": "address",
          "name": "previousOwner",
          "type": "address"
        },
        {
          "indexed": true,
          "internalType": "address",
          "name": "newOwner",
          "type": "address"
        }
      ],
      "name": "OwnershipTransferred",
      "type": "event"
    },
    {
      "anonymous": false,
      "inputs": [
        {
          "indexed": true,
          "internalType": "address",
          "name": "from",
          "type": "address"
        },
        {
          "indexed": true,
          "internalType": "address",
          "name": "to",
          "type": "address"
        },
        {
          "indexed": true,
          "internalType": "uint256",
          "name": "tokenId",
          "type": "uint256"
        }
      ],
      "name": "Transfer",
      "type": "event"
    },
    {
      "inputs": [
        {
          "internalType": "address",
          "name": "to",
          "type": "address"
        },
        {
          "internalType": "uint256",
          "name": "tokenId",
          "type": "uint256"
        }
      ],
      "name": "approve",
      "outputs": [],
      "stateMutability": "nonpayable",
      "type": "function"
    },
    {
      "inputs": [
        {
          "internalType": "address",
          "name": "owner",
          "type": "address"
        }
      ],
      "name": "balanceOf",
      "outputs": [
        {
          "internalType": "uint256",
          "name": "",
          "type": "uint256"
        }
      ],
      "stateMutability": "view",
      "type": "function"
    },
    {
      "inputs": [],
      "name": "baseURL",
      "outputs": [
        {
          "internalType": "string",
          "name": "",
          "type": "string"
        }
      ],
      "stateMutability": "view",
      "type": "function"
    },
    {
      "inputs": [
        {
          "internalType": "uint256",
          "name": "tokenId",
          "type": "uint256"
        }
      ],
      "name": "getApproved",
      "outputs": [
        {
          "internalType": "address",
          "name": "",
          "type": "address"
        }
      ],
      "stateMutability": "view",
      "type": "function"
    },
    {
      "inputs": [
        {
          "internalType": "address",
          "name": "owner",
          "type": "address"
        }
      ],
      "name": "getOwnedNFTs",
      "outputs": [
        {
          "components": [
            {
              "internalType": "uint256",
              "name": "tokenId",
              "type": "uint256"
            },
            {
              "internalType": "string",
              "name": "tokenURI",
              "type": "string"
            },
            {
              "internalType": "address",
              "name": "owner",
              "type": "address"
            },
            {
              "internalType": "string",
              "name": "collectionName",
              "type": "string"
            },
            {
              "internalType": "string",
              "name": "collectionSymbol",
              "type": "string"
            }
          ],
          "internalType": "struct NFTDetails[]",
          "name": "",
          "type": "tuple[]"
        }
      ],
      "stateMutability": "view",
      "type": "function"
    },
    {
      "inputs": [
        {
          "internalType": "address",
          "name": "owner",
          "type": "address"
        },
        {
          "internalType": "address",
          "name": "operator",
          "type": "address"
        }
      ],
      "name": "isApprovedForAll",
      "outputs": [
        {
          "internalType": "bool",
          "name": "",
          "type": "bool"
        }
      ],
      "stateMutability": "view",
      "type": "function"
    },
    {
      "inputs": [
        {
          "internalType": "string",
          "name": "data",
          "type": "string"
        },
        {
          "internalType": "address",
          "name": "to",
          "type": "address"
        },
        {
          "internalType": "address",
          "name": "royaltyRecipient",
          "type": "address"
        },
        {
          "internalType": "uint256",
          "name": "royaltyValue",
          "type": "uint256"
        }
      ],
      "name": "mint",
      "outputs": [],
      "stateMutability": "nonpayable",
      "type": "function"
    },
    {
      "inputs": [],
      "name": "name",
      "outputs": [
        {
          "internalType": "string",
          "name": "",
          "type": "string"
        }
      ],
      "stateMutability": "view",
      "type": "function"
    },
    {
      "inputs": [
        {
          "internalType": "uint256",
          "name": "",
          "type": "uint256"
        }
      ],
      "name": "nft",
      "outputs": [
        {
          "internalType": "string",
          "name": "",
          "type": "string"
        }
      ],
      "stateMutability": "view",
      "type": "function"
    },
    {
      "inputs": [],
      "name": "owner",
      "outputs": [
        {
          "internalType": "address",
          "name": "",
          "type": "address"
        }
      ],
      "stateMutability": "view",
      "type": "function"
    },
    {
      "inputs": [
        {
          "internalType": "uint256",
          "name": "tokenId",
          "type": "uint256"
        }
      ],
      "name": "ownerOf",
      "outputs": [
        {
          "internalType": "address",
          "name": "",
          "type": "address"
        }
      ],
      "stateMutability": "view",
      "type": "function"
    },
    {
      "inputs": [],
      "name": "renounceOwnership",
      "outputs": [],
      "stateMutability": "nonpayable",
      "type": "function"
    },
    {
      "inputs": [
        {
          "internalType": "uint256",
          "name": "tokenId",
          "type": "uint256"
        },
        {
          "internalType": "uint256",
          "name": "value",
          "type": "uint256"
        }
      ],
      "name": "royaltyInfo",
      "outputs": [
        {
          "internalType": "address",
          "name": "receiver",
          "type": "address"
        },
        {
          "internalType": "uint256",
          "name": "royaltyAmount",
          "type": "uint256"
        }
      ],
      "stateMutability": "view",
      "type": "function"
    },
    {
      "inputs": [
        {
          "internalType": "address",
          "name": "from",
          "type": "address"
        },
        {
          "internalType": "address",
          "name": "to",
          "type": "address"
        },
        {
          "internalType": "uint256",
          "name": "tokenId",
          "type": "uint256"
        }
      ],
      "name": "safeTransferFrom",
      "outputs": [],
      "stateMutability": "nonpayable",
      "type": "function"
    },
    {
      "inputs": [
        {
          "internalType": "address",
          "name": "from",
          "type": "address"
        },
        {
          "internalType": "address",
          "name": "to",
          "type": "address"
        },
        {
          "internalType": "uint256",
          "name": "tokenId",
          "type": "uint256"
        },
        {
          "internalType": "bytes",
          "name": "_data",
          "type": "bytes"
        }
      ],
      "name": "safeTransferFrom",
      "outputs": [],
      "stateMutability": "nonpayable",
      "type": "function"
    },
    {
      "inputs": [
        {
          "internalType": "address",
          "name": "operator",
          "type": "address"
        },
        {
          "internalType": "bool",
          "name": "approved",
          "type": "bool"
        }
      ],
      "name": "setApprovalForAll",
      "outputs": [],
      "stateMutability": "nonpayable",
      "type": "function"
    },
    {
      "inputs": [
        {
          "internalType": "string",
          "name": "url",
          "type": "string"
        }
      ],
      "name": "setBaseURL",
      "outputs": [],
      "stateMutability": "nonpayable",
      "type": "function"
    },
    {
      "inputs": [
        {
          "internalType": "bytes4",
          "name": "interfaceId",
          "type": "bytes4"
        }
      ],
      "name": "supportsInterface",
      "outputs": [
        {
          "internalType": "bool",
          "name": "",
          "type": "bool"
        }
      ],
      "stateMutability": "view",
      "type": "function"
    },
    {
      "inputs": [],
      "name": "symbol",
      "outputs": [
        {
          "internalType": "string",
          "name": "",
          "type": "string"
        }
      ],
      "stateMutability": "view",
      "type": "function"
    },
    {
      "inputs": [
        {
          "internalType": "uint256",
          "name": "index",
          "type": "uint256"
        }
      ],
      "name": "tokenByIndex",
      "outputs": [
        {
          "internalType": "uint256",
          "name": "",
          "type": "uint256"
        }
      ],
      "stateMutability": "view",
      "type": "function"
    },
    {
      "inputs": [
        {
          "internalType": "address",
          "name": "owner",
          "type": "address"
        },
        {
          "internalType": "uint256",
          "name": "index",
          "type": "uint256"
        }
      ],
      "name": "tokenOfOwnerByIndex",
      "outputs": [
        {
          "internalType": "uint256",
          "name": "",
          "type": "uint256"
        }
      ],
      "stateMutability": "view",
      "type": "function"
    },
    {
      "inputs": [
        {
          "internalType": "uint256",
          "name": "tokenId",
          "type": "uint256"
        }
      ],
      "name": "tokenURI",
      "outputs": [
        {
          "internalType": "string",
          "name": "",
          "type": "string"
        }
      ],
      "stateMutability": "view",
      "type": "function"
    },
    {
      "inputs": [],
      "name": "totalSupply",
      "outputs": [
        {
          "internalType": "uint256",
          "name": "",
          "type": "uint256"
        }
      ],
      "stateMutability": "view",
      "type": "function"
    },
    {
      "inputs": [
        {
          "internalType": "address",
          "name": "from",
          "type": "address"
        },
        {
          "internalType": "address",
          "name": "to",
          "type": "address"
        },
        {
          "internalType": "uint256",
          "name": "tokenId",
          "type": "uint256"
        }
      ],
      "name": "transferFrom",
      "outputs": [],
      "stateMutability": "nonpayable",
      "type": "function"
    },
    {
      "inputs": [
        {
          "internalType": "address",
          "name": "newOwner",
          "type": "address"
        }
      ],
      "name": "transferOwnership",
      "outputs": [],
      "stateMutability": "nonpayable",
      "type": "function"
    }
  ],
  "bytecode": "0x60806040523480156200001157600080fd5b50604051620049e8380380620049e88339818101604052810190620000379190620002e8565b818181600090816200004a9190620005b8565b5080600190816200005c9190620005b8565b5050506200007f620000736200008760201b60201c565b6200008f60201b60201c565b50506200069f565b600033905090565b6000600b60009054906101000a900473ffffffffffffffffffffffffffffffffffffffff16905081600b60006101000a81548173ffffffffffffffffffffffffffffffffffffffff021916908373ffffffffffffffffffffffffffffffffffffffff1602179055508173ffffffffffffffffffffffffffffffffffffffff168173ffffffffffffffffffffffffffffffffffffffff167f8be0079c531659141344cd1fd0a4f28419497f9722a3daafe3b4186f6b6457e060405160405180910390a35050565b6000604051905090565b600080fd5b600080fd5b600080fd5b600080fd5b6000601f19601f8301169050919050565b7f4e487b7100000000000000000000000000000000000000000000000000000000600052604160045260246000fd5b620001be8262000173565b810181811067ffffffffffffffff82111715620001e057620001df62000184565b5b80604052505050565b6000620001f562000155565b9050620002038282620001b3565b919050565b600067ffffffffffffffff82111562000226576200022562000184565b5b620002318262000173565b9050602081019050919050565b60005b838110156200025e57808201518184015260208101905062000241565b60008484015250505050565b6000620002816200027b8462000208565b620001e9565b905082815260208101848484011115620002a0576200029f6200016e565b5b620002ad8482856200023e565b509392505050565b600082601f830112620002cd57620002cc62000169565b5b8151620002df8482602086016200026a565b91505092915050565b600080604083850312156200030257620003016200015f565b5b600083015167ffffffffffffffff81111562000323576200032262000164565b5b6200033185828601620002b5565b925050602083015167ffffffffffffffff81111562000355576200035462000164565b5b6200036385828601620002b5565b9150509250929050565b600081519050919050565b7f4e487b7100000000000000000000000000000000000000000000000000000000600052602260045260246000fd5b60006002820490506001821680620003c057607f821691505b602082108103620003d657620003d562000378565b5b50919050565b60008190508160005260206000209050919050565b60006020601f8301049050919050565b600082821b905092915050565b600060088302620004407fffffffffffffffffffffffffffffffffffffffffffffffffffffffffffffffff8262000401565b6200044c868362000401565b95508019841693508086168417925050509392505050565b6000819050919050565b6000819050919050565b600062000499620004936200048d8462000464565b6200046e565b62000464565b9050919050565b6000819050919050565b620004b58362000478565b620004cd620004c482620004a0565b8484546200040e565b825550505050565b600090565b620004e4620004d5565b620004f1818484620004aa565b505050565b5b8181101562000519576200050d600082620004da565b600181019050620004f7565b5050565b601f82111562000568576200053281620003dc565b6200053d84620003f1565b810160208510156200054d578190505b620005656200055c85620003f1565b830182620004f6565b50505b505050565b600082821c905092915050565b60006200058d600019846008026200056d565b1980831691505092915050565b6000620005a883836200057a565b9150826002028217905092915050565b620005c3826200036d565b67ffffffffffffffff811115620005df57620005de62000184565b5b620005eb8254620003a7565b620005f88282856200051d565b600060209050601f8311600181146200063057600084156200061b578287015190505b6200062785826200059a565b86555062000697565b601f1984166200064086620003dc565b60005b828110156200066a5784890151825560018201915060208501945060208101905062000643565b868310156200068a578489015162000686601f8916826200057a565b8355505b6001600288020188555050505b505050505050565b61433980620006af6000396000f3fe608060405234801561001057600080fd5b50600436106101735760003560e01c806349f2553a116100de57806395d89b4111610097578063b88d4fde11610071578063b88d4fde14610471578063c87b56dd1461048d578063e985e9c5146104bd578063f2fde38b146104ed57610173565b806395d89b41146104075780639d0214cb14610425578063a22cb4651461045557610173565b806349f2553a146103335780634f6ccce71461034f5780636352211e1461037f57806370a08231146103af578063715018a6146103df5780638da5cb5b146103e957610173565b806323b872dd1161013057806323b872dd146102605780632a55205a1461027c5780632f745c59146102ad5780633a886180146102dd57806340c84b0e146102f957806342842e0e1461031757610173565b806301ffc9a71461017857806306fdde03146101a8578063081812fc146101c6578063095ea7b3146101f657806318148f1b1461021257806318160ddd14610242575b600080fd5b610192600480360381019061018d91906128a2565b610509565b60405161019f91906128ea565b60405180910390f35b6101b061051b565b6040516101bd9190612995565b60405180910390f35b6101e060048036038101906101db91906129ed565b6105ad565b6040516101ed9190612a5b565b60405180910390f35b610210600480360381019061020b9190612aa2565b610632565b005b61022c60048036038101906102279190612ae2565b610749565b6040516102399190612cbd565b60405180910390f35b61024a61085b565b6040516102579190612cee565b60405180910390f35b61027a60048036038101906102759190612d09565b610868565b005b61029660048036038101906102919190612d5c565b6108c8565b6040516102a4929190612d9c565b60405180910390f35b6102c760048036038101906102c29190612aa2565b610999565b6040516102d49190612cee565b60405180910390f35b6102f760048036038101906102f29190612efa565b610a3e565b005b610301610a51565b60405161030e9190612995565b60405180910390f35b610331600480360381019061032c9190612d09565b610adf565b005b61034d60048036038101906103489190612f7d565b610aff565b005b610369600480360381019061036491906129ed565b610b8e565b6040516103769190612cee565b60405180910390f35b610399600480360381019061039491906129ed565b610bff565b6040516103a69190612a5b565b60405180910390f35b6103c960048036038101906103c49190612ae2565b610cb0565b6040516103d69190612cee565b60405180910390f35b6103e7610d67565b005b6103f1610def565b6040516103fe9190612a5b565b60405180910390f35b61040f610e19565b60405161041c9190612995565b60405180910390f35b61043f600480360381019061043a91906129ed565b610eab565b60405161044c9190612995565b60405180910390f35b61046f600480360381019061046a9190612ff2565b610f4b565b005b61048b600480360381019061048691906130d3565b6110cb565b005b6104a760048036038101906104a291906129ed565b61112d565b6040516104b49190612995565b60405180910390f35b6104d760048036038101906104d29190613156565b61113f565b6040516104e491906128ea565b60405180910390f35b61050760048036038101906105029190612ae2565b6111d3565b005b6000610514826112ca565b9050919050565b60606000805461052a906131c5565b80601f0160208091040260200160405190810160405280929190818152602001828054610556906131c5565b80156105a35780601f10610578576101008083540402835291602001916105a3565b820191906000526020600020905b81548152906001019060200180831161058657829003601f168201915b5050505050905090565b60006105b882611344565b6105f7576040517f08c379a00000000000000000000000000000000000000000000000000000000081526004016105ee90613268565b60405180910390fd5b6004600083815260200190815260200160002060009054906101000a900473ffffffffffffffffffffffffffffffffffffffff169050919050565b600061063d82610bff565b90508073ffffffffffffffffffffffffffffffffffffffff168373ffffffffffffffffffffffffffffffffffffffff16036106ad576040517f08c379a00000000000000000000000000000000000000000000000000000000081526004016106a4906132fa565b60405180910390fd5b8073ffffffffffffffffffffffffffffffffffffffff166106cc6113b0565b73ffffffffffffffffffffffffffffffffffffffff1614806106fb57506106fa816106f56113b0565b61113f565b5b61073a576040517f08c379a00000000000000000000000000000000000000000000000000000000081526004016107319061338c565b60405180910390fd5b61074483836113b8565b505050565b6060600061075683610cb0565b905060008167ffffffffffffffff81111561077457610773612dcf565b5b6040519080825280602002602001820160405280156107ad57816020015b61079a6127f1565b8152602001906001900390816107925790505b50905060005b828110156108505760006107c78683610999565b90506040518060a001604052808281526020016107e38361112d565b81526020016107f183610bff565b73ffffffffffffffffffffffffffffffffffffffff16815260200161081461051b565b8152602001610821610e19565b815250838381518110610837576108366133ac565b5b60200260200101819052505080806001019150506107b3565b508092505050919050565b6000600980549050905090565b6108796108736113b0565b82611471565b6108b8576040517f08c379a00000000000000000000000000000000000000000000000000000000081526004016108af9061344d565b60405180910390fd5b6108c383838361154f565b505050565b6000806000600c60008681526020019081526020016000206040518060400160405290816000820160009054906101000a900473ffffffffffffffffffffffffffffffffffffffff1673ffffffffffffffffffffffffffffffffffffffff1673ffffffffffffffffffffffffffffffffffffffff1681526020016000820160149054906101000a900462ffffff1662ffffff1662ffffff1681525050905080600001519250612710816020015162ffffff1685610985919061349c565b61098f919061350d565b9150509250929050565b60006109a483610cb0565b82106109e5576040517f08c379a00000000000000000000000000000000000000000000000000000000081526004016109dc906135b0565b60405180910390fd5b600760008473ffffffffffffffffffffffffffffffffffffffff1673ffffffffffffffffffffffffffffffffffffffff168152602001908152602001600020600083815260200190815260200160002054905092915050565b610a4a848484846117aa565b5050505050565b600d8054610a5e906131c5565b80601f0160208091040260200160405190810160405280929190818152602001828054610a8a906131c5565b8015610ad75780601f10610aac57610100808354040283529160200191610ad7565b820191906000526020600020905b815481529060010190602001808311610aba57829003601f168201915b505050505081565b610afa838383604051806020016040528060008152506110cb565b505050565b610b076113b0565b73ffffffffffffffffffffffffffffffffffffffff16610b25610def565b73ffffffffffffffffffffffffffffffffffffffff1614610b7b576040517f08c379a0000000000000000000000000000000000000000000000000000000008152600401610b729061361c565b60405180910390fd5b80600d9081610b8a91906137e8565b5050565b6000610b9861085b565b8210610bd9576040517f08c379a0000000000000000000000000000000000000000000000000000000008152600401610bd09061392c565b60405180910390fd5b60098281548110610bed57610bec6133ac565b5b90600052602060002001549050919050565b6000806002600084815260200190815260200160002060009054906101000a900473ffffffffffffffffffffffffffffffffffffffff169050600073ffffffffffffffffffffffffffffffffffffffff168173ffffffffffffffffffffffffffffffffffffffff1603610ca7576040517f08c379a0000000000000000000000000000000000000000000000000000000008152600401610c9e906139be565b60405180910390fd5b80915050919050565b60008073ffffffffffffffffffffffffffffffffffffffff168273ffffffffffffffffffffffffffffffffffffffff1603610d20576040517f08c379a0000000000000000000000000000000000000000000000000000000008152600401610d1790613a50565b60405180910390fd5b600360008373ffffffffffffffffffffffffffffffffffffffff1673ffffffffffffffffffffffffffffffffffffffff168152602001908152602001600020549050919050565b610d6f6113b0565b73ffffffffffffffffffffffffffffffffffffffff16610d8d610def565b73ffffffffffffffffffffffffffffffffffffffff1614610de3576040517f08c379a0000000000000000000000000000000000000000000000000000000008152600401610dda9061361c565b60405180910390fd5b610ded6000611822565b565b6000600b60009054906101000a900473ffffffffffffffffffffffffffffffffffffffff16905090565b606060018054610e28906131c5565b80601f0160208091040260200160405190810160405280929190818152602001828054610e54906131c5565b8015610ea15780601f10610e7657610100808354040283529160200191610ea1565b820191906000526020600020905b815481529060010190602001808311610e8457829003601f168201915b5050505050905090565b600e6020528060005260406000206000915090508054610eca906131c5565b80601f0160208091040260200160405190810160405280929190818152602001828054610ef6906131c5565b8015610f435780601f10610f1857610100808354040283529160200191610f43565b820191906000526020600020905b815481529060010190602001808311610f2657829003601f168201915b505050505081565b610f536113b0565b73ffffffffffffffffffffffffffffffffffffffff168273ffffffffffffffffffffffffffffffffffffffff1603610fc0576040517f08c379a0000000000000000000000000000000000000000000000000000000008152600401610fb790613abc565b60405180910390fd5b8060056000610fcd6113b0565b73ffffffffffffffffffffffffffffffffffffffff1673ffffffffffffffffffffffffffffffffffffffff16815260200190815260200160002060008473ffffffffffffffffffffffffffffffffffffffff1673ffffffffffffffffffffffffffffffffffffffff16815260200190815260200160002060006101000a81548160ff0219169083151502179055508173ffffffffffffffffffffffffffffffffffffffff1661107a6113b0565b73ffffffffffffffffffffffffffffffffffffffff167f17307eab39ab6107e8899845ad3d59bd9653f200f220920489ca2b5937696c31836040516110bf91906128ea565b60405180910390a35050565b6110dc6110d66113b0565b83611471565b61111b576040517f08c379a00000000000000000000000000000000000000000000000000000000081526004016111129061344d565b60405180910390fd5b611127848484846118e8565b50505050565b606061113882611944565b9050919050565b6000600560008473ffffffffffffffffffffffffffffffffffffffff1673ffffffffffffffffffffffffffffffffffffffff16815260200190815260200160002060008373ffffffffffffffffffffffffffffffffffffffff1673ffffffffffffffffffffffffffffffffffffffff16815260200190815260200160002060009054906101000a900460ff16905092915050565b6111db6113b0565b73ffffffffffffffffffffffffffffffffffffffff166111f9610def565b73ffffffffffffffffffffffffffffffffffffffff161461124f576040517f08c379a00000000000000000000000000000000000000000000000000000000081526004016112469061361c565b60405180910390fd5b600073ffffffffffffffffffffffffffffffffffffffff168173ffffffffffffffffffffffffffffffffffffffff16036112be576040517f08c379a00000000000000000000000000000000000000000000000000000000081526004016112b590613b4e565b60405180910390fd5b6112c781611822565b50565b60007f2a55205a000000000000000000000000000000000000000000000000000000007bffffffffffffffffffffffffffffffffffffffffffffffffffffffff1916827bffffffffffffffffffffffffffffffffffffffffffffffffffffffff1916148061133d575061133c82611a95565b5b9050919050565b60008073ffffffffffffffffffffffffffffffffffffffff166002600084815260200190815260200160002060009054906101000a900473ffffffffffffffffffffffffffffffffffffffff1673ffffffffffffffffffffffffffffffffffffffff1614159050919050565b600033905090565b816004600083815260200190815260200160002060006101000a81548173ffffffffffffffffffffffffffffffffffffffff021916908373ffffffffffffffffffffffffffffffffffffffff160217905550808273ffffffffffffffffffffffffffffffffffffffff1661142b83610bff565b73ffffffffffffffffffffffffffffffffffffffff167f8c5be1e5ebec7d5bd14f71427d1e84f3dd0314c0f7b2291e5b200ac8c7c3b92560405160405180910390a45050565b600061147c82611344565b6114bb576040517f08c379a00000000000000000000000000000000000000000000000000000000081526004016114b290613be0565b60405180910390fd5b60006114c683610bff565b90508073ffffffffffffffffffffffffffffffffffffffff168473ffffffffffffffffffffffffffffffffffffffff16148061153557508373ffffffffffffffffffffffffffffffffffffffff1661151d846105ad565b73ffffffffffffffffffffffffffffffffffffffff16145b806115465750611545818561113f565b5b91505092915050565b8273ffffffffffffffffffffffffffffffffffffffff1661156f82610bff565b73ffffffffffffffffffffffffffffffffffffffff16146115c5576040517f08c379a00000000000000000000000000000000000000000000000000000000081526004016115bc90613c72565b60405180910390fd5b600073ffffffffffffffffffffffffffffffffffffffff168273ffffffffffffffffffffffffffffffffffffffff1603611634576040517f08c379a000000000000000000000000000000000000000000000000000000000815260040161162b90613d04565b60405180910390fd5b61163f838383611b0f565b61164a6000826113b8565b6001600360008573ffffffffffffffffffffffffffffffffffffffff1673ffffffffffffffffffffffffffffffffffffffff168152602001908152602001600020600082825461169a9190613d24565b925050819055506001600360008473ffffffffffffffffffffffffffffffffffffffff1673ffffffffffffffffffffffffffffffffffffffff16815260200190815260200160002060008282546116f19190613d58565b92505081905550816002600083815260200190815260200160002060006101000a81548173ffffffffffffffffffffffffffffffffffffffff021916908373ffffffffffffffffffffffffffffffffffffffff160217905550808273ffffffffffffffffffffffffffffffffffffffff168473ffffffffffffffffffffffffffffffffffffffff167fddf252ad1be2c89b69c2b068fc378daa952ba7f163c4a11628f55a4df523b3ef60405160405180910390a4505050565b600080600f549050600f60008154809291906117c590613d8c565b91905055506117d48582611b1f565b6117de8187611cec565b85600e600083815260200190815260200160002090816117fe91906137e8565b50600083111561181657611815600f548585611d59565b5b80915050949350505050565b6000600b60009054906101000a900473ffffffffffffffffffffffffffffffffffffffff16905081600b60006101000a81548173ffffffffffffffffffffffffffffffffffffffff021916908373ffffffffffffffffffffffffffffffffffffffff1602179055508173ffffffffffffffffffffffffffffffffffffffff168173ffffffffffffffffffffffffffffffffffffffff167f8be0079c531659141344cd1fd0a4f28419497f9722a3daafe3b4186f6b6457e060405160405180910390a35050565b6118f384848461154f565b6118ff84848484611e55565b61193e576040517f08c379a000000000000000000000000000000000000000000000000000000000815260040161193590613e46565b60405180910390fd5b50505050565b606061194f82611344565b61198e576040517f08c379a000000000000000000000000000000000000000000000000000000000815260040161198590613ed8565b60405180910390fd5b60006006600084815260200190815260200160002080546119ae906131c5565b80601f01602080910402602001604051908101604052809291908181526020018280546119da906131c5565b8015611a275780601f106119fc57610100808354040283529160200191611a27565b820191906000526020600020905b815481529060010190602001808311611a0a57829003601f168201915b505050505090506000611a38611fdc565b90506000815103611a4d578192505050611a90565b600082511115611a82578082604051602001611a6a929190613f34565b60405160208183030381529060405292505050611a90565b611a8b8461206e565b925050505b919050565b60007f780e9d63000000000000000000000000000000000000000000000000000000007bffffffffffffffffffffffffffffffffffffffffffffffffffffffff1916827bffffffffffffffffffffffffffffffffffffffffffffffffffffffff19161480611b085750611b0782612115565b5b9050919050565b611b1a8383836121f7565b505050565b600073ffffffffffffffffffffffffffffffffffffffff168273ffffffffffffffffffffffffffffffffffffffff1603611b8e576040517f08c379a0000000000000000000000000000000000000000000000000000000008152600401611b8590613fa4565b60405180910390fd5b611b9781611344565b15611bd7576040517f08c379a0000000000000000000000000000000000000000000000000000000008152600401611bce90614010565b60405180910390fd5b611be360008383611b0f565b6001600360008473ffffffffffffffffffffffffffffffffffffffff1673ffffffffffffffffffffffffffffffffffffffff1681526020019081526020016000206000828254611c339190613d58565b92505081905550816002600083815260200190815260200160002060006101000a81548173ffffffffffffffffffffffffffffffffffffffff021916908373ffffffffffffffffffffffffffffffffffffffff160217905550808273ffffffffffffffffffffffffffffffffffffffff16600073ffffffffffffffffffffffffffffffffffffffff167fddf252ad1be2c89b69c2b068fc378daa952ba7f163c4a11628f55a4df523b3ef60405160405180910390a45050565b611cf582611344565b611d34576040517f08c379a0000000000000000000000000000000000000000000000000000000008152600401611d2b906140a2565b60405180910390fd5b80600660008481526020019081526020016000209081611d5491906137e8565b505050565b612710811115611d9e576040517f08c379a0000000000000000000000000000000000000000000000000000000008152600401611d959061410e565b60405180910390fd5b60405180604001604052808373ffffffffffffffffffffffffffffffffffffffff1681526020018262ffffff16815250600c600085815260200190815260200160002060008201518160000160006101000a81548173ffffffffffffffffffffffffffffffffffffffff021916908373ffffffffffffffffffffffffffffffffffffffff16021790555060208201518160000160146101000a81548162ffffff021916908362ffffff160217905550905050505050565b6000611e768473ffffffffffffffffffffffffffffffffffffffff16612309565b15611fcf578373ffffffffffffffffffffffffffffffffffffffff1663150b7a02611e9f6113b0565b8786866040518563ffffffff1660e01b8152600401611ec19493929190614183565b6020604051808303816000875af1925050508015611efd57506040513d601f19601f82011682018060405250810190611efa91906141e4565b60015b611f7f573d8060008114611f2d576040519150601f19603f3d011682016040523d82523d6000602084013e611f32565b606091505b506000815103611f77576040517f08c379a0000000000000000000000000000000000000000000000000000000008152600401611f6e90613e46565b60405180910390fd5b805181602001fd5b63150b7a0260e01b7bffffffffffffffffffffffffffffffffffffffffffffffffffffffff1916817bffffffffffffffffffffffffffffffffffffffffffffffffffffffff191614915050611fd4565b600190505b949350505050565b6060600d8054611feb906131c5565b80601f0160208091040260200160405190810160405280929190818152602001828054612017906131c5565b80156120645780601f1061203957610100808354040283529160200191612064565b820191906000526020600020905b81548152906001019060200180831161204757829003601f168201915b5050505050905090565b606061207982611344565b6120b8576040517f08c379a00000000000000000000000000000000000000000000000000000000081526004016120af90614283565b60405180910390fd5b60006120c2611fdc565b905060008151116120e2576040518060200160405280600081525061210d565b806120ec8461231c565b6040516020016120fd929190613f34565b6040516020818303038152906040525b915050919050565b60007f80ac58cd000000000000000000000000000000000000000000000000000000007bffffffffffffffffffffffffffffffffffffffffffffffffffffffff1916827bffffffffffffffffffffffffffffffffffffffffffffffffffffffff191614806121e057507f5b5e139f000000000000000000000000000000000000000000000000000000007bffffffffffffffffffffffffffffffffffffffffffffffffffffffff1916827bffffffffffffffffffffffffffffffffffffffffffffffffffffffff1916145b806121f057506121ef8261247c565b5b9050919050565b6122028383836124e6565b600073ffffffffffffffffffffffffffffffffffffffff168373ffffffffffffffffffffffffffffffffffffffff16036122445761223f816124eb565b612283565b8173ffffffffffffffffffffffffffffffffffffffff168373ffffffffffffffffffffffffffffffffffffffff1614612282576122818382612534565b5b5b600073ffffffffffffffffffffffffffffffffffffffff168273ffffffffffffffffffffffffffffffffffffffff16036122c5576122c0816126a1565b612304565b8273ffffffffffffffffffffffffffffffffffffffff168273ffffffffffffffffffffffffffffffffffffffff1614612303576123028282612772565b5b5b505050565b600080823b905060008111915050919050565b606060008203612363576040518060400160405280600181526020017f30000000000000000000000000000000000000000000000000000000000000008152509050612477565b600082905060005b6000821461239557808061237e90613d8c565b915050600a8261238e919061350d565b915061236b565b60008167ffffffffffffffff8111156123b1576123b0612dcf565b5b6040519080825280601f01601f1916602001820160405280156123e35781602001600182028036833780820191505090505b5090505b60008514612470576001826123fc9190613d24565b9150600a8561240b91906142a3565b60306124179190613d58565b60f81b81838151811061242d5761242c6133ac565b5b60200101907effffffffffffffffffffffffffffffffffffffffffffffffffffffffffffff1916908160001a905350600a85612469919061350d565b94506123e7565b8093505050505b919050565b60007f01ffc9a7000000000000000000000000000000000000000000000000000000007bffffffffffffffffffffffffffffffffffffffffffffffffffffffff1916827bffffffffffffffffffffffffffffffffffffffffffffffffffffffff1916149050919050565b505050565b600980549050600a600083815260200190815260200160002081905550600981908060018154018082558091505060019003906000526020600020016000909190919091505550565b6000600161254184610cb0565b61254b9190613d24565b9050600060086000848152602001908152602001600020549050818114612630576000600760008673ffffffffffffffffffffffffffffffffffffffff1673ffffffffffffffffffffffffffffffffffffffff168152602001908152602001600020600084815260200190815260200160002054905080600760008773ffffffffffffffffffffffffffffffffffffffff1673ffffffffffffffffffffffffffffffffffffffff168152602001908152602001600020600084815260200190815260200160002081905550816008600083815260200190815260200160002081905550505b6008600084815260200190815260200160002060009055600760008573ffffffffffffffffffffffffffffffffffffffff1673ffffffffffffffffffffffffffffffffffffffff16815260200190815260200160002060008381526020019081526020016000206000905550505050565b600060016009805490506126b59190613d24565b90506000600a60008481526020019081526020016000205490506000600983815481106126e5576126e46133ac565b5b906000526020600020015490508060098381548110612707576127066133ac565b5b906000526020600020018190555081600a600083815260200190815260200160002081905550600a6000858152602001908152602001600020600090556009805480612756576127556142d4565b5b6001900381819060005260206000200160009055905550505050565b600061277d83610cb0565b905081600760008573ffffffffffffffffffffffffffffffffffffffff1673ffffffffffffffffffffffffffffffffffffffff168152602001908152602001600020600083815260200190815260200160002081905550806008600084815260200190815260200160002081905550505050565b6040518060a001604052806000815260200160608152602001600073ffffffffffffffffffffffffffffffffffffffff16815260200160608152602001606081525090565b6000604051905090565b600080fd5b600080fd5b60007fffffffff0000000000000000000000000000000000000000000000000000000082169050919050565b61287f8161284a565b811461288a57600080fd5b50565b60008135905061289c81612876565b92915050565b6000602082840312156128b8576128b7612840565b5b60006128c68482850161288d565b91505092915050565b60008115159050919050565b6128e4816128cf565b82525050565b60006020820190506128ff60008301846128db565b92915050565b600081519050919050565b600082825260208201905092915050565b60005b8381101561293f578082015181840152602081019050612924565b60008484015250505050565b6000601f19601f8301169050919050565b600061296782612905565b6129718185612910565b9350612981818560208601612921565b61298a8161294b565b840191505092915050565b600060208201905081810360008301526129af818461295c565b905092915050565b6000819050919050565b6129ca816129b7565b81146129d557600080fd5b50565b6000813590506129e7816129c1565b92915050565b600060208284031215612a0357612a02612840565b5b6000612a11848285016129d8565b91505092915050565b600073ffffffffffffffffffffffffffffffffffffffff82169050919050565b6000612a4582612a1a565b9050919050565b612a5581612a3a565b82525050565b6000602082019050612a706000830184612a4c565b92915050565b612a7f81612a3a565b8114612a8a57600080fd5b50565b600081359050612a9c81612a76565b92915050565b60008060408385031215612ab957612ab8612840565b5b6000612ac785828601612a8d565b9250506020612ad8858286016129d8565b9150509250929050565b600060208284031215612af857612af7612840565b5b6000612b0684828501612a8d565b91505092915050565b600081519050919050565b600082825260208201905092915050565b6000819050602082019050919050565b612b44816129b7565b82525050565b600082825260208201905092915050565b6000612b6682612905565b612b708185612b4a565b9350612b80818560208601612921565b612b898161294b565b840191505092915050565b612b9d81612a3a565b82525050565b600060a083016000830151612bbb6000860182612b3b565b5060208301518482036020860152612bd38282612b5b565b9150506040830151612be86040860182612b94565b5060608301518482036060860152612c008282612b5b565b91505060808301518482036080860152612c1a8282612b5b565b9150508091505092915050565b6000612c338383612ba3565b905092915050565b6000602082019050919050565b6000612c5382612b0f565b612c5d8185612b1a565b935083602082028501612c6f85612b2b565b8060005b85811015612cab5784840389528151612c8c8582612c27565b9450612c9783612c3b565b925060208a01995050600181019050612c73565b50829750879550505050505092915050565b60006020820190508181036000830152612cd78184612c48565b905092915050565b612ce8816129b7565b82525050565b6000602082019050612d036000830184612cdf565b92915050565b600080600060608486031215612d2257612d21612840565b5b6000612d3086828701612a8d565b9350506020612d4186828701612a8d565b9250506040612d52868287016129d8565b9150509250925092565b60008060408385031215612d7357612d72612840565b5b6000612d81858286016129d8565b9250506020612d92858286016129d8565b9150509250929050565b6000604082019050612db16000830185612a4c565b612dbe6020830184612cdf565b9392505050565b600080fd5b600080fd5b7f4e487b7100000000000000000000000000000000000000000000000000000000600052604160045260246000fd5b612e078261294b565b810181811067ffffffffffffffff82111715612e2657612e25612dcf565b5b80604052505050565b6000612e39612836565b9050612e458282612dfe565b919050565b600067ffffffffffffffff821115612e6557612e64612dcf565b5b612e6e8261294b565b9050602081019050919050565b82818337600083830152505050565b6000612e9d612e9884612e4a565b612e2f565b905082815260208101848484011115612eb957612eb8612dca565b5b612ec4848285612e7b565b509392505050565b600082601f830112612ee157612ee0612dc5565b5b8135612ef1848260208601612e8a565b91505092915050565b60008060008060808587031215612f1457612f13612840565b5b600085013567ffffffffffffffff811115612f3257612f31612845565b5b612f3e87828801612ecc565b9450506020612f4f87828801612a8d565b9350506040612f6087828801612a8d565b9250506060612f71878288016129d8565b91505092959194509250565b600060208284031215612f9357612f92612840565b5b600082013567ffffffffffffffff811115612fb157612fb0612845565b5b612fbd84828501612ecc565b91505092915050565b612fcf816128cf565b8114612fda57600080fd5b50565b600081359050612fec81612fc6565b92915050565b6000806040838503121561300957613008612840565b5b600061301785828601612a8d565b925050602061302885828601612fdd565b9150509250929050565b600067ffffffffffffffff82111561304d5761304c612dcf565b5b6130568261294b565b9050602081019050919050565b600061307661307184613032565b612e2f565b90508281526020810184848401111561309257613091612dca565b5b61309d848285612e7b565b509392505050565b600082601f8301126130ba576130b9612dc5565b5b81356130ca848260208601613063565b91505092915050565b600080600080608085870312156130ed576130ec612840565b5b60006130fb87828801612a8d565b945050602061310c87828801612a8d565b935050604061311d878288016129d8565b925050606085013567ffffffffffffffff81111561313e5761313d612845565b5b61314a878288016130a5565b91505092959194509250565b6000806040838503121561316d5761316c612840565b5b600061317b85828601612a8d565b925050602061318c85828601612a8d565b9150509250929050565b7f4e487b7100000000000000000000000000000000000000000000000000000000600052602260045260246000fd5b600060028204905060018216806131dd57607f821691505b6020821081036131f0576131ef613196565b5b50919050565b7f4552433732313a20617070726f76656420717565727920666f72206e6f6e657860008201527f697374656e7420746f6b656e0000000000000000000000000000000000000000602082015250565b6000613252602c83612910565b915061325d826131f6565b604082019050919050565b6000602082019050818103600083015261328181613245565b9050919050565b7f4552433732313a20617070726f76616c20746f2063757272656e74206f776e6560008201527f7200000000000000000000000000000000000000000000000000000000000000602082015250565b60006132e4602183612910565b91506132ef82613288565b604082019050919050565b60006020820190508181036000830152613313816132d7565b9050919050565b7f4552433732313a20617070726f76652063616c6c6572206973206e6f74206f7760008201527f6e6572206e6f7220617070726f76656420666f7220616c6c0000000000000000602082015250565b6000613376603883612910565b91506133818261331a565b604082019050919050565b600060208201905081810360008301526133a581613369565b9050919050565b7f4e487b7100000000000000000000000000000000000000000000000000000000600052603260045260246000fd5b7f4552433732313a207472616e736665722063616c6c6572206973206e6f74206f60008201527f776e6572206e6f7220617070726f766564000000000000000000000000000000602082015250565b6000613437603183612910565b9150613442826133db565b604082019050919050565b600060208201905081810360008301526134668161342a565b9050919050565b7f4e487b7100000000000000000000000000000000000000000000000000000000600052601160045260246000fd5b60006134a7826129b7565b91506134b2836129b7565b92508282026134c0816129b7565b915082820484148315176134d7576134d661346d565b5b5092915050565b7f4e487b7100000000000000000000000000000000000000000000000000000000600052601260045260246000fd5b6000613518826129b7565b9150613523836129b7565b925082613533576135326134de565b5b828204905092915050565b7f455243373231456e756d657261626c653a206f776e657220696e646578206f7560008201527f74206f6620626f756e6473000000000000000000000000000000000000000000602082015250565b600061359a602b83612910565b91506135a58261353e565b604082019050919050565b600060208201905081810360008301526135c98161358d565b9050919050565b7f4f776e61626c653a2063616c6c6572206973206e6f7420746865206f776e6572600082015250565b6000613606602083612910565b9150613611826135d0565b602082019050919050565b60006020820190508181036000830152613635816135f9565b9050919050565b60008190508160005260206000209050919050565b60006020601f8301049050919050565b600082821b905092915050565b60006008830261369e7fffffffffffffffffffffffffffffffffffffffffffffffffffffffffffffffff82613661565b6136a88683613661565b95508019841693508086168417925050509392505050565b6000819050919050565b60006136e56136e06136db846129b7565b6136c0565b6129b7565b9050919050565b6000819050919050565b6136ff836136ca565b61371361370b826136ec565b84845461366e565b825550505050565b600090565b61372861371b565b6137338184846136f6565b505050565b5b818110156137575761374c600082613720565b600181019050613739565b5050565b601f82111561379c5761376d8161363c565b61377684613651565b81016020851015613785578190505b61379961379185613651565b830182613738565b50505b505050565b600082821c905092915050565b60006137bf600019846008026137a1565b1980831691505092915050565b60006137d883836137ae565b9150826002028217905092915050565b6137f182612905565b67ffffffffffffffff81111561380a57613809612dcf565b5b61381482546131c5565b61381f82828561375b565b600060209050601f8311600181146138525760008415613840578287015190505b61384a85826137cc565b8655506138b2565b601f1984166138608661363c565b60005b8281101561388857848901518255600182019150602085019450602081019050613863565b868310156138a557848901516138a1601f8916826137ae565b8355505b6001600288020188555050505b505050505050565b7f455243373231456e756d657261626c653a20676c6f62616c20696e646578206f60008201527f7574206f6620626f756e64730000000000000000000000000000000000000000602082015250565b6000613916602c83612910565b9150613921826138ba565b604082019050919050565b6000602082019050818103600083015261394581613909565b9050919050565b7f4552433732313a206f776e657220717565727920666f72206e6f6e657869737460008201527f656e7420746f6b656e0000000000000000000000000000000000000000000000602082015250565b60006139a8602983612910565b91506139b38261394c565b604082019050919050565b600060208201905081810360008301526139d78161399b565b9050919050565b7f4552433732313a2062616c616e636520717565727920666f7220746865207a6560008201527f726f206164647265737300000000000000000000000000000000000000000000602082015250565b6000613a3a602a83612910565b9150613a45826139de565b604082019050919050565b60006020820190508181036000830152613a6981613a2d565b9050919050565b7f4552433732313a20617070726f766520746f2063616c6c657200000000000000600082015250565b6000613aa6601983612910565b9150613ab182613a70565b602082019050919050565b60006020820190508181036000830152613ad581613a99565b9050919050565b7f4f776e61626c653a206e6577206f776e657220697320746865207a65726f206160008201527f6464726573730000000000000000000000000000000000000000000000000000602082015250565b6000613b38602683612910565b9150613b4382613adc565b604082019050919050565b60006020820190508181036000830152613b6781613b2b565b9050919050565b7f4552433732313a206f70657261746f7220717565727920666f72206e6f6e657860008201527f697374656e7420746f6b656e0000000000000000000000000000000000000000602082015250565b6000613bca602c83612910565b9150613bd582613b6e565b604082019050919050565b60006020820190508181036000830152613bf981613bbd565b9050919050565b7f4552433732313a207472616e73666572206f6620746f6b656e2074686174206960008201527f73206e6f74206f776e0000000000000000000000000000000000000000000000602082015250565b6000613c5c602983612910565b9150613c6782613c00565b604082019050919050565b60006020820190508181036000830152613c8b81613c4f565b9050919050565b7f4552433732313a207472616e7366657220746f20746865207a65726f2061646460008201527f7265737300000000000000000000000000000000000000000000000000000000602082015250565b6000613cee602483612910565b9150613cf982613c92565b604082019050919050565b60006020820190508181036000830152613d1d81613ce1565b9050919050565b6000613d2f826129b7565b9150613d3a836129b7565b9250828203905081811115613d5257613d5161346d565b5b92915050565b6000613d63826129b7565b9150613d6e836129b7565b9250828201905080821115613d8657613d8561346d565b5b92915050565b6000613d97826129b7565b91507fffffffffffffffffffffffffffffffffffffffffffffffffffffffffffffffff8203613dc957613dc861346d565b5b600182019050919050565b7f4552433732313a207472616e7366657220746f206e6f6e20455243373231526560008201527f63656976657220696d706c656d656e7465720000000000000000000000000000602082015250565b6000613e30603283612910565b9150613e3b82613dd4565b604082019050919050565b60006020820190508181036000830152613e5f81613e23565b9050919050565b7f45524337323155524953746f726167653a2055524920717565727920666f722060008201527f6e6f6e6578697374656e7420746f6b656e000000000000000000000000000000602082015250565b6000613ec2603183612910565b9150613ecd82613e66565b604082019050919050565b60006020820190508181036000830152613ef181613eb5565b9050919050565b600081905092915050565b6000613f0e82612905565b613f188185613ef8565b9350613f28818560208601612921565b80840191505092915050565b6000613f408285613f03565b9150613f4c8284613f03565b91508190509392505050565b7f4552433732313a206d696e7420746f20746865207a65726f2061646472657373600082015250565b6000613f8e602083612910565b9150613f9982613f58565b602082019050919050565b60006020820190508181036000830152613fbd81613f81565b9050919050565b7f4552433732313a20746f6b656e20616c7265616479206d696e74656400000000600082015250565b6000613ffa601c83612910565b915061400582613fc4565b602082019050919050565b6000602082019050818103600083015261402981613fed565b9050919050565b7f45524337323155524953746f726167653a2055524920736574206f66206e6f6e60008201527f6578697374656e7420746f6b656e000000000000000000000000000000000000602082015250565b600061408c602e83612910565b915061409782614030565b604082019050919050565b600060208201905081810360008301526140bb8161407f565b9050919050565b7f45524332393831526f79616c746965733a20546f6f2068696768000000000000600082015250565b60006140f8601a83612910565b9150614103826140c2565b602082019050919050565b60006020820190508181036000830152614127816140eb565b9050919050565b600081519050919050565b600082825260208201905092915050565b60006141558261412e565b61415f8185614139565b935061416f818560208601612921565b6141788161294b565b840191505092915050565b60006080820190506141986000830187612a4c565b6141a56020830186612a4c565b6141b26040830185612cdf565b81810360608301526141c4818461414a565b905095945050505050565b6000815190506141de81612876565b92915050565b6000602082840312156141fa576141f9612840565b5b6000614208848285016141cf565b91505092915050565b7f4552433732314d657461646174613a2055524920717565727920666f72206e6f60008201527f6e6578697374656e7420746f6b656e0000000000000000000000000000000000602082015250565b600061426d602f83612910565b915061427882614211565b604082019050919050565b6000602082019050818103600083015261429c81614260565b9050919050565b60006142ae826129b7565b91506142b9836129b7565b9250826142c9576142c86134de565b5b828206905092915050565b7f4e487b7100000000000000000000000000000000000000000000000000000000600052603160045260246000fdfea2646970667358221220fbdb1d7845117508be07e25057c55f77e2c674da53be47de60fc4dd150a0f54e64736f6c63430008180033",
  "linkReferences": {},
  "deployedLinkReferences": {}
}