{
  "_format": "hh-sol-artifact-1",
  "contractName": "MarketplaceERC1155",
  "sourceName": "contracts/MarketplaceERC1155.sol",
  "abi": [
    {
      "inputs": [],
      "stateMutability": "nonpayable",
      "type": "constructor"
    },
    {
      "anonymous": false,
      "inputs": [
        {
          "indexed": false,
          "internalType": "address",
          "name": "previousAdmin",
          "type": "address"
        },
        {
          "indexed": false,
          "internalType": "address",
          "name": "newAdmin",
          "type": "address"
        }
      ],
      "name": "AdminChanged",
      "type": "event"
    },
    {
      "anonymous": false,
      "inputs": [
        {
          "indexed": true,
          "internalType": "address",
          "name": "beacon",
          "type": "address"
        }
      ],
      "name": "BeaconUpgraded",
      "type": "event"
    },
    {
      "anonymous": false,
      "inputs": [
        {
          "indexed": true,
          "internalType": "address",
          "name": "seller",
          "type": "address"
        },
        {
          "indexed": true,
          "internalType": "address",
          "name": "buyer",
          "type": "address"
        },
        {
          "indexed": true,
          "internalType": "address",
          "name": "settlementToken",
          "type": "address"
        },
        {
          "indexed": false,
          "internalType": "uint256",
          "name": "price",
          "type": "uint256"
        }
      ],
      "name": "BoughtWithSig",
      "type": "event"
    },
    {
      "anonymous": false,
      "inputs": [
        {
          "indexed": false,
          "internalType": "uint8",
          "name": "version",
          "type": "uint8"
        }
      ],
      "name": "Initialized",
      "type": "event"
    },
    {
      "anonymous": false,
      "inputs": [
        {
          "indexed": true,
          "internalType": "bytes32",
          "name": "role",
          "type": "bytes32"
        },
        {
          "indexed": true,
          "internalType": "bytes32",
          "name": "previousAdminRole",
          "type": "bytes32"
        },
        {
          "indexed": true,
          "internalType": "bytes32",
          "name": "newAdminRole",
          "type": "bytes32"
        }
      ],
      "name": "RoleAdminChanged",
      "type": "event"
    },
    {
      "anonymous": false,
      "inputs": [
        {
          "indexed": true,
          "internalType": "bytes32",
          "name": "role",
          "type": "bytes32"
        },
        {
          "indexed": true,
          "internalType": "address",
          "name": "account",
          "type": "address"
        },
        {
          "indexed": true,
          "internalType": "address",
          "name": "sender",
          "type": "address"
        }
      ],
      "name": "RoleGranted",
      "type": "event"
    },
    {
      "anonymous": false,
      "inputs": [
        {
          "indexed": true,
          "internalType": "bytes32",
          "name": "role",
          "type": "bytes32"
        },
        {
          "indexed": true,
          "internalType": "address",
          "name": "account",
          "type": "address"
        },
        {
          "indexed": true,
          "internalType": "address",
          "name": "sender",
          "type": "address"
        }
      ],
      "name": "RoleRevoked",
      "type": "event"
    },
    {
      "anonymous": false,
      "inputs": [
        {
          "indexed": true,
          "internalType": "address",
          "name": "signer",
          "type": "address"
        },
        {
          "indexed": true,
          "internalType": "bytes32",
          "name": "signatureHash",
          "type": "bytes32"
        }
      ],
      "name": "SignatureCancelled",
      "type": "event"
    },
    {
      "anonymous": false,
      "inputs": [
        {
          "indexed": true,
          "internalType": "address",
          "name": "implementation",
          "type": "address"
        }
      ],
      "name": "Upgraded",
      "type": "event"
    },
    {
      "inputs": [],
      "name": "DEFAULT_ADMIN_ROLE",
      "outputs": [
        {
          "internalType": "bytes32",
          "name": "",
          "type": "bytes32"
        }
      ],
      "stateMutability": "view",
      "type": "function"
    },
    {
      "inputs": [],
      "name": "EXECUTOR",
      "outputs": [
        {
          "internalType": "bytes32",
          "name": "",
          "type": "bytes32"
        }
      ],
      "stateMutability": "view",
      "type": "function"
    },
    {
      "inputs": [],
      "name": "FUND_MANAGER",
      "outputs": [
        {
          "internalType": "bytes32",
          "name": "",
          "type": "bytes32"
        }
      ],
      "stateMutability": "view",
      "type": "function"
    },
    {
      "inputs": [
        {
          "components": [
            {
              "internalType": "address",
              "name": "bidder",
              "type": "address"
            },
            {
              "internalType": "address",
              "name": "tokenContract",
              "type": "address"
            },
            {
              "internalType": "uint256",
              "name": "tokenId",
              "type": "uint256"
            },
            {
              "internalType": "address",
              "name": "settlementToken",
              "type": "address"
            },
            {
              "internalType": "uint256",
              "name": "bidValue",
              "type": "uint256"
            },
            {
              "internalType": "uint256",
              "name": "nonce",
              "type": "uint256"
            },
            {
              "internalType": "bytes",
              "name": "signature",
              "type": "bytes"
            }
          ],
          "internalType": "struct MarketplaceBase.BidSignature",
          "name": "bidSig",
          "type": "tuple"
        },
        {
          "components": [
            {
              "internalType": "address",
              "name": "seller",
              "type": "address"
            },
            {
              "internalType": "address",
              "name": "tokenContract",
              "type": "address"
            },
            {
              "internalType": "uint256",
              "name": "tokenId",
              "type": "uint256"
            },
            {
              "internalType": "address",
              "name": "settlementToken",
              "type": "address"
            },
            {
              "internalType": "uint256",
              "name": "minimumBidPrice",
              "type": "uint256"
            },
            {
              "internalType": "uint256",
              "name": "reservePrice",
              "type": "uint256"
            },
            {
              "internalType": "uint256",
              "name": "expirationDate",
              "type": "uint256"
            },
            {
              "internalType": "uint256",
              "name": "nonce",
              "type": "uint256"
            },
            {
              "internalType": "bytes",
              "name": "signature",
              "type": "bytes"
            }
          ],
          "internalType": "struct MarketplaceBase.AuctionSignature",
          "name": "auctionSig",
          "type": "tuple"
        }
      ],
      "name": "acceptBid",
      "outputs": [],
      "stateMutability": "nonpayable",
      "type": "function"
    },
    {
      "inputs": [
        {
          "components": [
            {
              "components": [
                {
                  "internalType": "address",
                  "name": "bidder",
                  "type": "address"
                },
                {
                  "internalType": "address",
                  "name": "tokenContract",
                  "type": "address"
                },
                {
                  "internalType": "uint256",
                  "name": "tokenId",
                  "type": "uint256"
                },
                {
                  "internalType": "address",
                  "name": "settlementToken",
                  "type": "address"
                },
                {
                  "internalType": "uint256",
                  "name": "bidValue",
                  "type": "uint256"
                },
                {
                  "internalType": "uint256",
                  "name": "nonce",
                  "type": "uint256"
                },
                {
                  "internalType": "bytes",
                  "name": "signature",
                  "type": "bytes"
                }
              ],
              "internalType": "struct MarketplaceBase.BidSignature",
              "name": "bidSig",
              "type": "tuple"
            },
            {
              "internalType": "uint256",
              "name": "amount",
              "type": "uint256"
            }
          ],
          "internalType": "struct MarketplaceERC1155.BidSignatureMultiple",
          "name": "bidSigMulti",
          "type": "tuple"
        },
        {
          "components": [
            {
              "components": [
                {
                  "internalType": "address",
                  "name": "seller",
                  "type": "address"
                },
                {
                  "internalType": "address",
                  "name": "tokenContract",
                  "type": "address"
                },
                {
                  "internalType": "uint256",
                  "name": "tokenId",
                  "type": "uint256"
                },
                {
                  "internalType": "address",
                  "name": "settlementToken",
                  "type": "address"
                },
                {
                  "internalType": "uint256",
                  "name": "minimumBidPrice",
                  "type": "uint256"
                },
                {
                  "internalType": "uint256",
                  "name": "reservePrice",
                  "type": "uint256"
                },
                {
                  "internalType": "uint256",
                  "name": "expirationDate",
                  "type": "uint256"
                },
                {
                  "internalType": "uint256",
                  "name": "nonce",
                  "type": "uint256"
                },
                {
                  "internalType": "bytes",
                  "name": "signature",
                  "type": "bytes"
                }
              ],
              "internalType": "struct MarketplaceBase.AuctionSignature",
              "name": "auctionSig",
              "type": "tuple"
            },
            {
              "internalType": "uint256",
              "name": "amount",
              "type": "uint256"
            }
          ],
          "internalType": "struct MarketplaceERC1155.AuctionSignatureMultiple",
          "name": "auctionSigMulti",
          "type": "tuple"
        }
      ],
      "name": "acceptBidMultiple",
      "outputs": [],
      "stateMutability": "nonpayable",
      "type": "function"
    },
    {
      "inputs": [
        {
          "components": [
            {
              "internalType": "address",
              "name": "buyer",
              "type": "address"
            },
            {
              "internalType": "address",
              "name": "tokenContract",
              "type": "address"
            },
            {
              "internalType": "uint256",
              "name": "tokenId",
              "type": "uint256"
            },
            {
              "internalType": "address",
              "name": "settlementToken",
              "type": "address"
            },
            {
              "internalType": "uint256",
              "name": "settlementPrice",
              "type": "uint256"
            },
            {
              "internalType": "uint256",
              "name": "deadline",
              "type": "uint256"
            },
            {
              "internalType": "uint256",
              "name": "nonce",
              "type": "uint256"
            },
            {
              "internalType": "bytes",
              "name": "signature",
              "type": "bytes"
            }
          ],
          "internalType": "struct MarketplaceBase.OfferSignature",
          "name": "offerSig",
          "type": "tuple"
        }
      ],
      "name": "acceptOfferSig",
      "outputs": [],
      "stateMutability": "payable",
      "type": "function"
    },
    {
      "inputs": [
        {
          "components": [
            {
              "components": [
                {
                  "internalType": "address",
                  "name": "buyer",
                  "type": "address"
                },
                {
                  "internalType": "address",
                  "name": "tokenContract",
                  "type": "address"
                },
                {
                  "internalType": "uint256",
                  "name": "tokenId",
                  "type": "uint256"
                },
                {
                  "internalType": "address",
                  "name": "settlementToken",
                  "type": "address"
                },
                {
                  "internalType": "uint256",
                  "name": "settlementPrice",
                  "type": "uint256"
                },
                {
                  "internalType": "uint256",
                  "name": "deadline",
                  "type": "uint256"
                },
                {
                  "internalType": "uint256",
                  "name": "nonce",
                  "type": "uint256"
                },
                {
                  "internalType": "bytes",
                  "name": "signature",
                  "type": "bytes"
                }
              ],
              "internalType": "struct MarketplaceBase.OfferSignature",
              "name": "offerSig",
              "type": "tuple"
            },
            {
              "internalType": "uint256",
              "name": "amount",
              "type": "uint256"
            }
          ],
          "internalType": "struct MarketplaceERC1155.OfferSigMultiple",
          "name": "offerSig",
          "type": "tuple"
        }
      ],
      "name": "acceptOfferSigMulti",
      "outputs": [],
      "stateMutability": "payable",
      "type": "function"
    },
    {
      "inputs": [
        {
          "internalType": "bytes32",
          "name": "",
          "type": "bytes32"
        }
      ],
      "name": "amountAvailableErc1155",
      "outputs": [
        {
          "internalType": "uint256",
          "name": "",
          "type": "uint256"
        }
      ],
      "stateMutability": "view",
      "type": "function"
    },
    {
      "inputs": [
        {
          "components": [
            {
              "internalType": "address",
              "name": "seller",
              "type": "address"
            },
            {
              "internalType": "address",
              "name": "tokenContract",
              "type": "address"
            },
            {
              "internalType": "uint256",
              "name": "tokenId",
              "type": "uint256"
            },
            {
              "internalType": "address",
              "name": "settlementToken",
              "type": "address"
            },
            {
              "internalType": "uint256",
              "name": "settlementPrice",
              "type": "uint256"
            },
            {
              "internalType": "uint256",
              "name": "nonce",
              "type": "uint256"
            },
            {
              "internalType": "bytes",
              "name": "signature",
              "type": "bytes"
            }
          ],
          "internalType": "struct MarketplaceBase.SellSignature",
          "name": "sellSig",
          "type": "tuple"
        }
      ],
      "name": "buyBySig",
      "outputs": [],
      "stateMutability": "payable",
      "type": "function"
    },
    {
      "inputs": [
        {
          "internalType": "address",
          "name": "tokenAddress",
          "type": "address"
        },
        {
          "internalType": "uint256",
          "name": "buyAmount",
          "type": "uint256"
        },
        {
          "components": [
            {
              "components": [
                {
                  "internalType": "address",
                  "name": "seller",
                  "type": "address"
                },
                {
                  "internalType": "address",
                  "name": "tokenContract",
                  "type": "address"
                },
                {
                  "internalType": "uint256",
                  "name": "tokenId",
                  "type": "uint256"
                },
                {
                  "internalType": "address",
                  "name": "settlementToken",
                  "type": "address"
                },
                {
                  "internalType": "uint256",
                  "name": "settlementPrice",
                  "type": "uint256"
                },
                {
                  "internalType": "uint256",
                  "name": "nonce",
                  "type": "uint256"
                },
                {
                  "internalType": "bytes",
                  "name": "signature",
                  "type": "bytes"
                }
              ],
              "internalType": "struct MarketplaceBase.SellSignature",
              "name": "sellSig",
              "type": "tuple"
            },
            {
              "internalType": "uint256",
              "name": "amount",
              "type": "uint256"
            }
          ],
          "internalType": "struct MarketplaceERC1155.SellSigMultiple[]",
          "name": "signatures",
          "type": "tuple[]"
        }
      ],
      "name": "buyBySigMulti",
      "outputs": [],
      "stateMutability": "payable",
      "type": "function"
    },
    {
      "inputs": [
        {
          "components": [
            {
              "internalType": "address",
              "name": "seller",
              "type": "address"
            },
            {
              "internalType": "address",
              "name": "tokenContract",
              "type": "address"
            },
            {
              "internalType": "uint256",
              "name": "tokenId",
              "type": "uint256"
            },
            {
              "internalType": "address",
              "name": "settlementToken",
              "type": "address"
            },
            {
              "internalType": "uint256",
              "name": "minimumBidPrice",
              "type": "uint256"
            },
            {
              "internalType": "uint256",
              "name": "reservePrice",
              "type": "uint256"
            },
            {
              "internalType": "uint256",
              "name": "expirationDate",
              "type": "uint256"
            },
            {
              "internalType": "uint256",
              "name": "nonce",
              "type": "uint256"
            },
            {
              "internalType": "bytes",
              "name": "signature",
              "type": "bytes"
            }
          ],
          "internalType": "struct MarketplaceBase.AuctionSignature",
          "name": "auctionSig",
          "type": "tuple"
        }
      ],
      "name": "cancelAuctionSig",
      "outputs": [],
      "stateMutability": "nonpayable",
      "type": "function"
    },
    {
      "inputs": [
        {
          "components": [
            {
              "components": [
                {
                  "internalType": "address",
                  "name": "seller",
                  "type": "address"
                },
                {
                  "internalType": "address",
                  "name": "tokenContract",
                  "type": "address"
                },
                {
                  "internalType": "uint256",
                  "name": "tokenId",
                  "type": "uint256"
                },
                {
                  "internalType": "address",
                  "name": "settlementToken",
                  "type": "address"
                },
                {
                  "internalType": "uint256",
                  "name": "minimumBidPrice",
                  "type": "uint256"
                },
                {
                  "internalType": "uint256",
                  "name": "reservePrice",
                  "type": "uint256"
                },
                {
                  "internalType": "uint256",
                  "name": "expirationDate",
                  "type": "uint256"
                },
                {
                  "internalType": "uint256",
                  "name": "nonce",
                  "type": "uint256"
                },
                {
                  "internalType": "bytes",
                  "name": "signature",
                  "type": "bytes"
                }
              ],
              "internalType": "struct MarketplaceBase.AuctionSignature",
              "name": "auctionSig",
              "type": "tuple"
            },
            {
              "internalType": "uint256",
              "name": "amount",
              "type": "uint256"
            }
          ],
          "internalType": "struct MarketplaceERC1155.AuctionSignatureMultiple",
          "name": "auctionSigMulti",
          "type": "tuple"
        }
      ],
      "name": "cancelAuctionSigMultiple",
      "outputs": [],
      "stateMutability": "nonpayable",
      "type": "function"
    },
    {
      "inputs": [
        {
          "components": [
            {
              "internalType": "address",
              "name": "bidder",
              "type": "address"
            },
            {
              "internalType": "address",
              "name": "tokenContract",
              "type": "address"
            },
            {
              "internalType": "uint256",
              "name": "tokenId",
              "type": "uint256"
            },
            {
              "internalType": "address",
              "name": "settlementToken",
              "type": "address"
            },
            {
              "internalType": "uint256",
              "name": "bidValue",
              "type": "uint256"
            },
            {
              "internalType": "uint256",
              "name": "nonce",
              "type": "uint256"
            },
            {
              "internalType": "bytes",
              "name": "signature",
              "type": "bytes"
            }
          ],
          "internalType": "struct MarketplaceBase.BidSignature",
          "name": "bidSig",
          "type": "tuple"
        }
      ],
      "name": "cancelBidSig",
      "outputs": [],
      "stateMutability": "nonpayable",
      "type": "function"
    },
    {
      "inputs": [
        {
          "components": [
            {
              "components": [
                {
                  "internalType": "address",
                  "name": "bidder",
                  "type": "address"
                },
                {
                  "internalType": "address",
                  "name": "tokenContract",
                  "type": "address"
                },
                {
                  "internalType": "uint256",
                  "name": "tokenId",
                  "type": "uint256"
                },
                {
                  "internalType": "address",
                  "name": "settlementToken",
                  "type": "address"
                },
                {
                  "internalType": "uint256",
                  "name": "bidValue",
                  "type": "uint256"
                },
                {
                  "internalType": "uint256",
                  "name": "nonce",
                  "type": "uint256"
                },
                {
                  "internalType": "bytes",
                  "name": "signature",
                  "type": "bytes"
                }
              ],
              "internalType": "struct MarketplaceBase.BidSignature",
              "name": "bidSig",
              "type": "tuple"
            },
            {
              "internalType": "uint256",
              "name": "amount",
              "type": "uint256"
            }
          ],
          "internalType": "struct MarketplaceERC1155.BidSignatureMultiple",
          "name": "bidSig",
          "type": "tuple"
        }
      ],
      "name": "cancelBidSigMulti",
      "outputs": [],
      "stateMutability": "nonpayable",
      "type": "function"
    },
    {
      "inputs": [
        {
          "components": [
            {
              "internalType": "address",
              "name": "buyer",
              "type": "address"
            },
            {
              "internalType": "address",
              "name": "tokenContract",
              "type": "address"
            },
            {
              "internalType": "uint256",
              "name": "tokenId",
              "type": "uint256"
            },
            {
              "internalType": "address",
              "name": "settlementToken",
              "type": "address"
            },
            {
              "internalType": "uint256",
              "name": "settlementPrice",
              "type": "uint256"
            },
            {
              "internalType": "uint256",
              "name": "deadline",
              "type": "uint256"
            },
            {
              "internalType": "uint256",
              "name": "nonce",
              "type": "uint256"
            },
            {
              "internalType": "bytes",
              "name": "signature",
              "type": "bytes"
            }
          ],
          "internalType": "struct MarketplaceBase.OfferSignature",
          "name": "offerSig",
          "type": "tuple"
        }
      ],
      "name": "cancelOfferSig",
      "outputs": [],
      "stateMutability": "nonpayable",
      "type": "function"
    },
    {
      "inputs": [
        {
          "components": [
            {
              "components": [
                {
                  "internalType": "address",
                  "name": "buyer",
                  "type": "address"
                },
                {
                  "internalType": "address",
                  "name": "tokenContract",
                  "type": "address"
                },
                {
                  "internalType": "uint256",
                  "name": "tokenId",
                  "type": "uint256"
                },
                {
                  "internalType": "address",
                  "name": "settlementToken",
                  "type": "address"
                },
                {
                  "internalType": "uint256",
                  "name": "settlementPrice",
                  "type": "uint256"
                },
                {
                  "internalType": "uint256",
                  "name": "deadline",
                  "type": "uint256"
                },
                {
                  "internalType": "uint256",
                  "name": "nonce",
                  "type": "uint256"
                },
                {
                  "internalType": "bytes",
                  "name": "signature",
                  "type": "bytes"
                }
              ],
              "internalType": "struct MarketplaceBase.OfferSignature",
              "name": "offerSig",
              "type": "tuple"
            },
            {
              "internalType": "uint256",
              "name": "amount",
              "type": "uint256"
            }
          ],
          "internalType": "struct MarketplaceERC1155.OfferSigMultiple",
          "name": "offerSigMulti",
          "type": "tuple"
        }
      ],
      "name": "cancelOfferSigMultiple",
      "outputs": [],
      "stateMutability": "nonpayable",
      "type": "function"
    },
    {
      "inputs": [
        {
          "components": [
            {
              "internalType": "address",
              "name": "seller",
              "type": "address"
            },
            {
              "internalType": "address",
              "name": "tokenContract",
              "type": "address"
            },
            {
              "internalType": "uint256",
              "name": "tokenId",
              "type": "uint256"
            },
            {
              "internalType": "address",
              "name": "settlementToken",
              "type": "address"
            },
            {
              "internalType": "uint256",
              "name": "settlementPrice",
              "type": "uint256"
            },
            {
              "internalType": "uint256",
              "name": "nonce",
              "type": "uint256"
            },
            {
              "internalType": "bytes",
              "name": "signature",
              "type": "bytes"
            }
          ],
          "internalType": "struct MarketplaceBase.SellSignature",
          "name": "sellSig",
          "type": "tuple"
        }
      ],
      "name": "cancelSellSig",
      "outputs": [],
      "stateMutability": "nonpayable",
      "type": "function"
    },
    {
      "inputs": [
        {
          "components": [
            {
              "components": [
                {
                  "internalType": "address",
                  "name": "seller",
                  "type": "address"
                },
                {
                  "internalType": "address",
                  "name": "tokenContract",
                  "type": "address"
                },
                {
                  "internalType": "uint256",
                  "name": "tokenId",
                  "type": "uint256"
                },
                {
                  "internalType": "address",
                  "name": "settlementToken",
                  "type": "address"
                },
                {
                  "internalType": "uint256",
                  "name": "settlementPrice",
                  "type": "uint256"
                },
                {
                  "internalType": "uint256",
                  "name": "nonce",
                  "type": "uint256"
                },
                {
                  "internalType": "bytes",
                  "name": "signature",
                  "type": "bytes"
                }
              ],
              "internalType": "struct MarketplaceBase.SellSignature",
              "name": "sellSig",
              "type": "tuple"
            },
            {
              "internalType": "uint256",
              "name": "amount",
              "type": "uint256"
            }
          ],
          "internalType": "struct MarketplaceERC1155.SellSigMultiple",
          "name": "signature",
          "type": "tuple"
        }
      ],
      "name": "cancelSellSigMultiple",
      "outputs": [],
      "stateMutability": "nonpayable",
      "type": "function"
    },
    {
      "inputs": [
        {
          "internalType": "bytes32",
          "name": "",
          "type": "bytes32"
        }
      ],
      "name": "fullySpendERC1155",
      "outputs": [
        {
          "internalType": "bool",
          "name": "",
          "type": "bool"
        }
      ],
      "stateMutability": "view",
      "type": "function"
    },
    {
      "inputs": [
        {
          "internalType": "bytes32",
          "name": "role",
          "type": "bytes32"
        }
      ],
      "name": "getRoleAdmin",
      "outputs": [
        {
          "internalType": "bytes32",
          "name": "",
          "type": "bytes32"
        }
      ],
      "stateMutability": "view",
      "type": "function"
    },
    {
      "inputs": [
        {
          "internalType": "bytes32",
          "name": "role",
          "type": "bytes32"
        },
        {
          "internalType": "uint256",
          "name": "index",
          "type": "uint256"
        }
      ],
      "name": "getRoleMember",
      "outputs": [
        {
          "internalType": "address",
          "name": "",
          "type": "address"
        }
      ],
      "stateMutability": "view",
      "type": "function"
    },
    {
      "inputs": [
        {
          "internalType": "bytes32",
          "name": "role",
          "type": "bytes32"
        }
      ],
      "name": "getRoleMemberCount",
      "outputs": [
        {
          "internalType": "uint256",
          "name": "",
          "type": "uint256"
        }
      ],
      "stateMutability": "view",
      "type": "function"
    },
    {
      "inputs": [
        {
          "internalType": "bytes32",
          "name": "role",
          "type": "bytes32"
        },
        {
          "internalType": "address",
          "name": "account",
          "type": "address"
        }
      ],
      "name": "grantRole",
      "outputs": [],
      "stateMutability": "nonpayable",
      "type": "function"
    },
    {
      "inputs": [
        {
          "internalType": "bytes32",
          "name": "role",
          "type": "bytes32"
        },
        {
          "internalType": "address",
          "name": "account",
          "type": "address"
        }
      ],
      "name": "hasRole",
      "outputs": [
        {
          "internalType": "bool",
          "name": "",
          "type": "bool"
        }
      ],
      "stateMutability": "view",
      "type": "function"
    },
    {
      "inputs": [],
      "name": "initMarketplaceERC1155",
      "outputs": [],
      "stateMutability": "nonpayable",
      "type": "function"
    },
    {
      "inputs": [],
      "name": "initialize",
      "outputs": [],
      "stateMutability": "nonpayable",
      "type": "function"
    },
    {
      "inputs": [],
      "name": "marketplaceCommissionBeneficiary",
      "outputs": [
        {
          "internalType": "address",
          "name": "",
          "type": "address"
        }
      ],
      "stateMutability": "view",
      "type": "function"
    },
    {
      "inputs": [],
      "name": "marketplaceCommissionPermille",
      "outputs": [
        {
          "internalType": "uint256",
          "name": "",
          "type": "uint256"
        }
      ],
      "stateMutability": "view",
      "type": "function"
    },
    {
      "inputs": [
        {
          "components": [
            {
              "internalType": "address",
              "name": "from",
              "type": "address"
            },
            {
              "internalType": "uint256",
              "name": "tokenId",
              "type": "uint256"
            },
            {
              "internalType": "uint256",
              "name": "nonce",
              "type": "uint256"
            },
            {
              "internalType": "bytes",
              "name": "signature",
              "type": "bytes"
            }
          ],
          "internalType": "struct NftCollection.SignedMint",
          "name": "signedMint",
          "type": "tuple"
        },
        {
          "components": [
            {
              "internalType": "address",
              "name": "seller",
              "type": "address"
            },
            {
              "internalType": "address",
              "name": "tokenContract",
              "type": "address"
            },
            {
              "internalType": "uint256",
              "name": "tokenId",
              "type": "uint256"
            },
            {
              "internalType": "address",
              "name": "settlementToken",
              "type": "address"
            },
            {
              "internalType": "uint256",
              "name": "settlementPrice",
              "type": "uint256"
            },
            {
              "internalType": "uint256",
              "name": "nonce",
              "type": "uint256"
            },
            {
              "internalType": "bytes",
              "name": "signature",
              "type": "bytes"
            }
          ],
          "internalType": "struct MarketplaceBase.SellSignature",
          "name": "sellSig",
          "type": "tuple"
        }
      ],
      "name": "mintWithSignatureAndBuyBySig",
      "outputs": [],
      "stateMutability": "payable",
      "type": "function"
    },
    {
      "inputs": [],
      "name": "proxiableUUID",
      "outputs": [
        {
          "internalType": "bytes32",
          "name": "",
          "type": "bytes32"
        }
      ],
      "stateMutability": "view",
      "type": "function"
    },
    {
      "inputs": [
        {
          "internalType": "bytes32",
          "name": "role",
          "type": "bytes32"
        },
        {
          "internalType": "address",
          "name": "account",
          "type": "address"
        }
      ],
      "name": "renounceRole",
      "outputs": [],
      "stateMutability": "nonpayable",
      "type": "function"
    },
    {
      "inputs": [
        {
          "internalType": "bytes32",
          "name": "role",
          "type": "bytes32"
        },
        {
          "internalType": "address",
          "name": "account",
          "type": "address"
        }
      ],
      "name": "revokeRole",
      "outputs": [],
      "stateMutability": "nonpayable",
      "type": "function"
    },
    {
      "inputs": [
        {
          "internalType": "address",
          "name": "_beneficiary",
          "type": "address"
        }
      ],
      "name": "setMarketplaceBeneficiary",
      "outputs": [],
      "stateMutability": "nonpayable",
      "type": "function"
    },
    {
      "inputs": [
        {
          "internalType": "uint256",
          "name": "_marketplaceCommissionPermille",
          "type": "uint256"
        }
      ],
      "name": "setMarketplaceCommissionPermille",
      "outputs": [],
      "stateMutability": "nonpayable",
      "type": "function"
    },
    {
      "inputs": [
        {
          "internalType": "address",
          "name": "settlementToken",
          "type": "address"
        },
        {
          "internalType": "bool",
          "name": "status",
          "type": "bool"
        }
      ],
      "name": "setSettlementTokenStatus",
      "outputs": [],
      "stateMutability": "nonpayable",
      "type": "function"
    },
    {
      "inputs": [
        {
          "internalType": "address",
          "name": "",
          "type": "address"
        }
      ],
      "name": "settlementTokenStatusMap",
      "outputs": [
        {
          "internalType": "bool",
          "name": "",
          "type": "bool"
        }
      ],
      "stateMutability": "view",
      "type": "function"
    },
    {
      "inputs": [
        {
          "internalType": "bytes32",
          "name": "",
          "type": "bytes32"
        }
      ],
      "name": "sigCancelledMap",
      "outputs": [
        {
          "internalType": "bool",
          "name": "",
          "type": "bool"
        }
      ],
      "stateMutability": "view",
      "type": "function"
    },
    {
      "inputs": [
        {
          "internalType": "bytes4",
          "name": "interfaceId",
          "type": "bytes4"
        }
      ],
      "name": "supportsInterface",
      "outputs": [
        {
          "internalType": "bool",
          "name": "",
          "type": "bool"
        }
      ],
      "stateMutability": "view",
      "type": "function"
    },
    {
      "inputs": [
        {
          "internalType": "address",
          "name": "newImplementation",
          "type": "address"
        }
      ],
      "name": "upgradeTo",
      "outputs": [],
      "stateMutability": "nonpayable",
      "type": "function"
    },
    {
      "inputs": [
        {
          "internalType": "address",
          "name": "newImplementation",
          "type": "address"
        },
        {
          "internalType": "bytes",
          "name": "data",
          "type": "bytes"
        }
      ],
      "name": "upgradeToAndCall",
      "outputs": [],
      "stateMutability": "payable",
      "type": "function"
    }
  ],
  "bytecode": "0x60a0604052346200003657620000146200003b565b6040516159106200022f8239608051818181611577015261169b015261591090f35b600080fd5b6200004562000051565b6200004f620001a1565b565b620000456200004f6200004f6200004f6200004f6200004f6200004f6200004f6200004f620000b6565b620000919062000094906001600160a01b031682565b90565b6001600160a01b031690565b62000091906200007b565b6200009190620000a0565b620000c130620000ab565b608052565b620000919060081c5b60ff1690565b620000919054620000c6565b60208082526027908201527f496e697469616c697a61626c653a20636f6e747261637420697320696e697469604082015266616c697a696e6760c81b606082015260800190565b156200013057565b60405162461bcd60e51b8152806200014b60048201620000e1565b0390fd5b6200009190620000cf565b6200009190546200014f565b620000cf62000091620000919260ff1690565b906200018d620000916200019d9262000166565b825460ff191660ff919091161790565b9055565b620001bf620001b9620001b56000620000d5565b1590565b62000128565b620001cb60006200015a565b60ff908190811610620001db5750565b620001e881600062000179565b620002297f7f26b83ff96e1f2b6a682f133852f6798a09c465da95921460cefb3847402498916200021860405190565b9182918260ff909116815260200190565b0390a156fe6080604052600436101561001257600080fd5b60003560e01c806301ffc9a71461029257806308b903bf1461028d5780630be01c5d146102885780630d457412146102835780630d7e37c41461027e5780630ddce87f146102795780631165fdf614610274578063151fb3c81461026f578063248a9ca31461026a57806329b315fa146102655780632a800f5d146102605780632c685ea01461025b5780632f16e867146102565780632f2ff15d1461025157806331ca2ada1461024c57806336568abe146102475780633659cfe6146102425780634a4d37a81461023d5780634f1ef2861461023857806352d1902d146102335780635510cf881461022e5780635eb798fd14610229578063630dc7cb146102245780636368bcc91461021f5780636529bb251461021a578063755e5548146102155780637c20ff89146102105780637e74bcbe1461020b5780638129fc1c146102065780638b0dc6dc146102015780639010d07c146101fc57806391d14854146101f7578063998b3afd146101f2578063a217fddf146101ed578063a6046dcf146101e8578063bf2fdf91146101e3578063ca15c873146101de578063cf40d6cd146101d9578063d36cad9f146101d45763d547741f036102b457611023565b611010565b610ff5565b610fb5565b610f9d565b610f85565b610f45565b610f0e565b610ef2565b610eca565b610e7a565b610d8f565b610d74565b610d46565b610ce8565b610ca1565b610c57565b610c3c565b610bf8565b610bbb565b610b7b565b610b67565b610b19565b610a4a565b610a1d565b610a02565b6109c1565b610986565b61096d565b610913565b6108fb565b6108e0565b6108b4565b61086e565b610763565b610726565b6106f9565b6106ad565b610538565b6102e3565b6001600160e01b03191690565b6102ad81610297565b036102b457565b600080fd5b905035906102c6826102a4565b565b906020828203126102b4576102dc916102b9565b90565b9052565b346102b4576103106102fe6102f93660046102c8565b61103c565b60405191829182901515815260200190565b0390f35b634e487b7160e01b600052604160045260246000fd5b90601f01601f191681019081106001600160401b0382111761034b57604052565b610314565b906102c661035d60405190565b928361032a565b6001600160a01b031690565b6102ad81610364565b905035906102c682610370565b806102ad565b905035906102c682610386565b6001600160401b03811161034b57602090601f01601f19160190565b0190565b90826000939282370152565b909291926103da6103d582610399565b610350565b938185526020850190828401116102b4576102c6926103b9565b9080601f830112156102b4578160206102dc933591016103c5565b919091610100818403126102b457610428610100610350565b9260006104358284610379565b90850152602061044782828501610379565b9085015260406104598282850161038c565b90850152606061046b82828501610379565b90850152608061047d8282850161038c565b9085015260a061048f8282850161038c565b9085015260c06104a18282850161038c565b9085015260e08201356001600160401b0381116102b4576104c292016103f4565b60e0830152565b9190916040818403126102b4576104e06040610350565b928135906001600160401b0382116102b4576105018161050d93850161040f565b8552602092830161038c565b90830152565b906020828203126102b45781356001600160401b0381116102b4576102dc92016104c9565b61054b610546366004610513565b614d80565b604051005b9190916080818403126102b4576105676080610350565b9260006105748284610379565b9085015260206105868282850161038c565b9085015260406105988282850161038c565b9085015260608201356001600160401b0381116102b4576105b992016103f4565b6060830152565b91909160e0818403126102b4576105d760e0610350565b9260006105e48284610379565b9085015260206105f682828501610379565b9085015260406106088282850161038c565b90850152606061061a82828501610379565b90850152608061062c8282850161038c565b9085015260a061063e8282850161038c565b9085015260c08201356001600160401b0381116102b45761065f92016103f4565b60c0830152565b9190916040818403126102b45780356001600160401b0381116102b4578361068f918301610550565b9260208201356001600160401b0381116102b4576102dc92016105c0565b61054b6106bb366004610666565b90613587565b8015156102ad565b905035906102c6826106c1565b91906040838203126102b4576102dc906106f08185610379565b936020016106c9565b346102b45761054b61070c3660046106d6565b90612520565b906020828203126102b4576102dc9161038c565b346102b45761054b610739366004610712565b61256a565b906020828203126102b45781356001600160401b0381116102b4576102dc92016105c0565b346102b45761054b61077636600461073e565b612640565b919091610120818403126102b457610794610120610350565b9260006107a18284610379565b9085015260206107b382828501610379565b9085015260406107c58282850161038c565b9085015260606107d782828501610379565b9085015260806107e98282850161038c565b9085015260a06107fb8282850161038c565b9085015260c061080d8282850161038c565b9085015260e061081f8282850161038c565b908501526101008201356001600160401b0381116102b45761084192016103f4565b610100830152565b906020828203126102b45781356001600160401b0381116102b4576102dc920161077b565b346102b45761054b610881366004610849565b612d4c565b60009103126102b457565b6102dc916008021c81565b906102dc9154610891565b6102dc600061016161089c565b346102b4576108c4366004610886565b6103106108cf6108a7565b6040515b9182918290815260200190565b346102b4576103106108cf6108f6366004610712565b61111e565b346102b45761090b366004610886565b61054b6142c1565b61054b61092136600461073e565b612ec8565b9190916040818403126102b45780356001600160401b0381116102b4578361094f9183016105c0565b9260208201356001600160401b0381116102b4576102dc920161077b565b346102b45761054b610980366004610926565b90613bec565b346102b45761054b610999366004610513565b614409565b91906040838203126102b4576102dc906109b8818561038c565b93602001610379565b346102b45761054b6109d436600461099e565b90611155565b905b600052602052604060002090565b6102dc906109fd610166916000926109da565b61089c565b346102b4576103106108cf610a18366004610712565b6109ea565b346102b45761054b610a3036600461099e565b906113cf565b906020828203126102b4576102dc91610379565b346102b45761054b610a5d366004610a36565b61174e565b9190916040818403126102b457610a796040610350565b928135906001600160401b0382116102b4576105018161050d9385016105c0565b9190916040818403126102b457610ab16040610350565b928135906001600160401b0382116102b4576105018161050d93850161077b565b9190916040818403126102b45780356001600160401b0381116102b45783610afb918301610a62565b9260208201356001600160401b0381116102b4576102dc9201610a9a565b346102b45761054b610b2c366004610ad2565b9061513e565b9190916040818403126102b457610b498382610379565b9260208201356001600160401b0381116102b4576102dc92016103f4565b61054b610b75366004610b32565b90611bae565b346102b457610b8b366004610886565b6103106108cf6115de565b906020828203126102b45781356001600160401b0381116102b4576102dc9201610a62565b346102b45761054b610bce366004610b96565b614319565b906020828203126102b45781356001600160401b0381116102b4576102dc9201610a9a565b346102b45761054b610c0b366004610bd3565b6144d3565b7f9cf85f95575c3af1e116e3d37fd41e7f36a8a373623f51ffaaa87fdd032fa76790565b6102dc610c10565b346102b457610c4c366004610886565b6103106108cf610c34565b346102b45761054b610c6a366004610b96565b6145a4565b6102dc916008021c5b60ff1690565b906102dc9154610c6f565b6102dc90610c9c610165916000926109da565b610c7e565b346102b4576103106102fe610cb7366004610712565b610c89565b7fb58436161aa98d7442ffff3af203d6031ad86e54ee571266152aa0e83a52472690565b6102dc610cbc565b346102b457610cf8366004610886565b6103106108cf610ce0565b6102dc90610364906001600160a01b031682565b6102dc90610d03565b6102dc90610d17565b906109dc90610d20565b6102dc90610c9c61016491600092610d29565b346102b4576103106102fe610d5c366004610a36565b610d33565b6102dc90610c9c610163916000926109da565b346102b4576103106102fe610d8a366004610712565b610d61565b346102b457610d9f366004610886565b61054b6123f6565b6001600160401b03811161034b5760208091020190565b929190610dcd6103d582610da7565b93818552602080860192028101918383116102b45781905b838210610df3575050505050565b81356001600160401b0381116102b457602091610e138784938701610a62565b815201910190610de5565b9080601f830112156102b4578160206102dc93359101610dbe565b916060838303126102b457610e4e8284610379565b92610e5c836020830161038c565b9260408201356001600160401b0381116102b4576102dc9201610e1e565b61054b610e88366004610e39565b91614626565b91906040838203126102b4576102dc90610ea8818561038c565b9360200161038c565b6102df90610364565b6020810192916102c69190610eb1565b346102b457610310610ee6610ee0366004610e8e565b9061106b565b60405191829182610eba565b346102b4576103106102fe610f0836600461099e565b906110e5565b346102b45761054b610f21366004610a36565b6125a7565b6102dc6102dc6102dc9290565b6102dc6000610f26565b6102dc610f33565b346102b457610f55366004610886565b6103106108cf610f3d565b906020828203126102b45781356001600160401b0381116102b4576102dc920161040f565b346102b45761054b610f98366004610f60565b612c49565b346102b45761054b610fb036600461073e565b612df7565b346102b4576103106108cf610fcb366004610712565b61108c565b6102dc916008021c610364565b906102dc9154610fd0565b6102dc6000610162610fdd565b346102b457611005366004610886565b610310610ee6610fe8565b61054b61101e366004610f60565b6136be565b346102b45761054b61103636600461099e565b90611347565b61104c635a05180f60e01b610297565b61105582610297565b14908115611061575090565b6102dc91506110a3565b906110876102dc6102dc9361107e600090565b5061012f6109da565b6120f6565b61109e6102dc6102dc9261107e600090565b6120bf565b6110b3637965db0b60e01b610297565b6110bc82610297565b149081156110c8575090565b6102dc9150611e0f565b6102dc90610c78565b6102dc90546110d2565b6102dc916000611102611108936110fa600090565b5060fd6109da565b01610d29565b6110db565b6102dc9081565b6102dc905461110d565b600161112f6102dc926110fa600090565b01611114565b906102c69161114b6111468261111e565b611184565b906102c69161115f565b906102c691611135565b9061117c6102dc611181936111748482611423565b61012f6109da565b611e2c565b50565b6102c6903390611288565b6102dc9081906001600160a01b031681565b6102dc90610f26565b60005b8381106111bd5750506000910152565b81810151838201526020016111ad565b6103b56111e5926020926111df815190565b94859290565b938491016111aa565b6112266102dc93926112206112209376020b1b1b2b9b9a1b7b73a3937b61d1030b1b1b7bab73a1604d1b815260170190565b906111cd565b7001034b99036b4b9b9b4b733903937b6329607d1b815260110190565b61126461126d6020936103b593611258815190565b80835293849260200190565b958691016111aa565b601f01601f191690565b60208082526102dc92910190611243565b9061129a61129682846110e5565b1590565b6112a2575050565b611328916102dc6112db6112d56112bb61130f95610d17565b6112cf6112c960149261118f565b91610f26565b90611cf1565b926111a1565b6112ea6020916112cf83610f26565b926113036112f760405190565b948593840192836111ee565b9081038252038261032a565b6040515b62461bcd60e51b815291829160048301611277565b0390fd5b906102c69161133d6111468261111e565b906102c691611351565b906102c69161132c565b906113666102dc61118193611174848261149a565b611f6c565b1561137257565b60405162461bcd60e51b815260206004820152602f60248201527f416363657373436f6e74726f6c3a2063616e206f6e6c792072656e6f756e636560448201526e103937b632b9903337b91039b2b63360891b6064820152608490fd5b6102c691906113f46113e533610364565b610364565b6113ee84610364565b1461136b565b611351565b9060ff905b9181191691161790565b906114186102dc61141f92151590565b82546113f9565b9055565b9061143161129682846110e5565b611439575050565b611454600161144f8360006111028760fd6109da565b611408565b339061148a6114846114847f2f8788117e7eff1d82e926ec794901d17c78024a50270940304540a733656f0d9590565b92610d20565b9261149460405190565b600090a4565b906114a581836110e5565b6114ad575050565b6114c2600061144f83826111028760fd6109da565b339061148a6114846114847ff6391f5c32d9c69d2a47ea670b442974b53935d1edc7fd64eb21e047a839171b9590565b156114f957565b60405162461bcd60e51b815260206004820152603860248201527f555550535570677261646561626c653a206d757374206e6f742062652063616c6044820152771b1959081d1a1c9bdd59da0819195b1959d85d1958d85b1b60421b6064820152608490fd5b6102dc906115a761156f30610d20565b6115a161159b7f0000000000000000000000000000000000000000000000000000000000000000610364565b91610364565b146114f2565b6115d5565b6102dc7f360894a13ba1a3210667c828492db98dca3e2076cc3735a920a3ca505d382bbc610f26565b506102dc6115ac565b6102dc600061155f565b156115ef57565b60405162461bcd60e51b815260206004820152602c602482015260008051602061589b83398151915260448201526b19195b1959d85d1958d85b1b60a21b6064820152608490fd5b1561163e57565b60405162461bcd60e51b815260206004820152602c602482015260008051602061589b83398151915260448201526b6163746976652070726f787960a01b6064820152608490fd5b6102c6906116e861169630610d20565b6116ce7f0000000000000000000000000000000000000000000000000000000000000000916116c761159b84610364565b14156115e8565b6116e261159b6116dc61176a565b92610364565b14611637565b611727565b906116fa6103d583610399565b918252565b369037565b906102c661171a611714846116ed565b93610399565b601f1901602084016116ff565b6102c690611734816142c9565b60009061174861174383610f26565b611704565b90611834565b6102c690611686565b6102dc90610364565b6102dc9054611757565b6102dc600061177a6102dc6115ac565b01611760565b6102dc7f4910fdfa16fed3260ed0e7147f7cc6da11a60208b5b9406d12a635614ffd9143610f26565b905051906102c682610386565b906020828203126102b4576102dc916117a9565b6040513d6000823e3d90fd5b156117dd57565b60405162461bcd60e51b815260206004820152602960248201527f45524331393637557067726164653a20756e737570706f727465642070726f786044820152681a58589b195555525160ba1b6064820152608490fd5b919061184c60006118466102dc611780565b016110db565b1561185c5750506102c6906119db565b61188a602061187261186d86610d20565b610d20565b6352d1902d9061188160405190565b93849260e01b90565b825260049082905afa60009181611923575b506118fe575060405162461bcd60e51b815260206004820152602e60248201527f45524331393637557067726164653a206e657720696d706c656d656e7461746960448201526d6f6e206973206e6f74205555505360901b6064820152608490fd5b9261191e6102c6946119186119146102dc6115ac565b9190565b146117d6565b611a03565b61194591925060203d811161194c575b61193d818361032a565b8101906117b6565b903861189c565b503d611933565b1561195a57565b60405162461bcd60e51b815260206004820152602d60248201527f455243313936373a206e657720696d706c656d656e746174696f6e206973206e60448201526c1bdd08184818dbdb9d1c9858dd609a1b6064820152608490fd5b906001600160a01b03906113fe565b906119d46102dc61141f92610d20565b82546119b5565b6102c6906119f06119eb82611bb8565b611953565b60006119fd6102dc6115ac565b016119c4565b91611a0d83611a3f565b8151611a1c6119146000610f26565b11908115611a37575b50611a2e575050565b61118191611b47565b905038611a25565b611a48816119db565b611a727fbc7cd75a20ee27fd9adebab32041f755214dbc6bffa90cc0225b39da2e5c2d3b91610d20565b90611a7c60405190565b600090a2565b15611a8957565b60405162461bcd60e51b815260206004820152602660248201527f416464726573733a2064656c65676174652063616c6c20746f206e6f6e2d636f6044820152651b9d1c9858dd60d21b6064820152608490fd5b3d15611af757611aec3d6116ed565b903d6000602084013e565b606090565b611b0660276116ed565b7f416464726573733a206c6f772d6c6576656c2064656c65676174652063616c6c6020820152660819985a5b195960ca1b604082015290565b6102dc611afc565b600080916102dc93611b57606090565b50611b69611b6483611bb8565b611a82565b602081019051915af4611b7a611add565b611b82611b3f565b91611bca565b906102c691611b9961169630610d20565b6102c691611ba6826142c9565b600191611834565b906102c691611b88565b3b611bc66119146000610f26565b1190565b90919015611bd6575090565b8151611be56119146000610f26565b1115611bf45750805190602001fd5b6113289061131360405190565b634e487b7160e01b600052601160045260246000fd5b81810292918115918404141715611c2a57565b611c01565b91908201809211611c2a57565b634e487b7160e01b600052603260045260246000fd5b90611c5b825190565b811015611c69570160200190565b611c3c565b8015611c2a576000190190565b610c786102dc6102dc9290565b6102dc90611c9c6119146102dc9460ff1690565b901c90565b15611ca857565b60405162461bcd60e51b815280611328600482016020808252818101527f537472696e67733a20686578206c656e67746820696e73756666696369656e74604082015260600190565b9190600292611d1d611743611d0e84611d0988610f26565b611c17565b611d1787610f26565b90611c2f565b916000906030611d35611d2f84610f26565b86611c52565b53611d6d611d64600f60fb1b92611d096001998a95871a611d5e611d5888610f26565b8b611c52565b53610f26565b611d1783610f26565b905b611d91575b506102dc93945090611d8b6119146102dc93610f26565b14611ca1565b91611d9b86610f26565b831115611e09576f181899199a1a9b1b9c1cb0b131b232b360811b611dc0600f610f26565b8216906010821015611c69578792611de0611dfd92611e03941a60f81b90565b851a611dec8789611c52565b53611df76004611c7b565b90611c88565b93611c6e565b90611d6f565b91611d74565b611e28611e226301ffc9a760e01b610297565b91610297565b1490565b90611e59611914611e54611e4f60006102dc96611e47600090565b500194610d17565b61118f565b610f26565b611ef6565b8054821015611c6957611e78600191600052602060002090565b91020190600090565b9160001960089290920291821b911b6113fe565b9190611ea46102dc61141f9390565b908354611e81565b80549190600160401b83101561034b5782611ecf9160016102c695018155611e5e565b90611e95565b90600019906113fe565b90611eef6102dc61141f92610f26565b8254611ed5565b611f036112968383611f3c565b15611f3557611f3091611f2b906001611f2484611f208482611eac565b5490565b93016109da565b611edf565b600190565b5050600090565b611f5a916001611f5592611f4e600090565b50016109da565b611114565b611f676119146000610f26565b141590565b90611f87611914611e54611e4f60006102dc96611e47600090565b612000565b91908203918211611c2a57565b634e487b7160e01b600052603160045260246000fd5b6102c691600091611e95565b80548015611fde576000190190611fdb611fd58383611e5e565b90611faf565b55565b611f99565b9190611ea46102dc61141f93610f26565b6102c691600091611fe3565b90612011611f5582600185016109da565b60009261201d84610f26565b8214612070576102dc9261207694926120819261207b600197889361204a61204486610f26565b82611f8c565b88850191612068612059845490565b61206289610f26565b90611f8c565b828103612086575b50505090565b611fbb565b016109da565b611ff4565b611ecf6120af6120b7946120a66120a0611f2b9589611e5e565b9061089c565b92839188611e5e565b8888016109da565b388080612070565b6120d560006102dc926120d0600090565b500190565b60006102dc916120e3600090565b50015490565b6103646102dc6102dc9290565b61211b6121166102dc936121116000612120956120d0600090565b612125565b6111a1565b6120e9565b610d17565b6102dc9160006120a092612137600090565b5001611e5e565b6102dc9060081c610c78565b6102dc905461213e565b1561215b57565b60405162461bcd60e51b815260206004820152602e60248201527f496e697469616c697a61626c653a20636f6e747261637420697320616c72656160448201526d191e481a5b9a5d1a585b1a5e995960921b6064820152608490fd5b610c786102dc6102dc9260ff1690565b906114186102dc61141f926121b7565b9061ff009060081b6113fe565b906121f46102dc61141f92151590565b82546121d7565b6102df90611c7b565b6020810192916102c691906121fb565b612221611296600061214a565b80806122ff575b80156122ba575b61223890612154565b6001908061224f61224884611c7b565b60006121c7565b6122aa575b61225c612382565b6122635750565b61226e6000806121e4565b6122a57f7f26b83ff96e1f2b6a682f133852f6798a09c465da95921460cefb38474024989161229c60405190565b91829182612204565b0390a1565b6122b58260006121e4565b612254565b506122cf6112966122ca30610d20565b611bb8565b801561222f57506122386122e360006110db565b6122f76122f06001611c7b565b9160ff1690565b14905061222f565b5061230a60006110db565b6123176122f06001611c7b565b10612228565b61232760146116ed565b734e46545370616365204d61726b6574706c61636560601b602082015290565b6102dc61231d565b6102dc612347565b61236160056116ed565b64302e302e3160d81b602082015290565b6102dc612357565b6102dc612372565b61238a612470565b6123a361239561234f565b61239d61237a565b90612494565b6123ab612470565b6102c66123b6610f33565b6123c133809261114b565b6123cd8161114b610c10565b6123d98161114b610cbc565b6123ee6123e66000610f26565b610161611edf565b6101626119c4565b6102c6612214565b1561240557565b60405162461bcd60e51b815260206004820152602b60248201527f496e697469616c697a61626c653a20636f6e7472616374206973206e6f74206960448201526a6e697469616c697a696e6760a81b6064820152608490fd5b6102c661246b600061214a565b6123fe565b6102c661245e565b906102c69161248a61246b600061214a565b906102c691612506565b906102c691612478565b906102c6916124b061246b600061214a565b6124c3565b90611eef6102dc61141f9290565b906124ff6124eb6124d46102c69490565b6124e66124df825190565b9160200190565b209290565b6124f66124df825190565b209160656124b5565b60666124b5565b906102c69161249e565b156102b457565b6102dc906120e9565b9061144f6102c69261254261253d612536610cbc565b33906110e5565b612510565b6125626125526113e06000612517565b61255b83610364565b1415612510565b610164610d29565b6102c69061257c61253d612536610cbc565b6125916125896000610f26565b825b11612510565b6123e661259f6101f4610f26565b821115612510565b6102c6906125b961253d612536610cbc565b6123ee6125526113e06000612517565b7febd32ddf6499f1c2a0f869545f6fe61a72d7dc069f1e01d91f65a49cc603980f90565b6102dc9051610364565b90815260e0810197969590949093909290916020860161261691610eb1565b6040850161262391610eb1565b60608401526080830161263591610eb1565b60a082015260c00152565b6102c69061264c6125c9565b6126d560c06126cc60008501936126bb612665866125ed565b612671602089016125ed565b9261130361268060408b015190565b8a61268d606082016125ed565b6126a360a061269d608085015190565b93015190565b926126ad60405190565b9889976020890197886125f7565b6126c66124df825190565b206126db565b930151916125ed565b916127e8565b6102dc906126e7612737565b61270f565b60208093926127096116fa6103b59461190160f01b815260020190565b01918252565b61130391612728916040519384926020840192836126ec565b6127336124df825190565b2090565b6102dc7f8b73c3c69bb8fe3d512ecc4cf759cc79239f7b179b0ffacaa9a75d522b39400f6127636127d4565b61276b6127de565b916127aa565b909594926102c6946105b96127a39261279c60809661279560a088019c6000890152565b6020870152565b6040850152565b0190610eb1565b6127289190611303466127bc30610d20565b906127c660405190565b968795602087019586612771565b6102dc6065611114565b6102dc6066611114565b61284a90612802336127fc61159b87610364565b14612510565b61283e612832612810855190565b6020860120946101639361282d61253d6112966111088a896109da565b612875565b6127fc61159b87610364565b61144f836001926109da565b61286561191460008051602061587b83398151915293610d20565b9161286f60405190565b600090a3565b6102dc9161288291612a6b565b9190916128b9565b634e487b7160e01b600052602160045260246000fd5b600511156128aa57565b61288a565b906102c6826128a0565b6128c360006128af565b6128cc826128af565b036128d45750565b6128de60016128af565b6128e7826128af565b0361292c5760405162461bcd60e51b815260206004820152601860248201527745434453413a20696e76616c6964207369676e617475726560401b6044820152606490fd5b61293660026128af565b61293f826128af565b036129895760405162461bcd60e51b815260206004820152601f60248201527f45434453413a20696e76616c6964207369676e6174757265206c656e677468006044820152606490fd5b61299360036128af565b61299c826128af565b036129f15760405162461bcd60e51b815260206004820152602260248201527f45434453413a20696e76616c6964207369676e6174757265202773272076616c604482015261756560f01b6064820152608490fd5b600490612a06612a00836128af565b916128af565b14612a0e5750565b61132890612a1b60405190565b62461bcd60e51b8152918291820160208082526022908201527f45434453413a20696e76616c6964207369676e6174757265202776272076616c604082015261756560f01b606082015260800190565b908051612a7b6119146041610f26565b03612aa157612a9d916020820151906060604084015193015160001a90612ae7565b9091565b5050612aad6000612517565b90600290565b612ae36102c694612adc606094989795612ad2608086019a6000870152565b60ff166020850152565b6040830152565b0152565b919291612af3836111a1565b612b156119146fa2a8918ca85bafe22016d0b997e4df60600160ff1b03610f26565b11612bc057612b24601b611c7b565b60ff8316141580612baa575b612b9657612b4f600093602095612b4660405190565b94859485612ab3565b838052039060015afa15612b915760005190600091612b6d83612517565b612b7681610364565b612b7f83610364565b14612b8957509190565b925050600190565b6117ca565b50505050612ba46000612517565b90600490565b50612bb5601c611c7b565b60ff83161415612b30565b50505050612bce6000612517565b90600390565b7fb56db372abfc781b2cc7b3e225d4d5c8b1dc4a36edfdc45b155fbb6efd6341b390565b90815261010081019897969095909490939092909160208701612c1a91610eb1565b60408601612c2791610eb1565b606085015260808401612c3991610eb1565b60a083015260c082015260e00152565b6102c690612c55612bd4565b6126d560e06126cc60008501936126bb612c6e866125ed565b612c7a602089016125ed565b92611303612c8960408b015190565b8a612c96606082016125ed565b608082015190612cb260c0612cac60a086015190565b94015190565b93612cbc60405190565b998a9860208a019889612bf8565b7fd1c9872d00e26e3fdbc3959656642f1e98967eba8241fdfd25e07dd922ba753e90565b9694929099989795939161012088019a60008901612d0a919052565b60208801612d1791610eb1565b60408701612d2491610eb1565b606086015260808501612d3691610eb1565b60a084015260c083015260e08201526101000152565b6102c690612d58612cca565b6126d56101006126cc60008501936126bb612d72866125ed565b612d7e602089016125ed565b92611303612d8d60408b015190565b8a612d9a606082016125ed565b608082015160a083015191612dbb60e0612db560c087015190565b95015190565b94612dc560405190565b9a8b9960208b01998a612cee565b7f8746252c5e96e00aa4d757b56c6c666e7f2714a9e96d0a9ac497b600d5a9950590565b6102c69061264c612dd3565b905051906102c6826106c1565b906020828203126102b4576102dc91612e03565b6102df90610297565b6020810192916102c69190612e24565b905051906102c682610370565b906020828203126102b4576102dc91612e3d565b9160206102c69294936127a360408201966000830190610eb1565b634e487b7160e01b600052601260045260246000fd5b8115612e99570490565b612e79565b604090612ae36102c69496959396612ebe60608401986000850190610eb1565b6020830190610eb1565b60c081018051612ed96124df825190565b2090610163612ef161253d61129661110886856109da565b60208401612efe816125ed565b94600093612f0b85612517565b96612f1861159b89610364565b141594856134ac575b612f2d612f7196612510565b612f3c61186d61186d866125ed565b91636352211e9260408501916020612f52845190565b604051809b8192612f638a60e01b90565b835260048301526024820190565b0381855afa948515612b9157612fb69960009661348c575b50612f9b339661255b61159b89610364565b6020612fa5855190565b604051809c8192612f638660e01b90565b0381865afa998a15612b91576113e09a612fe39160009161346e575b506127fc61159b888b019d8e6125ed565b63e985e9c56020612f63612ff5875190565b9361300d61300260405190565b958693849360e01b90565b0381875afa918215612b9157600092613438575b5061304260209161304d61303430610d20565b604051958694859460e01b90565b845260048401612e5e565b0381865afa8015612b915761306a916000916133f3575b50612510565b6130726125c9565b9661307c8a6125ed565b90613086906125ed565b84519160608901996130978b6125ed565b60808b019a6130a48c5190565b60a090910151916130b460405190565b96879660208801966130c696886125f7565b9081038252036130d6908261032a565b805190602001206130e6906126db565b90516130f191612875565b996130fb896125ed565b61310490610364565b61310d8c610364565b1461311790612510565b8551613124610161611114565b61312d91611c17565b6131386103e8610f26565b61314191612e8f565b9061314b886125ed565b9061315590610364565b9061315f90610364565b0361331c57838080808c61318b3461318461317b6102dc8f5190565b825b1015612510565b8c51612062565b61319483610f26565b81116132ec575b5061186d61186d6131ab926125ed565b6131bc866131b78d5190565b611f8c565b908282156132e3575bf115612b915783808080936131e161186d61186d610162611760565b8282156132da575bf115612b91575b6323b872dd916132076132028a6125ed565b915190565b91803b156102b45761323085879561323b829661322360405190565b9889978896879560e01b90565b855260048501612e9e565b03925af18015612b915761284a9761326c9361326793613261936132ad575b50506125ed565b946125ed565b925190565b9261329e61329461328e61328e6000805160206158bb83398151915294610d20565b94610d20565b946108d360405190565b0390a461144f836001926109da565b816132cc92903d106132d3575b6132c4818361032a565b810190610886565b388061325a565b503d6132ba565b506108fc6131e9565b506108fc6131c5565b90506132fa61186d8b610d20565b828215613313575bf115612b9157838080808c3861319b565b506108fc613302565b61338961332b61186d896125ed565b61334761253d61110861334061016494610d20565b8094610d29565b6323b872dd9060206133588d6125ed565b613364866131b78d5190565b9061336e60405190565b958692839261337d8860e01b90565b84528d60048501612e9e565b03818a855af1928315612b91576020936133aa916000916134215750612510565b61337d876133b9610162611760565b936133d36133c660405190565b9788968795869460e01b90565b03925af18015612b91576133ee916000916133f35750612510565b6131f0565b613414915060203d811161341a575b61340c818361032a565b810190612e10565b38613064565b503d613402565b6134149150853d811161341a5761340c818361032a565b602091925061345f61304291833d8111613467575b613457818361032a565b810190612e4a565b929150613021565b503d61344d565b613486915060203d811161346757613457818361032a565b38612fd2565b6134a591965060203d811161346757613457818361032a565b9438612f89565b6134e9955060206134c261186d61186d876125ed565b60405197889190829081906380ac58cd60e01b6301ffc9a760e01b5b835260048301612e2d565b03915afa958615612b9157612f7196612f2d9160009161350d575b50965050612f21565b613525915060203d811161341a5761340c818361032a565b38613504565b6102dc916060608082019261354860008201516000850190610eb1565b61355760208201516020850152565b61356660408201516040850152565b0151906060818403910152611243565b60208082526102dc9291019061352b565b9060208101613595816125ed565b906000916135a861159b6113e085612517565b141580613639575b61186d6135c8926135c361186d93612510565b6125ed565b926373fb88fa90843b156102b457613601946135f68480946135e960405190565b9889958694859360e01b90565b835260048301613576565b03925af1928315612b91576102c69361361c575b5050612ec8565b8161363292903d106132d3576132c4818361032a565b3880613615565b50613673602061364e61186d61186d856125ed565b6040516380ac58cd60e01b91906134de906301ffc9a7905b9586948593849360e01b90565b03915afa8015612b91576135c8926135c361186d9261186d946000916136a0575b509350509250506135b0565b6136b8915060203d811161341a5761340c818361032a565b38613694565b60e08101516136ce6124df825190565b206136e461253d611296611108846101636109da565b6136fc6136f0836125ed565b61255b61159b33610364565b602082019161370a836125ed565b60009161371683612517565b9161372361159b84610364565b14159081613b6f575b61373861376d92612510565b61374761186d61186d886125ed565b926040820191636352211e602061375c855190565b60405180978192612f638660e01b90565b0381895afa948515612b9157600095613b4f575b506137988783019561255b61159b6113e0896125ed565b6020612f636137a5865190565b926137bd6137b260405190565b948593849360e01b90565b0381895afa8015612b91576137e191600091613b31575b506127fc61159b33610364565b63e985e9c560206138016137f430610d20565b9261380d6137b260405190565b83523360048401612e5e565b0381895afa8015612b9157613829916000916133f35750612510565b613831612bd4565b9061383b856125ed565b98613845906125ed565b845190606083019a6138568c6125ed565b946080850195613864875190565b60a08701519061387560c089015190565b9261387f60405190565b97889760208901976138919789612bf8565b9081038252036138a1908261032a565b805190602001206138b1906126db565b9060e001516138bf91612875565b976138c9856125ed565b6138d290610364565b6138db8a610364565b146138e590612510565b81516138f2610161611114565b6138fb91611c17565b6139066103e8610f26565b61390f91612e8f565b92613919826125ed565b9061392390610364565b9061392d90610364565b03613a6757508561394d3461394661317b6102dc865190565b8351612062565b61395682610f26565b8111613a39575b508080809361397d866131b761397861186d61186d8d6125ed565b935190565b90828215613a30575bf115612b915784808080936139a261186d61186d610162611760565b828215613a27575bf115612b91575b6139c26132026323b872dd936125ed565b92803b156102b4576139dc8580946139e86133c660405190565b84523360048501612e9e565b03925af18015612b9157613a0a575b505061284a600161144f836101636109da565b81613a2092903d106132d3576132c4818361032a565b38806139f7565b506108fc6139aa565b506108fc613986565b81808092613a4961186d33610d20565b828215613a5e575bf115612b9157853861395d565b506108fc613a51565b90613a7761186d613aca936125ed565b613a8c61253d61110861334061016494610d20565b60206323b872dd92613aa4866131b76139788b6125ed565b90613aae60405190565b9586928392613abd8860e01b90565b8452339060048501612e9e565b03818b855af1928315612b9157602093613aeb916000916134215750612510565b61323088613af8886125ed565b93613b11613b07610162611760565b9761322360405190565b03925af18015612b9157613b2c916000916133f35750612510565b6139b1565b613b49915060203d811161346757613457818361032a565b386137d4565b613b6891955060203d811161346757613457818361032a565b9338613781565b613baa91506020613b8561186d61186d896125ed565b6040516380ac58cd60e01b91906134de906301ffc9a7905b9687948593849360e01b90565b03915afa918215612b915761376d9261373891600091613bce575b5092505061372c565b613be6915060203d811161341a5761340c818361032a565b38613bc5565b6020820190613bfa826125ed565b91613c056000612517565b92613c1261159b85610364565b1415806141c0575b613c2390612510565b613c3261186d61186d836125ed565b90636352211e9160408601916020612f63613c4b855190565b95613c63613c5860405190565b978893849360e01b90565b0381855afa938415612b91576000946141a0575b50869363e985e9c56020613042613c8d886125ed565b92613c9a61303430610d20565b0381875afa8015612b9157613cb6916000916133f35750612510565b613cce613cc56113e0876125ed565b6127fc83610364565b613cd6610c10565b90613ce23380936110e5565b15614176575050613cfe4261317d6119146102dc60c08c015190565b6101008701918251613d0e815190565b90602001209761016396613d228a896109da565b613d2b906110db565b15613d3590612510565b60c08101518051906020012098613d4c8a8a6109da565b613d55906110db565b15613d5f90612510565b613d68856125ed565b956020830196613d77886125ed565b613d8090610364565b90613d8a90610364565b14613d9490612510565b8751906040840191613da4835190565b14613dae90612510565b6060850194613dbc866125ed565b936060860194613dcb866125ed565b613dd490610364565b90613dde90610364565b14613de890612510565b613df1876125ed565b90613dfb90610364565b90613e0590610364565b1415613e1090612510565b8960808201988c613e1f8b5190565b9a608089019b613e2d8d5190565b1015613e3890612510565b613e40612cca565b91613e4a906125ed565b92613e54906125ed565b935194613e608b6125ed565b915160a082015190613e7360c084015190565b60e09093015193613e8360405190565b98899860208a0198613e95988a612cee565b908103825203613ea5908261032a565b80519060200120613eb5906126db565b9051613ec091612875565b613ec98a6125ed565b613ed290610364565b90613edc90610364565b14613ee690612510565b613eee612dd3565b92968793613efb856125ed565b91613f05906125ed565b925193613f11906125ed565b885160a087015191613f2260405190565b9687966020880196613f3496886125f7565b908103825203613f44908261032a565b80519060200120613f54906126db565b9060c00151613f6291612875565b613f6b856125ed565b613f7490610364565b90613f7e90610364565b14613f8890612510565b613f91906125ed565b613f9a90610d20565b9161016492613fa890610d20565b9283613fb391610d29565b613fbc906110db565b613fc590612510565b8051613fd2610161611114565b613fdb91611c17565b613fe66103e8610f26565b613fef91612e8f565b613ff881925190565b9061400291611f8c565b926323b872dd9381614013876125ed565b9361401f610162611760565b60405195869283926140318b60e01b90565b84526140409260048501612e9e565b03815a602094600091f1918215612b9157614068602093614097956000916134215750612510565b614071876125ed565b600061407c8b6125ed565b9161408660405190565b968795869485936132308d60e01b90565b03925af18015612b91576140b2916000916133f35750612510565b6140bb856125ed565b906140cd6140c8856125ed565b955190565b92813b156102b4576000613230916140f682966140e960405190565b998a978896879560e01b90565b03925af1938415612b915761144f61144f876135c3936141306119149861186d986128659b614160575b506135c38d6001978891866109da565b9a61414c61191460008051602061587b8339815191529d610d20565b908c61415760405190565b600090a36109da565b6141709060006132c4818361032a565b38614120565b6127fc61159b61419b936113e061418f60008c016125ed565b61255b61159b84610364565b613cfe565b6141b991945060203d811161346757613457818361032a565b9238613c77565b506141d5602061364e61186d61186d856125ed565b03915afa8015612b9157613c23916000916141f3575b509050613c1a565b61420b915060203d811161341a5761340c818361032a565b386141eb565b61421e611296600061214a565b808061429b575b8015614262575b61423590612154565b6001908061424561224884611c7b565b614252575b61225c6142b9565b61425d8260006121e4565b61424a565b506142726112966122ca30610d20565b801561422c575061423561428660006110db565b6142936122f06001611c7b565b14905061422c565b506142a660006110db565b6142b36122f06001611c7b565b10614225565b6102c66123f6565b6102c6614211565b506102c661253d612536610f33565b7f4ecb8ed8b1a630a3911ea5ebb08471150c483ff437816a553a719c843813f43690565b9081526060810193926102c6929091604091612ae3906020830152565b6102c6906143d46143286142d8565b6126bb6143336125c9565b936143b9602060008301966143a761434e60008a51016125ed565b61435a848b51016125ed565b9261130361436a60408d51015190565b8c61437860608251016125ed565b61439060a061438960808551015190565b9351015190565b9261439a60405190565b9889978b890197886125f7565b6143b26124df825190565b2092015190565b926113036143c660405190565b9485936020850193846142fc565b905160c0810151906126d5906125ed565b7f7e7ff3c05c1226e836a84484c113462dcf160a207669f0c9be01aadaa9b5012790565b6102c69061449e6144186143e5565b6126bb614423612bd4565b936143b9602060008301966143a761443e60008a51016125ed565b61444a848b51016125ed565b9261130361445a60408d51015190565b8c61446860608251016125ed565b8151608001519061448760c061448060a08651015190565b9451015190565b9361449160405190565b998a988c8a019889612bf8565b905160e0810151906126d5906125ed565b7fe57993386c39c4f31cbb3daa6b27127b56bfa79ea58cab58c0c2685167b2d3f390565b6102c69061456e6144e26144af565b6126bb6144ed612cca565b936143b9602060008301966143a761450860008a51016125ed565b614514848b51016125ed565b9261130361452460408d51015190565b8c61453260608251016125ed565b815160800151825160a001519161455760e061455060c08751015190565b9551015190565b9461456160405190565b9a8b998d8b01998a612cee565b9051610100810151906126d5906125ed565b7f99e12c01f62ea898c83de713ee463c51bc7a23682845117f77a60b0cd9eb1de290565b6102c6906143d46145b3614580565b6126bb614333612dd3565b6000198114611c2a5760010190565b906145d6825190565b811015611c69576020809102010190565b91936105b9614614929461279c6102dc9761460a60a08801986000890190610eb1565b6020870190610eb1565b60808183039101526000815260200190565b90929161463c6146366000610f26565b8561258b565b614654614647825190565b61258b6119146000610f26565b61465e6000612517565b9161466883610364565b61467182610364565b14159081614cf4575b61186d61468692612510565b93346146926000610f26565b61469d6102dc855190565b811080614ce2575b15614c8c5760c060006146b883876145cd565b51015101516146c86124df825190565b2090610163936146db61110884876109da565b614c8057610165946146f061110885886109da565b614c73576147096020614703858a6145cd565b51015190565b936101669161471b611f5583856109da565b6147286119146000610f26565b11614c5e575b6147378c610d20565b9589602061304261475c6000806147538c63e985e9c5976145cd565b510151016125ed565b9261476961303430610d20565b03818b5afa8015612b915761478491600091614c4657501590565b614c36576147906142d8565b8a6147996125c9565b6147a389836145cd565b51516147ae906125ed565b6147b88a846145cd565b51516147c6906020016125ed565b916147d18b856145cd565b515160400151938b6147e381836145cd565b51516147f1906060016125ed565b916147fc82826145cd565b5151608001519161480c916145cd565b515160a001519161481c60405190565b968796602088019661482e96886125f7565b90810382520361483e908261032a565b8051906020012061484f888d6145cd565b51602001519061485e60405190565b928392602084019261487092846142fc565b908103825203614880908261032a565b80519060200120614890906126db565b61489a878c6145cd565b515160c001516148a991612875565b936148b4878c6145cd565b51516148bf906125ed565b6148c890610364565b6148d186610364565b03614c2557818610614c01575061144f836148fe936148f982949c61144f60019687926109da565b6109da565b61491961191460008051602061587b83398151915293610d20565b9161492360405190565b600090a35b61494a6149446080600061493c868b6145cd565b510151015190565b86611c17565b9061497361496261495c610161611114565b84611c17565b61496d6103e8610f26565b90612e8f565b61497d8184611f8c565b9561498f60606000614753888d6145cd565b61499b61159b8c610364565b03614b1457836149ad81831015612510565b6149b691611f8c565b956149c1858a6145cd565b51516149cc906125ed565b6149d590610d20565b6149de90610d20565b60008215600093849384938493614b0b575bf115612b9157600080808093614a0d61186d61186d610162611760565b828215614b02575bf115612b915786955b63f242432a94614a34600080614753888c6145cd565b614a466040600061493c89339d6145cd565b91803b156102b457614a7160008b99614a7c878397614a6460405190565b9d8e988997889660e01b90565b8652600486016145e7565b03925af1918215612b9157614ae795614a9a93614aec575b50611f8c565b94614aab600080614753868b6145cd565b90614abd60606000614753878c6145cd565b91614adf61329461328e61328e6000805160206158bb83398151915294610d20565b0390a46145be565b614692565b614afc9060006132c4818361032a565b38614a94565b506108fc614a15565b506108fc6149f0565b9588614b2d61186d606060006147538a869e989e6145cd565b614b4261253d61110861334061016494610d20565b614b7c60206323b872dd94614b5e6000806147538d33996145cd565b6040519384928392614b708a60e01b90565b84528860048501612e9e565b03816000865af18015612b9157602094614ba2600092613230948491614bea5750612510565b614bc7614bb0610162611760565b9d614bba60405190565b9e8f978896879560e01b90565b03925af1968715612b91578897614be5916000916133f35750612510565b614a1e565b6134149150883d811161341a5761340c818361032a565b935084614c1f959950611f2b939250614c1991611f8c565b926109da565b83614928565b50505050509350614ae791506145be565b505050509350614ae791506145be565b611296915060203d811161341a5761340c818361032a565b9450614c6d611f5582846109da565b9461472e565b509350614ae791506145be565b9350614ae791506145be565b509394509050614ca491506127fc6119146000610f26565b614cae6000610f26565b8111614cb75750565b600080808093614cc961186d33610d20565b828215614cd9575bf115612b9157565b506108fc614cd1565b50614ced6000610f26565b83116146a5565b614d2391506020614d0761186d83610d20565b604051636cdb3d1360e11b91906134de906301ffc9a790613b9d565b03915afa918215612b91576146869261186d91600091614d47575b5092505061467a565b614d5f915060203d811161341a5761340c818361032a565b38614d3e565b9160206102c6929493612ae360408201966000830190610eb1565b805160e001518051829190614d94906124df565b2090610163614dac61253d61129661110886856109da565b614dd76020614dbe60008751016125ed565b95614dd0339761255b61159b8a610364565b51016125ed565b600090614de961159b6113e084612517565b1415806150cc575b614dfa90612510565b80830192614e1161186d61186d60208751016125ed565b9562fdd58e6020614e34614e2760408951015190565b92614e406137b260405190565b83528660048401614d65565b03818b5afa8015612b9157614e64916000916150ae575b5061258b61191486610f26565b63e985e9c56020614e84614e7730610d20565b92614e906137b260405190565b83528660048401612e5e565b03818b5afa8015612b9157614eac916000916133f35750612510565b614f25614f19614eba6143e5565b6126bb602089614f02614ecb612bd4565b614ed78b8451016125ed565b90611303614ee7868651016125ed565b94614ef460408251015190565b9061446860608251016125ed565b614f0d6124df825190565b209601956143b9875190565b60e08751015190612875565b96614f41614f386113e0868951016125ed565b6127fc8a610364565b614f64614962614f5360808951015190565b614f5e610161611114565b90611c17565b8685614f7661186d60608451016125ed565b614f8b61253d61110861334061016494610d20565b602086614faf866131b76080614fa86323b872dd988a51016125ed565b9851015190565b94614fcb614fbc60405190565b96879384936132308960e01b90565b03818b855af1928315612b9157602093614fec916000916134215750612510565b61323088614ffc818d51016125ed565b9361500b613b07610162611760565b03925af18015612b9157615026916000916133f35750612510565b63f242432a926150476132026040615040888b51016125ed565b9951015190565b823b156102b457859461506f8692614a719461506260405190565b9b8c988997889660e01b90565b03925af1928315612b915761284a93615091575b505061144f836001926109da565b816150a792903d106132d3576132c4818361032a565b3880615083565b6150c6915060203d811161194c5761193d818361032a565b38614e57565b5061510260206150e661186d61186d8386890151016125ed565b604051636cdb3d1360e11b91906134de906301ffc9a790613666565b03915afa8015612b9157614dfa91600091615120575b509050614df1565b615138915060203d811161341a5761340c818361032a565b38615118565b9061514f60206000830151016125ed565b9060009061515c82612517565b9261516961159b85610364565b141580615824575b61517a90612510565b81810161519061186d61186d60208451016125ed565b9262fdd58e9260206151c56151a7848651016125ed565b956151d06151b760408851015190565b604051988994859460e01b90565b845260048401614d65565b0381885afa938415612b91576000946157fe575b5060206151fb91019361317d6119146102dc875190565b63e985e9c56020613042615211848651016125ed565b9261521e61303430610d20565b0381885afa8015612b915761523a916000916133f35750612510565b615242610c10565b61524d3380926110e5565b156157c657506152694261317d6119146102dc60c08751015190565b8151610100015180519060200120956101639461528688876109da565b61528f906110db565b1561529990612510565b82820191825160c001516152ab815190565b9060200120976152bb89896109da565b6152c4906110db565b156152ce90612510565b85516020016152dc906125ed565b84516020016152ea906125ed565b6152f390610364565b906152fd90610364565b1461530790612510565b8551604001518451604001511461531d90612510565b855160600161532b906125ed565b8451606001615339906125ed565b61534290610364565b9061534c90610364565b1461535690612510565b8551606001615364906125ed565b9061536e90610364565b9061537890610364565b141561538390612510565b845160800151835160800151101561539a90612510565b855190602001906153a9825190565b146153b390612510565b61016485516060016153c4906125ed565b6153cd91610d29565b6153d6906110db565b6153df90612510565b6153e76144af565b6153ef612cca565b858751016153fc906125ed565b875160200161540a906125ed565b908851604001615418905190565b928951606001615427906125ed565b8a51608081015160a082015160c083015160e0909301519091909361544b60405190565b98899860208a019861545d988a612cee565b90810382520361546d908261032a565b8051906020012061547c885190565b9061548660405190565b928392602084019261549892846142fc565b9081038252036154a8908261032a565b805190602001206154b8906126db565b855161010001516154c891612875565b848651016154d5906125ed565b6154de90610364565b906154e890610364565b146154f290612510565b6154fa614580565b90615503612dd3565b85855101615510906125ed565b855160200161551e906125ed565b90865160400161552c905190565b92875160600161553b906125ed565b885160800151895160a001519161555160405190565b968796602088019661556396886125f7565b908103825203615573908261032a565b805160209091012090519061558760405190565b928392602084019261559992846142fc565b9081038252036155a9908261032a565b805190602001206155b9906126db565b825160c001516155c891612875565b838351016155d5906125ed565b6155de90610364565b906155e890610364565b146155f290612510565b8351606001615600906125ed565b61560990610d20565b82516080015161561a610161611114565b61562391611c17565b61562e6103e8610f26565b61563791612e8f565b8351608001518161564791611f8c565b9161565190610d20565b6323b872dd908087875101615665906125ed565b93615671610162611760565b60405195869283926156838860e01b90565b84526156929260048501612e9e565b03818a5a94602095f1928315612b91576020936156b6916000916134215750612510565b613230876156c6818951016125ed565b936156d6613b07838d51016125ed565b03925af18015612b91576156f1916000916133f35750612510565b63f242432a90615703848651016125ed565b90615710858551016125ed565b9661572061320260408951015190565b823b156102b45786946157488692614a719461573b60405190565b9c8d988997889660e01b90565b03925af1948515612b915761144f61144f88614dd0936157838761186d99614dd08f6119149d6128659f6157aa575b506001988991876109da565b9b61579f61191460008051602061587b8339815191529e610d20565b908d61415760405190565b6157c090853d87116132d3576132c4818361032a565b38615777565b6157f9906157e56157d9848651016125ed565b6127fc61159b84610364565b61255b61159b6116dc85808c0151016125ed565b615269565b6151fb91945061581c602091823d811161194c5761193d818361032a565b9491506151e4565b5061583e60206150e661186d61186d8387870151016125ed565b03915afa8015612b915761517a9160009161585c575b509050615171565b615874915060203d811161341a5761340c818361032a565b3861585456fe8c4e82d0c2e3a462d0450cd1797aef55b85987a833dd3d93b61d96824a01410e46756e6374696f6e206d7573742062652063616c6c6564207468726f756768207513041303c2b9ea5d0cd2947187eb1839f9eefc23f1d9017f96531557376a88a2646970667358221220ed5e40bed4fcb975ea251331e5f8bc8eebe51ecf66011e987bf2fca9be01528f64736f6c63430008150033",
  "linkReferences": {},
  "deployedLinkReferences": {}
}