{
  "_format": "hh-sol-artifact-1",
  "contractName": "NftCollectionFactory",
  "sourceName": "contracts/NftCollectionFactory.sol",
  "abi": [
    {
      "inputs": [],
      "stateMutability": "nonpayable",
      "type": "constructor"
    },
    {
      "anonymous": false,
      "inputs": [
        {
          "indexed": false,
          "internalType": "address",
          "name": "previousAdmin",
          "type": "address"
        },
        {
          "indexed": false,
          "internalType": "address",
          "name": "newAdmin",
          "type": "address"
        }
      ],
      "name": "AdminChanged",
      "type": "event"
    },
    {
      "anonymous": false,
      "inputs": [
        {
          "indexed": true,
          "internalType": "address",
          "name": "beacon",
          "type": "address"
        }
      ],
      "name": "BeaconUpgraded",
      "type": "event"
    },
    {
      "anonymous": false,
      "inputs": [
        {
          "indexed": false,
          "internalType": "uint8",
          "name": "version",
          "type": "uint8"
        }
      ],
      "name": "Initialized",
      "type": "event"
    },
    {
      "anonymous": false,
      "inputs": [
        {
          "indexed": true,
          "internalType": "uint256",
          "name": "idx",
          "type": "uint256"
        },
        {
          "indexed": false,
          "internalType": "address",
          "name": "nftCollection",
          "type": "address"
        }
      ],
      "name": "NftCollectionCreated",
      "type": "event"
    },
    {
      "anonymous": false,
      "inputs": [
        {
          "indexed": true,
          "internalType": "uint256",
          "name": "version",
          "type": "uint256"
        },
        {
          "indexed": false,
          "internalType": "address",
          "name": "nftCollectionImpl",
          "type": "address"
        }
      ],
      "name": "NftCollectionImplementationAdded",
      "type": "event"
    },
    {
      "anonymous": false,
      "inputs": [
        {
          "indexed": true,
          "internalType": "uint256",
          "name": "version",
          "type": "uint256"
        },
        {
          "indexed": false,
          "internalType": "address",
          "name": "nftCollectionImpl",
          "type": "address"
        }
      ],
      "name": "NftCollectionImplementationRemoved",
      "type": "event"
    },
    {
      "anonymous": false,
      "inputs": [
        {
          "indexed": true,
          "internalType": "bytes32",
          "name": "role",
          "type": "bytes32"
        },
        {
          "indexed": true,
          "internalType": "bytes32",
          "name": "previousAdminRole",
          "type": "bytes32"
        },
        {
          "indexed": true,
          "internalType": "bytes32",
          "name": "newAdminRole",
          "type": "bytes32"
        }
      ],
      "name": "RoleAdminChanged",
      "type": "event"
    },
    {
      "anonymous": false,
      "inputs": [
        {
          "indexed": true,
          "internalType": "bytes32",
          "name": "role",
          "type": "bytes32"
        },
        {
          "indexed": true,
          "internalType": "address",
          "name": "account",
          "type": "address"
        },
        {
          "indexed": true,
          "internalType": "address",
          "name": "sender",
          "type": "address"
        }
      ],
      "name": "RoleGranted",
      "type": "event"
    },
    {
      "anonymous": false,
      "inputs": [
        {
          "indexed": true,
          "internalType": "bytes32",
          "name": "role",
          "type": "bytes32"
        },
        {
          "indexed": true,
          "internalType": "address",
          "name": "account",
          "type": "address"
        },
        {
          "indexed": true,
          "internalType": "address",
          "name": "sender",
          "type": "address"
        }
      ],
      "name": "RoleRevoked",
      "type": "event"
    },
    {
      "anonymous": false,
      "inputs": [
        {
          "indexed": true,
          "internalType": "uint256",
          "name": "idx",
          "type": "uint256"
        },
        {
          "indexed": false,
          "internalType": "address",
          "name": "sftCollection",
          "type": "address"
        }
      ],
      "name": "SFTCollectionCreated",
      "type": "event"
    },
    {
      "anonymous": false,
      "inputs": [
        {
          "indexed": true,
          "internalType": "uint256",
          "name": "version",
          "type": "uint256"
        },
        {
          "indexed": false,
          "internalType": "address",
          "name": "SFTCollectionImpl",
          "type": "address"
        }
      ],
      "name": "SFTCollectionImplementationAdded",
      "type": "event"
    },
    {
      "anonymous": false,
      "inputs": [
        {
          "indexed": true,
          "internalType": "uint256",
          "name": "version",
          "type": "uint256"
        },
        {
          "indexed": false,
          "internalType": "address",
          "name": "SFTCollectionImpl",
          "type": "address"
        }
      ],
      "name": "SFTCollectionImplementationRemoved",
      "type": "event"
    },
    {
      "anonymous": false,
      "inputs": [
        {
          "indexed": true,
          "internalType": "address",
          "name": "implementation",
          "type": "address"
        }
      ],
      "name": "Upgraded",
      "type": "event"
    },
    {
      "inputs": [],
      "name": "COLLECTION_IMPLEMENTATION_PROVIDER_ROLE",
      "outputs": [
        {
          "internalType": "bytes32",
          "name": "",
          "type": "bytes32"
        }
      ],
      "stateMutability": "view",
      "type": "function"
    },
    {
      "inputs": [],
      "name": "DEFAULT_ADMIN_ROLE",
      "outputs": [
        {
          "internalType": "bytes32",
          "name": "",
          "type": "bytes32"
        }
      ],
      "stateMutability": "view",
      "type": "function"
    },
    {
      "inputs": [],
      "name": "NFTCollectionVersion",
      "outputs": [
        {
          "internalType": "uint256",
          "name": "",
          "type": "uint256"
        }
      ],
      "stateMutability": "view",
      "type": "function"
    },
    {
      "inputs": [],
      "name": "SFTCollectionVersion",
      "outputs": [
        {
          "internalType": "uint256",
          "name": "",
          "type": "uint256"
        }
      ],
      "stateMutability": "view",
      "type": "function"
    },
    {
      "inputs": [
        {
          "internalType": "uint256",
          "name": "",
          "type": "uint256"
        }
      ],
      "name": "SFTversionToImpl",
      "outputs": [
        {
          "internalType": "address",
          "name": "",
          "type": "address"
        }
      ],
      "stateMutability": "view",
      "type": "function"
    },
    {
      "inputs": [],
      "name": "UPGRADER_ROLE",
      "outputs": [
        {
          "internalType": "bytes32",
          "name": "",
          "type": "bytes32"
        }
      ],
      "stateMutability": "view",
      "type": "function"
    },
    {
      "inputs": [
        {
          "internalType": "address",
          "name": "newImplementation",
          "type": "address"
        }
      ],
      "name": "addNftCollectionUpgrade",
      "outputs": [],
      "stateMutability": "nonpayable",
      "type": "function"
    },
    {
      "inputs": [
        {
          "internalType": "address",
          "name": "newImplementation",
          "type": "address"
        }
      ],
      "name": "addSFTCollectionUpgrade",
      "outputs": [],
      "stateMutability": "nonpayable",
      "type": "function"
    },
    {
      "inputs": [
        {
          "internalType": "bytes",
          "name": "data",
          "type": "bytes"
        }
      ],
      "name": "createNftCollection",
      "outputs": [
        {
          "internalType": "address",
          "name": "",
          "type": "address"
        }
      ],
      "stateMutability": "nonpayable",
      "type": "function"
    },
    {
      "inputs": [
        {
          "internalType": "bytes",
          "name": "data",
          "type": "bytes"
        }
      ],
      "name": "createSFTCollection",
      "outputs": [
        {
          "internalType": "address",
          "name": "",
          "type": "address"
        }
      ],
      "stateMutability": "nonpayable",
      "type": "function"
    },
    {
      "inputs": [
        {
          "internalType": "uint256",
          "name": "",
          "type": "uint256"
        }
      ],
      "name": "createdNftCollections",
      "outputs": [
        {
          "internalType": "address",
          "name": "",
          "type": "address"
        }
      ],
      "stateMutability": "view",
      "type": "function"
    },
    {
      "inputs": [],
      "name": "createdNftCollectionsLength",
      "outputs": [
        {
          "internalType": "uint256",
          "name": "",
          "type": "uint256"
        }
      ],
      "stateMutability": "view",
      "type": "function"
    },
    {
      "inputs": [
        {
          "internalType": "uint256",
          "name": "",
          "type": "uint256"
        }
      ],
      "name": "createdSFTCollections",
      "outputs": [
        {
          "internalType": "address",
          "name": "",
          "type": "address"
        }
      ],
      "stateMutability": "view",
      "type": "function"
    },
    {
      "inputs": [],
      "name": "createdSFTCollectionsLength",
      "outputs": [
        {
          "internalType": "uint256",
          "name": "",
          "type": "uint256"
        }
      ],
      "stateMutability": "view",
      "type": "function"
    },
    {
      "inputs": [],
      "name": "currentNftCollectionImpl",
      "outputs": [
        {
          "internalType": "contract NftCollection",
          "name": "",
          "type": "address"
        }
      ],
      "stateMutability": "view",
      "type": "function"
    },
    {
      "inputs": [],
      "name": "currentSFTCollectionImpl",
      "outputs": [
        {
          "internalType": "contract SFTCollection",
          "name": "",
          "type": "address"
        }
      ],
      "stateMutability": "view",
      "type": "function"
    },
    {
      "inputs": [
        {
          "internalType": "bytes32",
          "name": "role",
          "type": "bytes32"
        }
      ],
      "name": "getRoleAdmin",
      "outputs": [
        {
          "internalType": "bytes32",
          "name": "",
          "type": "bytes32"
        }
      ],
      "stateMutability": "view",
      "type": "function"
    },
    {
      "inputs": [
        {
          "internalType": "bytes32",
          "name": "role",
          "type": "bytes32"
        },
        {
          "internalType": "address",
          "name": "account",
          "type": "address"
        }
      ],
      "name": "grantRole",
      "outputs": [],
      "stateMutability": "nonpayable",
      "type": "function"
    },
    {
      "inputs": [
        {
          "internalType": "bytes32",
          "name": "role",
          "type": "bytes32"
        },
        {
          "internalType": "address",
          "name": "account",
          "type": "address"
        }
      ],
      "name": "hasRole",
      "outputs": [
        {
          "internalType": "bool",
          "name": "",
          "type": "bool"
        }
      ],
      "stateMutability": "view",
      "type": "function"
    },
    {
      "inputs": [
        {
          "internalType": "address",
          "name": "",
          "type": "address"
        }
      ],
      "name": "implToSFTVersion",
      "outputs": [
        {
          "internalType": "uint256",
          "name": "",
          "type": "uint256"
        }
      ],
      "stateMutability": "view",
      "type": "function"
    },
    {
      "inputs": [
        {
          "internalType": "address",
          "name": "",
          "type": "address"
        }
      ],
      "name": "implToVersion",
      "outputs": [
        {
          "internalType": "uint256",
          "name": "",
          "type": "uint256"
        }
      ],
      "stateMutability": "view",
      "type": "function"
    },
    {
      "inputs": [
        {
          "internalType": "address",
          "name": "_admin",
          "type": "address"
        },
        {
          "internalType": "address",
          "name": "_upgrader",
          "type": "address"
        },
        {
          "internalType": "address",
          "name": "_collection_implementation_provider",
          "type": "address"
        }
      ],
      "name": "initialize",
      "outputs": [],
      "stateMutability": "nonpayable",
      "type": "function"
    },
    {
      "inputs": [
        {
          "internalType": "address",
          "name": "",
          "type": "address"
        }
      ],
      "name": "isImplAvailable",
      "outputs": [
        {
          "internalType": "bool",
          "name": "",
          "type": "bool"
        }
      ],
      "stateMutability": "view",
      "type": "function"
    },
    {
      "inputs": [],
      "name": "proxiableUUID",
      "outputs": [
        {
          "internalType": "bytes32",
          "name": "",
          "type": "bytes32"
        }
      ],
      "stateMutability": "view",
      "type": "function"
    },
    {
      "inputs": [
        {
          "internalType": "uint256",
          "name": "_version",
          "type": "uint256"
        }
      ],
      "name": "removeNftCollectionUpgrade",
      "outputs": [],
      "stateMutability": "nonpayable",
      "type": "function"
    },
    {
      "inputs": [
        {
          "internalType": "uint256",
          "name": "_version",
          "type": "uint256"
        }
      ],
      "name": "removeSFTCollectionUpgrade",
      "outputs": [],
      "stateMutability": "nonpayable",
      "type": "function"
    },
    {
      "inputs": [
        {
          "internalType": "bytes32",
          "name": "role",
          "type": "bytes32"
        },
        {
          "internalType": "address",
          "name": "account",
          "type": "address"
        }
      ],
      "name": "renounceRole",
      "outputs": [],
      "stateMutability": "nonpayable",
      "type": "function"
    },
    {
      "inputs": [
        {
          "internalType": "bytes32",
          "name": "role",
          "type": "bytes32"
        },
        {
          "internalType": "address",
          "name": "account",
          "type": "address"
        }
      ],
      "name": "revokeRole",
      "outputs": [],
      "stateMutability": "nonpayable",
      "type": "function"
    },
    {
      "inputs": [
        {
          "internalType": "bytes4",
          "name": "interfaceId",
          "type": "bytes4"
        }
      ],
      "name": "supportsInterface",
      "outputs": [
        {
          "internalType": "bool",
          "name": "",
          "type": "bool"
        }
      ],
      "stateMutability": "view",
      "type": "function"
    },
    {
      "inputs": [
        {
          "internalType": "address",
          "name": "newImplementation",
          "type": "address"
        }
      ],
      "name": "upgradeTo",
      "outputs": [],
      "stateMutability": "nonpayable",
      "type": "function"
    },
    {
      "inputs": [
        {
          "internalType": "address",
          "name": "newImplementation",
          "type": "address"
        },
        {
          "internalType": "bytes",
          "name": "data",
          "type": "bytes"
        }
      ],
      "name": "upgradeToAndCall",
      "outputs": [],
      "stateMutability": "payable",
      "type": "function"
    },
    {
      "inputs": [
        {
          "internalType": "uint256",
          "name": "",
          "type": "uint256"
        }
      ],
      "name": "versionToImpl",
      "outputs": [
        {
          "internalType": "address",
          "name": "",
          "type": "address"
        }
      ],
      "stateMutability": "view",
      "type": "function"
    }
  ],
  "bytecode": "0x60a0604052346200003657620000146200003b565b604051612be46200021f82396080518181816110b501526111ec0152612be490f35b600080fd5b6200004562000051565b6200004f62000191565b565b6200004f6200004f6200004f6200004f6200004f620000a6565b620000819062000084906001600160a01b031682565b90565b6001600160a01b031690565b62000081906200006b565b620000819062000090565b620000b1306200009b565b608052565b620000819060081c5b60ff1690565b620000819054620000b6565b60208082526027908201527f496e697469616c697a61626c653a20636f6e747261637420697320696e697469604082015266616c697a696e6760c81b606082015260800190565b156200012057565b60405162461bcd60e51b8152806200013b60048201620000d1565b0390fd5b6200008190620000bf565b6200008190546200013f565b620000bf62000081620000819260ff1690565b906200017d620000816200018d9262000156565b825460ff191660ff919091161790565b9055565b620001af620001a9620001a56000620000c5565b1590565b62000118565b620001bb60006200014a565b60ff908190811610620001cb5750565b620001d881600062000169565b620002197f7f26b83ff96e1f2b6a682f133852f6798a09c465da95921460cefb3847402498916200020860405190565b9182918260ff909116815260200190565b0390a156fe608060405260043610156200001357600080fd5b60003560e01c806301ffc9a7146200025257806304fff725146200024c578063076b6b63146200024657806309d9f50a14620002405780630c197f56146200023a578063119583b414620002345780631fcf050e146200022e578063248a9ca314620002285780632f2ff15d14620002225780633639805f146200021c57806336568abe14620002165780633659cfe614620002105780633cf01f6c146200020a5780634509cea314620002045780634f1ef28614620001fe57806352d1902d14620001f85780635605c98c14620001f25780636355d22f14620001ec5780636f046bde14620001e657806391d1485414620001e057806395add14c14620001da5780639864288014620001d4578063a217fddf14620001ce578063a9ff665714620001c8578063c0c53b8b14620001c2578063d547741f14620001bc578063dd9b89fe14620001b6578063e2b02b5b14620001b0578063e59029af14620001aa578063f558036514620001a4578063f72c0d8b146200019e5763fcd06a6503620002785762000b6f565b62000b3f565b62000af0565b62000ad3565b62000ab6565b62000a95565b62000a69565b62000a4b565b620009f3565b620009a4565b62000971565b62000950565b62000918565b620008f7565b620008ad565b62000883565b62000862565b6200084a565b62000718565b62000686565b62000653565b62000635565b62000607565b620005b9565b62000570565b6200054f565b6200052e565b620004f1565b62000499565b6200045e565b6200039f565b620002ac565b6001600160e01b03191690565b620002708162000258565b036200027857565b600080fd5b905035906200028c8262000265565b565b906020828203126200027857620002a5916200027d565b90565b9052565b346200027857620002df620002cd620002c73660046200028e565b62000b90565b60405191829182901515815260200190565b0390f35b6001600160a01b031690565b6200027081620002e3565b905035906200028c82620002ef565b906020828203126200027857620002a591620002fa565b620002a590620002e3906001600160a01b031682565b620002a59062000320565b620002a59062000336565b90620003589062000341565b600052602052604060002090565b620002a5916008021c5b60ff1690565b90620002a5915462000366565b620002a59062000399610105916000926200034c565b62000376565b346200027857620002df620002cd620003ba36600462000309565b62000383565b8062000270565b905035906200028c82620003c0565b906020828203126200027857620002a591620003c7565b620002a5620002a5620002a59290565b906200035890620003ed565b620002a5916008021c620002e3565b90620002a5915462000409565b620002a5906200043b61010491600092620003fd565b62000418565b620002a890620002e3565b6020810192916200028c919062000441565b346200027857620002df6200047f62000479366004620003d6565b62000425565b6040515b918291826200044c565b60009103126200027857565b346200027857620004ac3660046200048d565b620002df620004ba60fd5490565b6040519182918290815260200190565b620002a5916008021c81565b90620002a59154620004ca565b620002a5600060fc620004d6565b346200027857620005043660046200048d565b620002df620004ba620004e3565b620002a59062000528610102916000926200034c565b620004d6565b346200027857620002df620004ba6200054936600462000309565b62000512565b346200027857620005623660046200048d565b620002df620004ba60fe5490565b346200027857620002df620004ba6200058b366004620003d6565b62000c27565b91906040838203126200027857620002a590620005af8185620003c7565b93602001620002fa565b346200027857620005d7620005d036600462000591565b9062000c69565b604051005b620002a5600060ff62000418565b620002a89062000341565b6020810192916200028c9190620005ea565b3462000278576200061a3660046200048d565b620002df62000628620005dc565b60405191829182620005f5565b346200027857620005d76200064c36600462000591565b9062000ee1565b346200027857620005d76200066a36600462000309565b620012bb565b620002a5906200043b61010391600092620003fd565b346200027857620002df6200047f620006a1366004620003d6565b62000670565b634e487b7160e01b600052603260045260246000fd5b8054821015620006e257620006d9600191600052602060002090565b91020190600090565b620006a7565b60fe6000620006f5825490565b831015620007155750620002a5916200070e91620006bd565b9062000418565b80fd5b346200027857620002df6200047f62000733366004620003d6565b620006e8565b634e487b7160e01b600052604160045260246000fd5b90601f01601f191681019081106001600160401b038211176200077157604052565b62000739565b906200028c6200078660405190565b92836200074f565b6001600160401b0381116200077157602090601f01601f19160190565b0190565b90826000939282370152565b90929192620007d4620007ce826200078e565b62000777565b9381855260208501908284011162000278576200028c92620007af565b9080601f830112156200027857816020620002a593359101620007bb565b9190916040818403126200027857620008298382620002fa565b9260208201356001600160401b0381116200027857620002a59201620007f1565b620005d76200085b3660046200080f565b906200178e565b346200027857620008753660046200048d565b620002df620004ba62001124565b346200027857620005d76200089a36600462000309565b62001bfd565b60fd6000620006f5825490565b346200027857620002df6200047f620008c8366004620003d6565b620008a0565b90602082820312620002785781356001600160401b0381116200027857620002a59201620007f1565b346200027857620002df6200047f62000912366004620008ce565b620024fa565b346200027857620002df620002cd6200093336600462000591565b9062000be4565b620002a59062000528610101916000926200034c565b346200027857620002df620004ba6200096b36600462000309565b6200093a565b346200027857620005d762000988366004620003d6565b62001f05565b620002a56000620003ed565b620002a56200098e565b346200027857620009b73660046200048d565b620002df620004ba6200099a565b7f8939956e9d74710f2c04354dda275fce452f6b2165d5d4d899f916d5ee3709ae90565b620002a5620009c5565b34620002785762000a063660046200048d565b620002df620004ba620009e9565b90916060828403126200027857620002a562000a318484620002fa565b9362000a418160208601620002fa565b93604001620002fa565b346200027857620005d762000a6236600462000a14565b916200221d565b346200027857620005d762000a8036600462000591565b9062000e70565b620002a5600060fb620004d6565b34620002785762000aa83660046200048d565b620002df620004ba62000a87565b346200027857620005d762000acd366004620003d6565b62001dcb565b346200027857620005d762000aea36600462000309565b62001ae4565b346200027857620002df6200047f62000b0b366004620008ce565b62002400565b7f189ab7a9244df0848122154315af71fe140f3db0fe014031783b0946b8c9d2e390565b620002a562000b11565b34620002785762000b523660046200048d565b620002df620004ba62000b35565b620002a5600061010062000418565b34620002785762000b823660046200048d565b620002df6200062862000b60565b62000ba2637965db0b60e01b62000258565b62000bad8262000258565b1490811562000bba575090565b620002a5915062001a20565b9062000358565b620002a59062000370565b620002a5905462000bcd565b620002a591600062000c0662000c0d9362000bfd600090565b5060c962000bc6565b016200034c565b62000bd8565b620002a59081565b620002a5905462000c13565b600162000c3b620002a59262000bfd600090565b0162000c1b565b906200028c9162000c5d62000c578262000c27565b62000c75565b906200028c9162000f42565b906200028c9162000c42565b6200028c90339062000d90565b620002a59081906001600160a01b031681565b620002a590620003ed565b60005b83811062000cb45750506000910152565b818101518382015260200162000ca3565b620007ab62000ce09260209262000cda815190565b94859290565b9384910162000ca0565b62000d27620002a5939262000d2062000d209376020b1b1b2b9b9a1b7b73a3937b61d1030b1b1b7bab73a1604d1b815260170190565b9062000cc5565b7001034b99036b4b9b9b4b733903937b6329607d1b815260110190565b62000d6962000d73602093620007ab9362000d5d815190565b80835293849260200190565b9586910162000ca0565b601f01601f191690565b6020808252620002a59291019062000d44565b9062000da562000da1828462000be4565b1590565b62000dae575050565b62000e4b91620002a562000df662000def62000dd08562000e31965062000336565b62000de862000de160149262000c82565b91620003ed565b90620018d1565b9262000c95565b62000e0860209162000de883620003ed565b9262000e2462000e1760405190565b9485938401928362000cea565b908103825203826200074f565b6040515b62461bcd60e51b81529182916004830162000d7d565b0390fd5b906200028c9162000e6462000c578262000c27565b906200028c9162000fc7565b906200028c9162000e4f565b1562000e8457565b60405162461bcd60e51b815260206004820152602f60248201527f416363657373436f6e74726f6c3a2063616e206f6e6c792072656e6f756e636560448201526e103937b632b9903337b91039b2b63360891b6064820152608490fd5b6200028c919062000f0e62000efc33620002e3565b620002e3565b62000f0784620002e3565b1462000e7c565b62000fc7565b9060ff905b9181191691161790565b9062000f36620002a562000f3e92151590565b825462000f14565b9055565b9062000f5362000da1828462000be4565b62000f5c575050565b62000f7c600162000f7683600062000c068760c962000bc6565b62000f23565b339062000fb662000faf62000faf7f2f8788117e7eff1d82e926ec794901d17c78024a50270940304540a733656f0d9590565b9262000341565b9262000fc160405190565b600090a4565b9062000fd4818362000be4565b62000fdd575050565b62000ff6600062000f76838262000c068760c962000bc6565b339062000fb662000faf62000faf7ff6391f5c32d9c69d2a47ea670b442974b53935d1edc7fd64eb21e047a839171b9590565b156200103157565b60405162461bcd60e51b815260206004820152603860248201527f555550535570677261646561626c653a206d757374206e6f742062652063616c6044820152771b1959081d1a1c9bdd59da0819195b1959d85d1958d85b1b60421b6064820152608490fd5b620002a590620010e8620010ab3062000341565b620010e1620010da7f0000000000000000000000000000000000000000000000000000000000000000620002e3565b91620002e3565b1462001029565b62001119565b620002a57f360894a13ba1a3210667c828492db98dca3e2076cc3735a920a3ca505d382bbc620003ed565b50620002a5620010ee565b620002a5600062001097565b156200113857565b60405162461bcd60e51b815260206004820152602c602482015260008051602062002b8f83398151915260448201526b19195b1959d85d1958d85b1b60a21b6064820152608490fd5b156200118957565b60405162461bcd60e51b815260206004820152602c602482015260008051602062002b8f83398151915260448201526b6163746976652070726f787960a01b6064820152608490fd5b6200028c9062001243620011e63062000341565b620012237f0000000000000000000000000000000000000000000000000000000000000000916200121b620010da84620002e3565b141562001130565b6200123c620010da62001235620012dd565b92620002e3565b1462001181565b6200128c565b9062001259620007ce836200078e565b918252565b369037565b906200028c6200127e620012778462001249565b936200078e565b601f1901602084016200125e565b6200028c906200129c81620022f7565b600090620012b4620012ae83620003ed565b62001263565b90620013b4565b6200028c90620011d2565b620002a590620002e3565b620002a59054620012c6565b620002a56000620012f1620002a5620010ee565b01620012d1565b620002a57f4910fdfa16fed3260ed0e7147f7cc6da11a60208b5b9406d12a635614ffd9143620003ed565b905051906200028c82620003c0565b906020828203126200027857620002a59162001323565b6040513d6000823e3d90fd5b156200135d57565b60405162461bcd60e51b815260206004820152602960248201527f45524331393637557067726164653a20756e737570706f727465642070726f786044820152681a58589b195555525160ba1b6064820152608490fd5b9190620013d16000620013ca620002a5620012f8565b0162000bd8565b15620013e557506200028c91905062001583565b62001419602062001400620013fa8662000341565b62000341565b6352d1902d906200141060405190565b93849260e01b90565b825260049082905afa60009181620014bd575b506200148f575060405162461bcd60e51b815260206004820152602e60248201527f45524331393637557067726164653a206e657720696d706c656d656e7461746960448201526d6f6e206973206e6f74205555505360901b6064820152608490fd5b6200028c9390620014b790620014b0620014ac620002a5620010ee565b9190565b1462001355565b620015b4565b620014e491925060203d8111620014ec575b620014db81836200074f565b81019062001332565b90386200142c565b503d620014cf565b15620014fc57565b60405162461bcd60e51b815260206004820152602d60248201527f455243313936373a206e657720696d706c656d656e746174696f6e206973206e60448201526c1bdd08184818dbdb9d1c9858dd609a1b6064820152608490fd5b906001600160a01b039062000f19565b906200157b620002a562000f3e9262000341565b825462001557565b6200028c906200159d62001597826200179a565b620014f4565b6000620015ad620002a5620010ee565b0162001567565b91620015c083620015fd565b8151620015d2620014ac6000620003ed565b11908115620015f4575b50620015e6575050565b620015f19162001714565b50565b905038620015dc565b620016088162001583565b620016347fbc7cd75a20ee27fd9adebab32041f755214dbc6bffa90cc0225b39da2e5c2d3b9162000341565b906200163f60405190565b80805b0390a2565b156200164f57565b60405162461bcd60e51b815260206004820152602660248201527f416464726573733a2064656c65676174652063616c6c20746f206e6f6e2d636f6044820152651b9d1c9858dd60d21b6064820152608490fd5b3d15620016c057620016b53d62001249565b903d6000602084013e565b606090565b620016d1602762001249565b7f416464726573733a206c6f772d6c6576656c2064656c65676174652063616c6c6020820152660819985a5b195960ca1b604082015290565b620002a5620016c5565b60008091620002a59362001726606090565b506200173c62001736836200179a565b62001647565b602081019051915af46200174f620016a3565b620017596200170a565b91620017af565b906200028c9162001775620011e63062000341565b6200028c916200178582620022f7565b600191620013b4565b906200028c9162001760565b3b620017ab620014ac6000620003ed565b1190565b90919015620017bc575090565b8151620017ce620014ac6000620003ed565b1115620017de5750805190602001fd5b60405162000e4b919062000e35565b634e487b7160e01b600052601160045260246000fd5b818102929181159184041417156200181757565b620017ed565b919082018092116200181757565b9062001835825190565b811015620006e2570160200190565b801562001817576000190190565b62000370620002a5620002a59290565b620002a5906200187a620014ac620002a59460ff1690565b901c90565b156200188757565b60405162461bcd60e51b81528062000e4b600482016020808252818101527f537472696e67733a20686578206c656e67746820696e73756666696369656e74604082015260600190565b919060029262001906620012ae620018f484620018ee88620003ed565b62001803565b620018ff87620003ed565b906200181d565b916000906030620019226200191b84620003ed565b866200182b565b53620019666200195b600f60fb1b92620018ee600199858b9650871a620019546200194d88620003ed565b8b6200182b565b53620003ed565b620018ff83620003ed565b905b62001991575b50620002a5939450906200198a620014ac620002a593620003ed565b146200187f565b916200199d86620003ed565b83111562001a19576f181899199a1a9b1b9c1cb0b131b232b360811b620019c5600f620003ed565b8216906010821015620006e2578792620019e962001a0b9262001a12941a60f81b90565b851a620019f787896200182b565b5362001a04600462001852565b9062001862565b9362001844565b9062001968565b916200196e565b62001a3d62001a366301ffc9a760e01b62000258565b9162000258565b1490565b1562001a4957565b60405162461bcd60e51b815260206004820152603660248201527f4163636f756e74206e6173206e6f20636f6c6c656374696f6e20696d706c656d604482015275656e746174696f6e2070726f766964657220726f6c6560501b6064820152608490fd5b6000198114620018175760010190565b906000199062000f19565b9062001adc620002a562000f3e92620003ed565b825462001abd565b62001b0d62001b1591620013fa62001b0762001aff620009c5565b339062000be4565b62001a41565b60ff62001567565b62001b2160fb62000c1b565b62001b4362001b3b62001b3560fb62000c1b565b62001aad565b60fb62001ac8565b62001b6c8162001b6661010162001b5f620013fa60ff620012d1565b906200034c565b62001ac8565b62001b9462001b80620013fa60ff620012d1565b62001b8e83610103620003fd565b62001567565b62001bb1600162000f7661010562001b5f620013fa60ff620012d1565b62001bc1620013fa60ff620012d1565b906200164262001bf27fbe4819591c354e1f379e69e6baf327b08583095a2b571f6f1fb31e11ae201ad292620003ed565b926200048360405190565b62001c1862001c2191620013fa62001b0762001aff620009c5565b61010062001567565b62001c2d60fc62000c1b565b62001c4962001c4162001b3560fc62000c1b565b60fc62001ac8565b62001c668162001b6661010262001b5f620013fa610100620012d1565b62001c8962001c7b620013fa610100620012d1565b62001b8e83610104620003fd565b62001ca7600162000f7661010562001b5f620013fa610100620012d1565b62001cb8620013fa610100620012d1565b906200164262001bf27f6c03dfe403bc9e9e4f601b01c4d596e14d745ff5218f2d2f164069cb9961b25692620003ed565b919082039182116200181757565b1562001cff57565b60405162461bcd60e51b815260206004820152603b60248201527f43616e6e6f742072656d6f76652063757272656e74206e667420636f6c6c656360448201527a3a34b7b71034b6b83632b6b2b73a30ba34b7b7103b32b939b4b7b760291b6064820152608490fd5b620002e3620002a5620002a59290565b620002a59062001d68565b1562001d8b57565b60405162461bcd60e51b81526020600482015260186024820152772a3432b9329034b99037379039bab1b4103b32b939b4b7b760411b6044820152606490fd5b62001ddd62001b0762001aff620009c5565b62001e1162001e08620002a562001df560fb62000c1b565b62001e016001620003ed565b9062001ce9565b82141562001cf7565b62001e2962001e2382610103620003fd565b620012d1565b9062001e64600062001e5662001e4362000ef68362001d78565b62001e4e86620002e3565b141562001d83565b62000f76846101056200034c565b6200164262001bf27fe811de3b3c459fe10d2b37cd0dfff16f85107b15120c93cbda138258bcc9269f92620003ed565b1562001e9c57565b60405162461bcd60e51b815260206004820152603b60248201527f43616e6e6f742072656d6f76652063757272656e742053465420636f6c6c656360448201527a3a34b7b71034b6b83632b6b2b73a30ba34b7b7103b32b939b4b7b760291b6064820152608490fd5b62001f1762001b0762001aff620009c5565b62001f3862001f2f620002a562001df560fc62000c1b565b82141562001e94565b62001f4a62001e2382610104620003fd565b9062001f64600062001e5662001e4362000ef68362001d78565b6200164262001bf27fc3c883c8a6089520a375d922229fd16a64cc5f2bf54037d9d75987e58803353692620003ed565b620002a59060081c62000370565b620002a5905462001f94565b1562001fb657565b60405162461bcd60e51b815260206004820152602e60248201527f496e697469616c697a61626c653a20636f6e747261637420697320616c72656160448201526d191e481a5b9a5d1a585b1a5e995960921b6064820152608490fd5b62000370620002a5620002a59260ff1690565b9062000f36620002a562000f3e9262002012565b9061ff009060081b62000f19565b906200205a620002a562000f3e92151590565b825462002039565b620002a89062001852565b6020810192916200028c919062002062565b91620020d7906200209562000da1600062001fa2565b92838062002190575b80156200213e575b620020b19062001fae565b600194620020cb620020c38762001852565b600062002025565b846200212b57620021b4565b620020df5750565b620020ec60008062002047565b620021267f7f26b83ff96e1f2b6a682f133852f6798a09c465da95921460cefb3847402498916200211c60405190565b918291826200206d565b0390a1565b6200213886600062002047565b620021b4565b506200215862000da1620021523062000341565b6200179a565b8015620020a65750620020b162002170600062000bd8565b6200218762002180600162001852565b9160ff1690565b149050620020a6565b506200219d600062000bd8565b620021ad62002180600162001852565b106200209e565b620021eb9291620021d7620021e192620021cd620022a1565b62000c5d6200098e565b62000c5d62000b11565b62000c5d620009c5565b620021f5620022a1565b6200028c60016200220681620003ed565b90620022148260fb62001ac8565b5060fc62001ac8565b906200028c92916200207f565b156200223257565b60405162461bcd60e51b815260206004820152602b60248201527f496e697469616c697a61626c653a20636f6e7472616374206973206e6f74206960448201526a6e697469616c697a696e6760a81b6064820152608490fd5b6200028c6200229b600062001fa2565b6200222a565b6200028c6200228b565b15620022b357565b60405162461bcd60e51b815260206004820152601c60248201527b4163636f756e7420686173206e6f20757067726164657220726f6c6560201b6044820152606490fd5b506200028c6200230a62001aff62000b11565b620022ab565b156200231857565b60405162461bcd60e51b815260206004820152602c60248201527f54686520696d706c656d656e746174696f6e20636f6e7472616374206973206e60448201526b1bdd081cdc1958da599a595960a21b6064820152608490fd5b91620002a5926200238c6040820193600083019062000441565b602081840391015262000d44565b916001600160a01b0360089290920291821b911b62000f19565b9190620023c9620002a562000f3e9362000341565b9083546200239a565b80549190600160401b831015620007715782620023f99160016200028c95018155620006bd565b90620023b4565b62002410620013fa60ff620012d1565b90620024336000926200242b620010da62000ef68662001d78565b141562002310565b62002443620013fa60ff620012d1565b604051916105dc8301906001600160401b038211848310176200077157839262002476926105dc620025b3863962002372565b0391f08015620024f45760fd90620024a962001df5835b93620024a56200249d8562000341565b8096620023d2565b5490565b620024d57f7583cb3f31c1ce47ecadb1aea1b3e31bb2113e4689cb863d1f0b70c7607fee2291620003ed565b90620024e060405190565b80620024ed86826200044c565b0390a25090565b62001349565b6200250b620013fa610100620012d1565b90620025266000926200242b620010da62000ef68662001d78565b62002537620013fa610100620012d1565b604051916105dc8301906001600160401b03821184831017620007715783926200256a926105dc620025b3863962002372565b0391f08015620024f45760fe906200258662001df5836200248d565b620024d57f5232ad11fcced85b1d449aa648e396450a975bf217e3c7612bba2c1b7839578b91620003ed56fe608060405261001561000f61016a565b9061018c565b60405160cd61050f823960cd90f35b634e487b7160e01b600052604160045260246000fd5b90601f01601f191681019081106001600160401b0382111761005b57604052565b610024565b9061007461006d60405190565b928361003a565b565b6001600160a01b031690565b90565b61008e81610076565b0361009557565b600080fd5b9050519061007482610085565b6001600160401b03811161005b57602090601f01601f19160190565b0190565b60005b8381106100da5750506000910152565b81810151838201526020016100ca565b909291926100ff6100fa826100a7565b610060565b9381855260208501908284011161009557610074926100c7565b9080601f83011215610095578151610082926020016100ea565b9190916040818403126100955761014a838261009a565b60208201519093906001600160401b038111610095576100829201610119565b6101886105dc8038038061017d81610060565b928339810190610133565b9091565b610074916000916101a5565b6100826100826100829290565b916101af8361020e565b81516101c26101be6000610198565b9190565b119081156101e0575b506101d4575050565b6101dd916103b2565b50565b9050386101cb565b61008290610076906001600160a01b031682565b610082906101e8565b610082906101fc565b6102178161031b565b6102417fbc7cd75a20ee27fd9adebab32041f755214dbc6bffa90cc0225b39da2e5c2d3b91610205565b9061024b60405190565b600090a2565b6020808252602d908201527f455243313936373a206e657720696d706c656d656e746174696f6e206973206e60408201526c1bdd08184818dbdb9d1c9858dd609a1b606082015260800190565b156102a557565b60405162461bcd60e51b8152806102be60048201610251565b0390fd5b6100827f360894a13ba1a3210667c828492db98dca3e2076cc3735a920a3ca505d382bbc610198565b906102fb61008261031792610205565b82546001600160a01b0319166001600160a01b03919091161790565b9055565b6100749061033061032b82610343565b61029e565b600061033d6100826102c2565b016102eb565b3b6103516101be6000610198565b1190565b906103626100fa836100a7565b918252565b6103716027610355565b7f416464726573733a206c6f772d6c6576656c2064656c65676174652063616c6c6020820152660819985a5b195960ca1b604082015290565b610082610367565b610082916103be6103aa565b91610449565b60208082526026908201527f416464726573733a2064656c65676174652063616c6c20746f206e6f6e2d636f6040820152651b9d1c9858dd60d21b606082015260800190565b1561041157565b60405162461bcd60e51b8152806102be600482016103c4565b3d15610444576104393d610355565b903d6000602084013e565b606090565b60008091610082949361045a606090565b5061046c61046783610343565b61040a565b602081019051915af461047d61042a565b906104c8565b6104a46104ad6020936100c393610498815190565b80835293849260200190565b958691016100c7565b601f01601f191690565b602080825261008292910190610483565b909190156104d4575090565b81516104e36101be6000610198565b11156104f25750805190602001fd5b60405162461bcd60e51b81529081906102be90600483016104b756fe608060405236156093575b60106014565b6073565b601a6062565b90565b601a601a601a9290565b601a7f360894a13ba1a3210667c828492db98dca3e2076cc3735a920a3ca505d382bbc601d565b6001600160a01b031690565b601a9054604e565b601a6000606e601a6027565b01605a565b60008091368280378136915af43d6000803e15608e573d6000f35b3d6000fd5b600a56fea264697066735822122099bc1ae671798e844edd65f7fa8b65d0e95b1ba245f883d313d4a0dc717a0d2464736f6c6343000815003346756e6374696f6e206d7573742062652063616c6c6564207468726f75676820a26469706673582212208252232f12d9a359f8e39227e7807b1c86102c4c2bc2d2d7b7000944ac3f645c64736f6c63430008150033",
  "linkReferences": {},
  "deployedLinkReferences": {}
}