{
  "_format": "hh-sol-artifact-1",
  "contractName": "NftCollection",
  "sourceName": "contracts/NftCollection.sol",
  "abi": [
    {
      "inputs": [],
      "stateMutability": "nonpayable",
      "type": "constructor"
    },
    {
      "anonymous": false,
      "inputs": [
        {
          "indexed": false,
          "internalType": "address",
          "name": "previousAdmin",
          "type": "address"
        },
        {
          "indexed": false,
          "internalType": "address",
          "name": "newAdmin",
          "type": "address"
        }
      ],
      "name": "AdminChanged",
      "type": "event"
    },
    {
      "anonymous": false,
      "inputs": [
        {
          "indexed": true,
          "internalType": "address",
          "name": "owner",
          "type": "address"
        },
        {
          "indexed": true,
          "internalType": "address",
          "name": "approved",
          "type": "address"
        },
        {
          "indexed": true,
          "internalType": "uint256",
          "name": "tokenId",
          "type": "uint256"
        }
      ],
      "name": "Approval",
      "type": "event"
    },
    {
      "anonymous": false,
      "inputs": [
        {
          "indexed": true,
          "internalType": "address",
          "name": "owner",
          "type": "address"
        },
        {
          "indexed": true,
          "internalType": "address",
          "name": "operator",
          "type": "address"
        },
        {
          "indexed": false,
          "internalType": "bool",
          "name": "approved",
          "type": "bool"
        }
      ],
      "name": "ApprovalForAll",
      "type": "event"
    },
    {
      "anonymous": false,
      "inputs": [
        {
          "indexed": true,
          "internalType": "address",
          "name": "beacon",
          "type": "address"
        }
      ],
      "name": "BeaconUpgraded",
      "type": "event"
    },
    {
      "anonymous": false,
      "inputs": [
        {
          "indexed": false,
          "internalType": "uint8",
          "name": "version",
          "type": "uint8"
        }
      ],
      "name": "Initialized",
      "type": "event"
    },
    {
      "anonymous": false,
      "inputs": [
        {
          "indexed": false,
          "internalType": "string",
          "name": "_baseUri",
          "type": "string"
        }
      ],
      "name": "NewBaseURI",
      "type": "event"
    },
    {
      "anonymous": false,
      "inputs": [
        {
          "indexed": false,
          "internalType": "string",
          "name": "_baseUri",
          "type": "string"
        }
      ],
      "name": "PermanentBaseURI",
      "type": "event"
    },
    {
      "anonymous": false,
      "inputs": [
        {
          "indexed": true,
          "internalType": "bytes32",
          "name": "role",
          "type": "bytes32"
        },
        {
          "indexed": true,
          "internalType": "bytes32",
          "name": "previousAdminRole",
          "type": "bytes32"
        },
        {
          "indexed": true,
          "internalType": "bytes32",
          "name": "newAdminRole",
          "type": "bytes32"
        }
      ],
      "name": "RoleAdminChanged",
      "type": "event"
    },
    {
      "anonymous": false,
      "inputs": [
        {
          "indexed": true,
          "internalType": "bytes32",
          "name": "role",
          "type": "bytes32"
        },
        {
          "indexed": true,
          "internalType": "address",
          "name": "account",
          "type": "address"
        },
        {
          "indexed": true,
          "internalType": "address",
          "name": "sender",
          "type": "address"
        }
      ],
      "name": "RoleGranted",
      "type": "event"
    },
    {
      "anonymous": false,
      "inputs": [
        {
          "indexed": true,
          "internalType": "bytes32",
          "name": "role",
          "type": "bytes32"
        },
        {
          "indexed": true,
          "internalType": "address",
          "name": "account",
          "type": "address"
        },
        {
          "indexed": true,
          "internalType": "address",
          "name": "sender",
          "type": "address"
        }
      ],
      "name": "RoleRevoked",
      "type": "event"
    },
    {
      "anonymous": false,
      "inputs": [
        {
          "indexed": true,
          "internalType": "address",
          "name": "from",
          "type": "address"
        },
        {
          "indexed": true,
          "internalType": "address",
          "name": "to",
          "type": "address"
        },
        {
          "indexed": true,
          "internalType": "uint256",
          "name": "tokenId",
          "type": "uint256"
        }
      ],
      "name": "Transfer",
      "type": "event"
    },
    {
      "anonymous": false,
      "inputs": [
        {
          "indexed": true,
          "internalType": "address",
          "name": "implementation",
          "type": "address"
        }
      ],
      "name": "Upgraded",
      "type": "event"
    },
    {
      "inputs": [],
      "name": "DEFAULT_ADMIN_ROLE",
      "outputs": [
        {
          "internalType": "bytes32",
          "name": "",
          "type": "bytes32"
        }
      ],
      "stateMutability": "view",
      "type": "function"
    },
    {
      "inputs": [
        {
          "internalType": "address",
          "name": "to",
          "type": "address"
        },
        {
          "internalType": "uint256",
          "name": "tokenId",
          "type": "uint256"
        }
      ],
      "name": "approve",
      "outputs": [],
      "stateMutability": "nonpayable",
      "type": "function"
    },
    {
      "inputs": [
        {
          "internalType": "address",
          "name": "owner",
          "type": "address"
        }
      ],
      "name": "balanceOf",
      "outputs": [
        {
          "internalType": "uint256",
          "name": "",
          "type": "uint256"
        }
      ],
      "stateMutability": "view",
      "type": "function"
    },
    {
      "inputs": [],
      "name": "baseUri",
      "outputs": [
        {
          "internalType": "string",
          "name": "",
          "type": "string"
        }
      ],
      "stateMutability": "view",
      "type": "function"
    },
    {
      "inputs": [],
      "name": "beneficiary",
      "outputs": [
        {
          "internalType": "address",
          "name": "",
          "type": "address"
        }
      ],
      "stateMutability": "view",
      "type": "function"
    },
    {
      "inputs": [
        {
          "components": [
            {
              "internalType": "address",
              "name": "from",
              "type": "address"
            },
            {
              "internalType": "uint256",
              "name": "tokenId",
              "type": "uint256"
            },
            {
              "internalType": "uint256",
              "name": "nonce",
              "type": "uint256"
            },
            {
              "internalType": "bytes",
              "name": "signature",
              "type": "bytes"
            }
          ],
          "internalType": "struct NftCollection.SignedMint",
          "name": "sigMint",
          "type": "tuple"
        }
      ],
      "name": "cancelSignature",
      "outputs": [],
      "stateMutability": "nonpayable",
      "type": "function"
    },
    {
      "inputs": [
        {
          "internalType": "bytes",
          "name": "",
          "type": "bytes"
        }
      ],
      "name": "cancelledSignatures",
      "outputs": [
        {
          "internalType": "bool",
          "name": "",
          "type": "bool"
        }
      ],
      "stateMutability": "view",
      "type": "function"
    },
    {
      "inputs": [],
      "name": "collectionCreator",
      "outputs": [
        {
          "internalType": "address",
          "name": "",
          "type": "address"
        }
      ],
      "stateMutability": "view",
      "type": "function"
    },
    {
      "inputs": [],
      "name": "contractUri",
      "outputs": [
        {
          "internalType": "string",
          "name": "",
          "type": "string"
        }
      ],
      "stateMutability": "view",
      "type": "function"
    },
    {
      "inputs": [],
      "name": "freeze",
      "outputs": [],
      "stateMutability": "nonpayable",
      "type": "function"
    },
    {
      "inputs": [],
      "name": "frozen",
      "outputs": [
        {
          "internalType": "bool",
          "name": "",
          "type": "bool"
        }
      ],
      "stateMutability": "view",
      "type": "function"
    },
    {
      "inputs": [
        {
          "internalType": "uint256",
          "name": "tokenId",
          "type": "uint256"
        }
      ],
      "name": "getApproved",
      "outputs": [
        {
          "internalType": "address",
          "name": "",
          "type": "address"
        }
      ],
      "stateMutability": "view",
      "type": "function"
    },
    {
      "inputs": [
        {
          "internalType": "bytes32",
          "name": "role",
          "type": "bytes32"
        }
      ],
      "name": "getRoleAdmin",
      "outputs": [
        {
          "internalType": "bytes32",
          "name": "",
          "type": "bytes32"
        }
      ],
      "stateMutability": "view",
      "type": "function"
    },
    {
      "inputs": [
        {
          "internalType": "bytes32",
          "name": "role",
          "type": "bytes32"
        },
        {
          "internalType": "address",
          "name": "account",
          "type": "address"
        }
      ],
      "name": "grantRole",
      "outputs": [],
      "stateMutability": "nonpayable",
      "type": "function"
    },
    {
      "inputs": [
        {
          "internalType": "bytes32",
          "name": "role",
          "type": "bytes32"
        },
        {
          "internalType": "address",
          "name": "account",
          "type": "address"
        }
      ],
      "name": "hasRole",
      "outputs": [
        {
          "internalType": "bool",
          "name": "",
          "type": "bool"
        }
      ],
      "stateMutability": "view",
      "type": "function"
    },
    {
      "inputs": [],
      "name": "implementationProvider",
      "outputs": [
        {
          "internalType": "address",
          "name": "",
          "type": "address"
        }
      ],
      "stateMutability": "view",
      "type": "function"
    },
    {
      "inputs": [
        {
          "internalType": "address",
          "name": "_collectionCreator",
          "type": "address"
        },
        {
          "internalType": "string",
          "name": "_name",
          "type": "string"
        },
        {
          "internalType": "string",
          "name": "_symbol",
          "type": "string"
        },
        {
          "internalType": "string",
          "name": "_baseUri",
          "type": "string"
        },
        {
          "internalType": "string",
          "name": "_contractUri",
          "type": "string"
        },
        {
          "internalType": "address",
          "name": "_beneficiary",
          "type": "address"
        },
        {
          "internalType": "uint256",
          "name": "_royaltyPercentNominator",
          "type": "uint256"
        },
        {
          "internalType": "uint256",
          "name": "_royaltyPercentDenominator",
          "type": "uint256"
        }
      ],
      "name": "initialize",
      "outputs": [],
      "stateMutability": "nonpayable",
      "type": "function"
    },
    {
      "inputs": [
        {
          "internalType": "address",
          "name": "owner",
          "type": "address"
        },
        {
          "internalType": "address",
          "name": "operator",
          "type": "address"
        }
      ],
      "name": "isApprovedForAll",
      "outputs": [
        {
          "internalType": "bool",
          "name": "",
          "type": "bool"
        }
      ],
      "stateMutability": "view",
      "type": "function"
    },
    {
      "inputs": [
        {
          "internalType": "uint256",
          "name": "_tokenId",
          "type": "uint256"
        }
      ],
      "name": "mint",
      "outputs": [
        {
          "internalType": "uint256",
          "name": "",
          "type": "uint256"
        }
      ],
      "stateMutability": "nonpayable",
      "type": "function"
    },
    {
      "inputs": [
        {
          "components": [
            {
              "internalType": "address",
              "name": "from",
              "type": "address"
            },
            {
              "internalType": "uint256",
              "name": "tokenId",
              "type": "uint256"
            },
            {
              "internalType": "uint256",
              "name": "nonce",
              "type": "uint256"
            },
            {
              "internalType": "bytes",
              "name": "signature",
              "type": "bytes"
            }
          ],
          "internalType": "struct NftCollection.SignedMint",
          "name": "sigMint",
          "type": "tuple"
        }
      ],
      "name": "mintWithSignature",
      "outputs": [],
      "stateMutability": "nonpayable",
      "type": "function"
    },
    {
      "inputs": [
        {
          "internalType": "address",
          "name": "from",
          "type": "address"
        },
        {
          "internalType": "address",
          "name": "to",
          "type": "address"
        },
        {
          "internalType": "uint256",
          "name": "tokenId",
          "type": "uint256"
        },
        {
          "internalType": "bytes",
          "name": "data",
          "type": "bytes"
        }
      ],
      "name": "mintWithSignatureAndSafeTransferFrom",
      "outputs": [],
      "stateMutability": "nonpayable",
      "type": "function"
    },
    {
      "inputs": [],
      "name": "name",
      "outputs": [
        {
          "internalType": "string",
          "name": "",
          "type": "string"
        }
      ],
      "stateMutability": "view",
      "type": "function"
    },
    {
      "inputs": [
        {
          "internalType": "uint256",
          "name": "tokenId",
          "type": "uint256"
        }
      ],
      "name": "ownerOf",
      "outputs": [
        {
          "internalType": "address",
          "name": "",
          "type": "address"
        }
      ],
      "stateMutability": "view",
      "type": "function"
    },
    {
      "inputs": [],
      "name": "proxiableUUID",
      "outputs": [
        {
          "internalType": "bytes32",
          "name": "",
          "type": "bytes32"
        }
      ],
      "stateMutability": "view",
      "type": "function"
    },
    {
      "inputs": [
        {
          "internalType": "bytes32",
          "name": "role",
          "type": "bytes32"
        },
        {
          "internalType": "address",
          "name": "account",
          "type": "address"
        }
      ],
      "name": "renounceRole",
      "outputs": [],
      "stateMutability": "nonpayable",
      "type": "function"
    },
    {
      "inputs": [
        {
          "internalType": "bytes32",
          "name": "role",
          "type": "bytes32"
        },
        {
          "internalType": "address",
          "name": "account",
          "type": "address"
        }
      ],
      "name": "revokeRole",
      "outputs": [],
      "stateMutability": "nonpayable",
      "type": "function"
    },
    {
      "inputs": [
        {
          "internalType": "uint256",
          "name": "_tokenId",
          "type": "uint256"
        },
        {
          "internalType": "uint256",
          "name": "_salePrice",
          "type": "uint256"
        }
      ],
      "name": "royaltyInfo",
      "outputs": [
        {
          "internalType": "address",
          "name": "",
          "type": "address"
        },
        {
          "internalType": "uint256",
          "name": "",
          "type": "uint256"
        }
      ],
      "stateMutability": "view",
      "type": "function"
    },
    {
      "inputs": [],
      "name": "royaltyPercentDenominator",
      "outputs": [
        {
          "internalType": "uint256",
          "name": "",
          "type": "uint256"
        }
      ],
      "stateMutability": "view",
      "type": "function"
    },
    {
      "inputs": [],
      "name": "royaltyPercentNominator",
      "outputs": [
        {
          "internalType": "uint256",
          "name": "",
          "type": "uint256"
        }
      ],
      "stateMutability": "view",
      "type": "function"
    },
    {
      "inputs": [
        {
          "internalType": "address",
          "name": "from",
          "type": "address"
        },
        {
          "internalType": "address",
          "name": "to",
          "type": "address"
        },
        {
          "internalType": "uint256",
          "name": "tokenId",
          "type": "uint256"
        }
      ],
      "name": "safeTransferFrom",
      "outputs": [],
      "stateMutability": "nonpayable",
      "type": "function"
    },
    {
      "inputs": [
        {
          "internalType": "address",
          "name": "from",
          "type": "address"
        },
        {
          "internalType": "address",
          "name": "to",
          "type": "address"
        },
        {
          "internalType": "uint256",
          "name": "tokenId",
          "type": "uint256"
        },
        {
          "internalType": "bytes",
          "name": "data",
          "type": "bytes"
        }
      ],
      "name": "safeTransferFrom",
      "outputs": [],
      "stateMutability": "nonpayable",
      "type": "function"
    },
    {
      "inputs": [
        {
          "internalType": "address",
          "name": "operator",
          "type": "address"
        },
        {
          "internalType": "bool",
          "name": "approved",
          "type": "bool"
        }
      ],
      "name": "setApprovalForAll",
      "outputs": [],
      "stateMutability": "nonpayable",
      "type": "function"
    },
    {
      "inputs": [
        {
          "internalType": "string",
          "name": "_baseUri",
          "type": "string"
        }
      ],
      "name": "setBaseURI",
      "outputs": [],
      "stateMutability": "nonpayable",
      "type": "function"
    },
    {
      "inputs": [
        {
          "internalType": "address",
          "name": "_beneficiary",
          "type": "address"
        }
      ],
      "name": "setBeneficiary",
      "outputs": [],
      "stateMutability": "nonpayable",
      "type": "function"
    },
    {
      "inputs": [
        {
          "internalType": "string",
          "name": "_contractUri",
          "type": "string"
        }
      ],
      "name": "setContractURI",
      "outputs": [],
      "stateMutability": "nonpayable",
      "type": "function"
    },
    {
      "inputs": [
        {
          "internalType": "uint256",
          "name": "_royaltyPercentNominator",
          "type": "uint256"
        },
        {
          "internalType": "uint256",
          "name": "_royaltyPercentDenominator",
          "type": "uint256"
        }
      ],
      "name": "setRoyalties",
      "outputs": [],
      "stateMutability": "nonpayable",
      "type": "function"
    },
    {
      "inputs": [
        {
          "internalType": "bytes4",
          "name": "interfaceId",
          "type": "bytes4"
        }
      ],
      "name": "supportsInterface",
      "outputs": [
        {
          "internalType": "bool",
          "name": "",
          "type": "bool"
        }
      ],
      "stateMutability": "view",
      "type": "function"
    },
    {
      "inputs": [],
      "name": "symbol",
      "outputs": [
        {
          "internalType": "string",
          "name": "",
          "type": "string"
        }
      ],
      "stateMutability": "view",
      "type": "function"
    },
    {
      "inputs": [
        {
          "internalType": "uint256",
          "name": "index",
          "type": "uint256"
        }
      ],
      "name": "tokenByIndex",
      "outputs": [
        {
          "internalType": "uint256",
          "name": "",
          "type": "uint256"
        }
      ],
      "stateMutability": "view",
      "type": "function"
    },
    {
      "inputs": [
        {
          "internalType": "address",
          "name": "owner",
          "type": "address"
        },
        {
          "internalType": "uint256",
          "name": "index",
          "type": "uint256"
        }
      ],
      "name": "tokenOfOwnerByIndex",
      "outputs": [
        {
          "internalType": "uint256",
          "name": "",
          "type": "uint256"
        }
      ],
      "stateMutability": "view",
      "type": "function"
    },
    {
      "inputs": [
        {
          "internalType": "uint256",
          "name": "tokenId",
          "type": "uint256"
        }
      ],
      "name": "tokenURI",
      "outputs": [
        {
          "internalType": "string",
          "name": "",
          "type": "string"
        }
      ],
      "stateMutability": "view",
      "type": "function"
    },
    {
      "inputs": [],
      "name": "totalSupply",
      "outputs": [
        {
          "internalType": "uint256",
          "name": "",
          "type": "uint256"
        }
      ],
      "stateMutability": "view",
      "type": "function"
    },
    {
      "inputs": [
        {
          "internalType": "address",
          "name": "from",
          "type": "address"
        },
        {
          "internalType": "address",
          "name": "to",
          "type": "address"
        },
        {
          "internalType": "uint256",
          "name": "tokenId",
          "type": "uint256"
        }
      ],
      "name": "transferFrom",
      "outputs": [],
      "stateMutability": "nonpayable",
      "type": "function"
    },
    {
      "inputs": [
        {
          "internalType": "address",
          "name": "newImplementation",
          "type": "address"
        }
      ],
      "name": "upgradeTo",
      "outputs": [],
      "stateMutability": "nonpayable",
      "type": "function"
    },
    {
      "inputs": [
        {
          "internalType": "address",
          "name": "newImplementation",
          "type": "address"
        },
        {
          "internalType": "bytes",
          "name": "data",
          "type": "bytes"
        }
      ],
      "name": "upgradeToAndCall",
      "outputs": [],
      "stateMutability": "payable",
      "type": "function"
    },
    {
      "inputs": [],
      "name": "version",
      "outputs": [
        {
          "internalType": "uint256",
          "name": "",
          "type": "uint256"
        }
      ],
      "stateMutability": "view",
      "type": "function"
    }
  ],
  "bytecode": "0x60a0604052346200003657620000146200003b565b60405161425662000217823960805181818161139a01526114be015261425690f35b600080fd5b6200004562000051565b6200004f62000189565b565b6200004f6200004f6200004f6200009e565b62000079906200007c906001600160a01b031682565b90565b6001600160a01b031690565b620000799062000063565b620000799062000088565b620000a93062000093565b608052565b620000799060081c5b60ff1690565b620000799054620000ae565b60208082526027908201527f496e697469616c697a61626c653a20636f6e747261637420697320696e697469604082015266616c697a696e6760c81b606082015260800190565b156200011857565b60405162461bcd60e51b8152806200013360048201620000c9565b0390fd5b6200007990620000b7565b62000079905462000137565b620000b762000079620000799260ff1690565b90620001756200007962000185926200014e565b825460ff191660ff919091161790565b9055565b620001a7620001a16200019d6000620000bd565b1590565b62000110565b620001b3600062000142565b60ff908190811610620001c35750565b620001d081600062000161565b620002117f7f26b83ff96e1f2b6a682f133852f6798a09c465da95921460cefb3847402498916200020060405190565b9182918260ff909116815260200190565b0390a156fe6080604052600436101561001257600080fd5b60003560e01c806301ffc9a7146102f2578063034e7861146102ed578063054f7d9c146102e857806306fdde03146102e3578063081812fc146102de578063095ea7b3146102d957806318160ddd146102d45780631c31f710146102cf5780631ca0c9d3146102ca57806323b872dd146102c5578063248a9ca3146102c05780632a55205a146102bb5780632f2ff15d146102b65780632f745c59146102b157806336568abe146102ac5780633659cfe6146102a757806338af3eed146102a257806342842e0e1461029d5780634c5ada95146102985780634f1ef286146102935780634f6ccce71461028e57806352d1902d1461028957806354fd4d501461028457806355f804b31461027f57806358def6be1461027a57806362a5af3b146102755780636352211e1461027057806370a082311461026b57806373fb88fa1461026657806391d1485414610261578063938e3d7b1461025c57806395d89b41146102575780639abc832014610252578063a0712d681461024d578063a217fddf14610248578063a22cb46514610243578063b88d4fde1461023e578063b91a468014610239578063c0e24d5e14610234578063c59dfee01461022f578063c87b56dd1461022a578063d11dc1f014610225578063d547741f14610220578063e985e9c51461021b578063f926d309146102165763fa06fe860361031457610f5d565b610f35565b610f0c565b610ed9565b610eb7565b610ddd565b610dc4565b610da9565b610d81565b610d58565b610d3f565b610cec565b610cbf565b610ca4565b610b61565b610b49565b610b2d565b610b15565b610afa565b610adf565b610ac7565b610aac565b610a71565b610a56565b610a1c565b610a01565b6109ed565b6109a0565b6108f2565b6108d7565b610893565b61087a565b61085e565b610845565b6107f3565b61079f565b610786565b61073a565b6106d3565b610693565b610675565b610615565b6105a2565b610542565b61050f565b610343565b6001600160e01b03191690565b61030d816102f7565b0361031457565b600080fd5b9050359061032682610304565b565b906020828203126103145761033c91610319565b90565b9052565b346103145761037161035e610359366004610328565b6140f8565b6040515b91829182901515815260200190565b0390f35b634e487b7160e01b600052604160045260246000fd5b90601f01601f191681019081106001600160401b038211176103ac57604052565b610375565b906103266103be60405190565b928361038b565b6001600160401b0381116103ac57602090601f01601f19160190565b0190565b90826000939282370152565b90929192610406610401826103c5565b6103b1565b9381855260208501908284011161031457610326926103e5565b9080601f830112156103145781602061033c933591016103f1565b906020828203126103145781356001600160401b0381116103145761033c9201610420565b60005b8381106104735750506000910152565b8181015183820152602001610463565b6103e161049b92602092610495815190565b94859290565b93849101610460565b6104b46103e19160209493610483565b918252565b6104ce6104c560405190565b928392836104a4565b03902090565b61033c916104b9565b61033c916008021c5b60ff1690565b9061033c91546104dd565b61033c9061050a6101cd916000926104d4565b6104ec565b346103145761037161035e61052536600461043b565b6104f7565b600091031261031457565b61033c60006101cc6104ec565b346103145761055236600461052a565b61037161035e610535565b61057e6105876020936103e193610572815190565b80835293849260200190565b95869101610460565b601f01601f191690565b602080825261033c9291019061055d565b34610314576105b236600461052a565b6103716105bd611b21565b60405191829182610591565b8061030d565b90503590610326826105c9565b906020828203126103145761033c916105cf565b6001600160a01b031690565b61033f906105f0565b60208101929161032691906105fc565b346103145761037161063061062b3660046105dc565b611ce0565b60405191829182610605565b61030d816105f0565b905035906103268261063c565b91906040838203126103145761033c9061066c8185610645565b936020016105cf565b346103145761068e610688366004610652565b90611c7a565b604051005b34610314576106a336600461052a565b6103716106af60995490565b6040519182918290815260200190565b906020828203126103145761033c91610645565b346103145761068e6106e63660046106bf565b613225565b90608082820312610314576107008183610645565b9261070e8260208501610645565b9261071c83604083016105cf565b9260608201356001600160401b0381116103145761033c9201610420565b346103145761068e61074d3660046106eb565b92919091613dd2565b90916060828403126103145761033c61076f8484610645565b9361077d8160208601610645565b936040016105cf565b346103145761068e610799366004610756565b91611d8e565b34610314576103716106af6107b53660046105dc565b611005565b91906040838203126103145761033c9061066c81856105cf565b9160206103269294936107ef604082019660008301906105fc565b0152565b346103145761080c6108063660046107ba565b9061301c565b9061037161081960405190565b928392836107d4565b91906040838203126103145761033c9061083c81856105cf565b93602001610645565b346103145761068e610858366004610822565b9061103c565b34610314576103716106af610874366004610652565b906123a6565b346103145761068e61088d366004610822565b906111f0565b346103145761068e6108a63660046106bf565b61156c565b61033c916008021c6001600160a01b031690565b9061033c91546108ab565b61033c60006101c96108bf565b34610314576108e736600461052a565b6103716106306108ca565b346103145761068e610905366004610756565b91611dab565b9190916080818403126103145761092260806103b1565b92600061092f8284610645565b908501526020610941828285016105cf565b908501526040610953828285016105cf565b9085015260608201356001600160401b038111610314576109749201610420565b6060830152565b906020828203126103145781356001600160401b0381116103145761033c920161090b565b346103145761068e6109b336600461097b565b613516565b919091604081840312610314576109cf8382610645565b9260208201356001600160401b0381116103145761033c9201610420565b61068e6109fb3660046109b8565b906119d1565b34610314576103716106af610a173660046105dc565b61247b565b3461031457610a2c36600461052a565b6103716106af611401565b61033c61033c61033c9290565b61033c6001610a37565b61033c610a44565b3461031457610a6636600461052a565b6103716106af610a4e565b346103145761068e610a8436600461043b565b6131e1565b61033c916008021c81565b9061033c9154610a89565b61033c60006101ca610a94565b3461031457610abc36600461052a565b6103716106af610a9f565b3461031457610ad736600461052a565b61068e6133f7565b3461031457610371610630610af53660046105dc565b611adc565b34610314576103716106af610b103660046106bf565b611a4f565b346103145761068e610b2836600461097b565b613b6e565b346103145761037161035e610b43366004610822565b90610fcb565b346103145761068e610b5c36600461043b565b613213565b3461031457610b7136600461052a565b6103716105bd611b2b565b634e487b7160e01b600052600060045260246000fd5b634e487b7160e01b600052602260045260246000fd5b9060016002830492168015610bc8575b6020831014610bc357565b610b92565b91607f1691610bb8565b80546000939291610bef610be583610ba8565b8085529360200190565b9160018116908115610c415750600114610c0857505050565b610c1b9192939450600052602060002090565b916000925b818410610c2d5750500190565b805484840152602090930192600101610c20565b92949550505060ff1916825215156020020190565b9061033c91610bd2565b90610326610c7a92610c7160405190565b93848092610c56565b038361038b565b90600010610c925761033c90610c60565b610b7c565b61033c60006101c7610c81565b3461031457610cb436600461052a565b6103716105bd610c97565b34610314576103716106af610cd53660046105dc565b613265565b61033c6000610a37565b61033c610cda565b3461031457610cfc36600461052a565b6103716106af610ce4565b80151561030d565b9050359061032682610d07565b91906040838203126103145761033c90610d368185610645565b93602001610d0f565b346103145761068e610d52366004610d1c565b90611d00565b346103145761068e610d6b3660046106eb565b92919091611dbb565b61033c60006101c66108bf565b3461031457610d9136600461052a565b610371610630610d74565b61033c60006101c8610c81565b3461031457610db936600461052a565b6103716105bd610d9c565b346103145761068e610dd73660046107ba565b90613237565b34610314576103716105bd610df33660046105dc565b611b55565b91906101008382031261031457610e0f8184610645565b9260208101356001600160401b0381116103145782610e2f918301610420565b9260408201356001600160401b0381116103145783610e4f918401610420565b9260608301356001600160401b0381116103145781610e6f918501610420565b9260808101356001600160401b0381116103145782610e8f918301610420565b9261033c610ea08460a08501610645565b93610eae8160c086016105cf565b9360e0016105cf565b346103145761068e610eca366004610df8565b96959095949194939293612da7565b346103145761068e610eec366004610822565b90611182565b91906040838203126103145761033c9061083c8185610645565b346103145761037161035e610f22366004610ef2565b90611d0b565b61033c60006101cb610a94565b3461031457610f4536600461052a565b6103716106af610f28565b61033c60006101c56108bf565b3461031457610f6d36600461052a565b610371610630610f50565b905b600052602052604060002090565b61033c906105f0906001600160a01b031682565b61033c90610f88565b61033c90610f9c565b90610f7a90610fa5565b61033c906104e6565b61033c9054610fb8565b61033c916000610fe9610fef93610fe0600090565b50610161610f78565b01610fae565b610fc1565b61033c9081565b61033c9054610ff4565b600161101661033c92610fe0600090565b01610ffb565b906103269161103261102d82611005565b611046565b9061032691611244565b906103269161101c565b6103269033906110c1565b61033c9081906001600160a01b031681565b61033c90610a37565b6110a461033c939261109e61109e9376020b1b1b2b9b9a1b7b73a3937b61d1030b1b1b7bab73a1604d1b815260170190565b90610483565b7001034b99036b4b9b9b4b733903937b6329607d1b815260110190565b906110d36110cf8284610fcb565b1590565b6110db575050565b6111639161033c6111166111106110f68561114a9650610f9c565b61110a611104601492611051565b91610a37565b90612704565b92611063565b61112560209161110a83610a37565b9261113e61113260405190565b9485938401928361106c565b9081038252038261038b565b6040515b62461bcd60e51b815291829160048301610591565b0390fd5b906103269161117861102d82611005565b90610326916112bc565b9061032691611167565b1561119357565b60405162461bcd60e51b815260206004820152602f60248201527f416363657373436f6e74726f6c3a2063616e206f6e6c792072656e6f756e636560448201526e103937b632b9903337b91039b2b63360891b6064820152608490fd5b6103269190611215611206336105f0565b6105f0565b61120f846105f0565b1461118c565b6112bc565b9060ff905b9181191691161790565b9061123961033c61124092151590565b825461121a565b9055565b906112526110cf8284610fcb565b61125a575050565b6112766001611271836000610fe987610161610f78565b611229565b33906112ac6112a66112a67f2f8788117e7eff1d82e926ec794901d17c78024a50270940304540a733656f0d9590565b92610fa5565b926112b660405190565b600090a4565b906112c78183610fcb565b6112cf575050565b6112e560006112718382610fe987610161610f78565b33906112ac6112a66112a67ff6391f5c32d9c69d2a47ea670b442974b53935d1edc7fd64eb21e047a839171b9590565b1561131c57565b60405162461bcd60e51b815260206004820152603860248201527f555550535570677261646561626c653a206d757374206e6f742062652063616c6044820152771b1959081d1a1c9bdd59da0819195b1959d85d1958d85b1b60421b6064820152608490fd5b61033c906113ca61139230610fa5565b6113c46113be7f00000000000000000000000000000000000000000000000000000000000000006105f0565b916105f0565b14611315565b6113f8565b61033c7f360894a13ba1a3210667c828492db98dca3e2076cc3735a920a3ca505d382bbc610a37565b5061033c6113cf565b61033c6000611382565b1561141257565b60405162461bcd60e51b815260206004820152602c60248201526000805160206141e183398151915260448201526b19195b1959d85d1958d85b1b60a21b6064820152608490fd5b1561146157565b60405162461bcd60e51b815260206004820152602c60248201526000805160206141e183398151915260448201526b6163746976652070726f787960a01b6064820152608490fd5b6103269061150b6114b930610fa5565b6114f17f0000000000000000000000000000000000000000000000000000000000000000916114ea6113be846105f0565b141561140b565b6115056113be6114ff611588565b926105f0565b1461145a565b611545565b906104b4610401836103c5565b369037565b9061032661153861153284611510565b936103c5565b601f19016020840161151d565b61032690611552816130fb565b60009061156661156183610a37565b611522565b90611652565b610326906114a9565b61033c906105f0565b61033c9054611575565b61033c600061159861033c6113cf565b0161157e565b61033c7f4910fdfa16fed3260ed0e7147f7cc6da11a60208b5b9406d12a635614ffd9143610a37565b90505190610326826105c9565b906020828203126103145761033c916115c7565b6040513d6000823e3d90fd5b156115fb57565b60405162461bcd60e51b815260206004820152602960248201527f45524331393637557067726164653a20756e737570706f727465642070726f786044820152681a58589b195555525160ba1b6064820152608490fd5b919061166a600061166461033c61159e565b01610fc1565b1561167b57506103269190506117fb565b6116a9602061169161168c86610fa5565b610fa5565b6352d1902d906116a060405190565b93849260e01b90565b825260049082905afa60009181611743575b5061171d575060405162461bcd60e51b815260206004820152602e60248201527f45524331393637557067726164653a206e657720696d706c656d656e7461746960448201526d6f6e206973206e6f74205555505360901b6064820152608490fd5b610326939061173e9061173861173461033c6113cf565b9190565b146115f4565b611823565b61176591925060203d811161176c575b61175d818361038b565b8101906115d4565b90386116bb565b503d611753565b1561177a57565b60405162461bcd60e51b815260206004820152602d60248201527f455243313936373a206e657720696d706c656d656e746174696f6e206973206e60448201526c1bdd08184818dbdb9d1c9858dd609a1b6064820152608490fd5b906001600160a01b039061121f565b906117f461033c61124092610fa5565b82546117d5565b6103269061181061180b826124ae565b611773565b600061181d61033c6113cf565b016117e4565b9161182d83611862565b815161183c6117346000610a37565b1190811561185a575b5061184e575050565b6118579161196a565b50565b905038611845565b61186b816117fb565b6118957fbc7cd75a20ee27fd9adebab32041f755214dbc6bffa90cc0225b39da2e5c2d3b91610fa5565b9061189f60405190565b600090a2565b156118ac57565b60405162461bcd60e51b815260206004820152602660248201527f416464726573733a2064656c65676174652063616c6c20746f206e6f6e2d636f6044820152651b9d1c9858dd60d21b6064820152608490fd5b3d1561191a5761190f3d611510565b903d6000602084013e565b606090565b6119296027611510565b7f416464726573733a206c6f772d6c6576656c2064656c65676174652063616c6c6020820152660819985a5b195960ca1b604082015290565b61033c61191f565b6000809161033c9361197a606090565b5061198c611987836124ae565b6118a5565b602081019051915af461199d611900565b6119a5611962565b916124c0565b90610326916119bc6114b930610fa5565b610326916119c9826130fb565b600191611652565b90610326916119ab565b6105f061033c61033c9290565b61033c906119db565b156119f857565b60405162461bcd60e51b815260206004820152602960248201527f4552433732313a2061646472657373207a65726f206973206e6f7420612076616044820152683634b21037bbb732b960b91b6064820152608490fd5b611a8661033c91611a5e600090565b50611a7f611a6f61120160006119e8565b611a78836105f0565b14156119f1565b6068610fae565b610ffb565b90610f7a90610a37565b15611a9c57565b60405162461bcd60e51b8152602060048201526018602482015277115490cdcc8c4e881a5b9d985b1a59081d1bdad95b88125160421b6044820152606490fd5b611af3611af891611aeb600090565b506067611a8b565b61157e565b61033c611b0861120160006119e8565b611b11836105f0565b1415611a95565b61033c90610c60565b61033c6065611b18565b61033c6066611b18565b61033c6000611510565b61033c611b35565b61109e9061033c9392610483565b611b5e816121b8565b611b66612fcb565b8051611b756117346000610a37565b1115611ba85761033c81611b9061033c9461113e945061259b565b90611b9a60405190565b938492602084019283611b47565b505061033c611b3f565b15611bb957565b60405162461bcd60e51b815260206004820152602160248201527f4552433732313a20617070726f76616c20746f2063757272656e74206f776e656044820152603960f91b6064820152608490fd5b15611c0f57565b60405162461bcd60e51b815260206004820152603e60248201527f4552433732313a20617070726f76652063616c6c6572206973206e6f7420746f60448201527f6b656e206f776e6572206e6f7220617070726f76656420666f7220616c6c00006064820152608490fd5b9061032691611cca611c8b83611adc565b611ca7611c97826105f0565b611ca0856105f0565b1415611bb2565b33611cb1826105f0565b611cba826105f0565b14918215611ccf575b5050611c08565b6120b2565b611cd99250611d0b565b3880611cc3565b611af361033c91611cef600090565b50611cf9816121b8565b6069611a8b565b610326919033612144565b61033c91611d26610fef92611d1e600090565b50606a610fae565b610fae565b15611d3257565b60405162461bcd60e51b815260206004820152602e60248201527f4552433732313a2063616c6c6572206973206e6f7420746f6b656e206f776e6560448201526d1c881b9bdc88185c1c1c9bdd995960921b6064820152608490fd5b610326929190611da6611da18433611e5b565b611d2b565b611fca565b909161032692611db9611b3f565b925b61032693929190611dcf611da18433611e5b565b611e3c565b15611ddb57565b6040515b62461bcd60e51b815260206004820152603260248201527f4552433732313a207472616e7366657220746f206e6f6e20455243373231526560448201527131b2b4bb32b91034b6b83632b6b2b73a32b960711b6064820152608490fd5b916103269391611e5693611e51838383611fca565b61224c565b611dd4565b611e6482611adc565b91611e6e836105f0565b611e77836105f0565b14928315611ea4575b508215611e8c57505090565b611ea09192506114ff816113be9250611ce0565b1490565b909250611eb2908290611d0b565b9138611e80565b15611ec057565b60405162461bcd60e51b815260206004820152602560248201527f4552433732313a207472616e736665722066726f6d20696e636f72726563742060448201526437bbb732b960d91b6064820152608490fd5b15611f1a57565b60405162461bcd60e51b8152602060048201526024808201527f4552433732313a207472616e7366657220746f20746865207a65726f206164646044820152637265737360e01b6064820152608490fd5b634e487b7160e01b600052601160045260246000fd5b9190611f8c565b9290565b8203918211611f9757565b611f6b565b906000199061121f565b90611fb661033c61124092610a37565b8254611f9c565b91908201809211611f9757565b9190611fea611fd883611adc565b611fe46113be866105f0565b14611eb9565b612027826000611ff9816119e8565b90612016612006836105f0565b61200f876105f0565b1415611f13565b612021838689613ec5565b506120b2565b61207a600161205f61206b8461203c84610a37565b9360689061206561204d8b84610fae565b61205f8861205a83610ffb565b611f81565b90611fa6565b50610fae565b9161207583610ffb565b611fbd565b61208e81612089846067611a8b565b6117e4565b6112ac6120ac6112a660008051602061420183398151915295610fa5565b92610a37565b906120c282612089836069611a8b565b6120cb81611adc565b916112ac6120ac6112a67f8c5be1e5ebec7d5bd14f71427d1e84f3dd0314c0f7b2291e5b200ac8c7c3b92595610fa5565b1561210357565b60405162461bcd60e51b815260206004820152601960248201527822a9219b99189d1030b8383937bb32903a379031b0b63632b960391b6044820152606490fd5b612160612150836105f0565b612159836105f0565b14156120fc565b6121738361127184611d2685606a610fae565b6121b36121a96121a37f17307eab39ab6107e8899845ad3d59bd9653f200f220920489ca2b5937696c3193610fa5565b93610fa5565b9361036260405190565b0390a3565b6121c4610326916121c9565b611a95565b611af36121d891611aeb600090565b6121e86113be61120160006119e8565b141590565b9050519061032682610304565b906020828203126103145761033c916121ed565b909261223f9061223861033c969461222e608086019760008701906105fc565b60208501906105fc565b6040830152565b606081840391015261055d565b91909392612258600090565b94612262816124ae565b1561233c57906122a6600061227e61168c856020979650610fa5565b926122b163150b7a029161228f3390565b9661229960405190565b998a988997889660e01b90565b86526004860161220e565b03925af16000918161230c575b506122f057506122cc611900565b80516122db6117346000610a37565b036122e857604051611ddf565b805190602001fd5b909150611ea0612306630a85bd0160e11b6102f7565b916102f7565b61232e91925060203d8111612335575b612326818361038b565b8101906121fa565b90386122be565b503d61231c565b5060019450505050565b1561234d57565b60405162461bcd60e51b815260206004820152602b60248201527f455243373231456e756d657261626c653a206f776e657220696e646578206f7560448201526a74206f6620626f756e647360a81b6064820152608490fd5b61033c916123d7611a86926123b9600090565b506123d06123c961033c83611a4f565b8410612346565b6097610fae565b611a8b565b156123e357565b60405162461bcd60e51b815260206004820152602c60248201527f455243373231456e756d657261626c653a20676c6f62616c20696e646578206f60448201526b7574206f6620626f756e647360a01b6064820152608490fd5b634e487b7160e01b600052603260045260246000fd5b80548210156124765761246d600191600052602060002090565b91020190600090565b61243d565b6124a861033c9161248a600090565b506124a161249a61033c60995490565b82106123dc565b6099612453565b90610a94565b3b6124bc6117346000610a37565b1190565b909190156124cc575090565b81516124db6117346000610a37565b11156124ea5750805190602001fd5b604051611163919061114e565b6125016001611510565b600360fc1b602082015290565b61033c6124f7565b6000198114611f975760010190565b634e487b7160e01b600052601260045260246000fd5b8115612545570490565b612525565b8115612545570690565b6104e661033c61033c9290565b61257761257161033c9260ff1690565b60f81b90565b6001600160f81b03191690565b9061258d825190565b811015612476570160200190565b9060006125a781610a37565b8314612670579091908160005b6125bd83610a37565b84146125e7576125e1906125d090612516565b936125db600a610a37565b9061253b565b926125b4565b919392506125f482611522565b915b6125ff85610a37565b82146126655761261c61265f916126166001610a37565b90611f81565b916125db600a8461265961265061264b612646603061207561110461264089610a37565b8b61254a565b612554565b612561565b8a1a9188612584565b53610a37565b906125f6565b505061033c91925090565b50905061033c61250e565b81810292918115918404141715611f9757565b8015611f97576000190190565b61033c906126af61173461033c9460ff1690565b901c90565b156126bb57565b60405162461bcd60e51b815280611163600482016020808252818101527f537472696e67733a20686578206c656e67746820696e73756666696369656e74604082015260600190565b91906002926127306115616127218461271c88610a37565b61267b565b61272a87610a37565b90611fbd565b91600090603061274861274284610a37565b86612584565b5361277c612773600f60fb1b9261271c600199858b9650871a61265961276d88610a37565b8b612584565b61272a83610a37565b905b6127a0575b5061033c9394509061279a61173461033c93610a37565b146126b4565b916127aa86610a37565b831115612818576f181899199a1a9b1b9c1cb0b131b232b360811b6127cf600f610a37565b82169060108210156124765787926127ef61280c92612812941a60f81b90565b851a6127fb8789612584565b536128066004612554565b9061269b565b9361268e565b9061277e565b91612783565b61033c9060081c6104e6565b61033c905461281e565b1561283b57565b60405162461bcd60e51b815260206004820152602e60248201527f496e697469616c697a61626c653a20636f6e747261637420697320616c72656160448201526d191e481a5b9a5d1a585b1a5e995960921b6064820152608490fd5b6104e661033c61033c9260ff1690565b9061123961033c61124092612897565b9061ff009060081b61121f565b906128d461033c61124092151590565b82546128b7565b61033f90612554565b60208101929161032691906128db565b9693909592612943959261290b6110cf600061282a565b9788806129e6575b80156129a1575b61292390612834565b6001996129396129328c612554565b60006128a7565b8961299157612c7d565b61294a5750565b6129556000806128c4565b61298c7f7f26b83ff96e1f2b6a682f133852f6798a09c465da95921460cefb38474024989161298360405190565b918291826128e4565b0390a1565b61299c8b60006128c4565b612c7d565b506129b66110cf6129b130610fa5565b6124ae565b801561291a57506129236129ca6000610fc1565b6129de6129d76001612554565b9160ff1690565b14905061291a565b506129f16000610fc1565b6129fe6129d76001612554565b10612913565b15612a0b57565b60405162461bcd60e51b815260206004820152601b60248201527a526f79616c74696573206d75737420626520757020746f2035302560281b6044820152606490fd5b612a586005611510565b64302e302e3160d81b602082015290565b61033c612a4e565b9160001960089290920291821b911b61121f565b9190612a9661033c61124093610a37565b908354612a71565b61032691600091612a85565b818110612ab5575050565b80612ac36000600193612a9e565b01612aaa565b9190601f8111612ad857505050565b612aea61032693600052602060002090565b906020601f840181900483019310612b0c575b6020601f909101040190612aaa565b9091508190612afd565b9060001960089091021c191690565b81612b2f91612b16565b906002021790565b90612b40815190565b906001600160401b0382116103ac57612b6382612b5d8554610ba8565b85612ac9565b602090601f8311600114612b9157611240929160009183612b86575b5050612b25565b015190503880612b7f565b601f19831691612ba685600052602060002090565b9260005b818110612be557509160029391856001969410612bcb575b50505002019055565b612bdb910151601f841690612b16565b9055388080612bc2565b91936020600181928787015181550195019201612baa565b9061032691612b37565b80546000939291612c1a610be583610ba8565b9160018116908115610c415750600114612c3357505050565b612c469192939450600052602060002090565b916000925b818410612c585750500190565b805484840152602090930192600101612c4b565b602080825261033c92910190612c07565b612d348795612d2c612d5096612ce0612d3c96612cc2612d589c99612d609f9e8f612cb5611734611f88612cbc9461271c6002610a37565b1115612a04565b82612e4d565b612cca612e29565b612cd2612e29565b612cda612a69565b90612ea5565b612ce8612e29565b612cf485611032610cda565b612d0463191df97d60e31b612f99565b612d146380ac58cd60e01b612f99565b612d2463da8def7360e01b612f99565b6101c7612bfd565b6101c8612bfd565b6101c56117e4565b612d48336101c66117e4565b6101c96117e4565b6101ca611fa6565b6101cb611fa6565b612d6d60006101cc611229565b6101c761298c7f325d37e8fb549c86966f09bc3e6f62eb3afa93b255d6e3234338001f3d80bd8691612d9e60405190565b91829182612c6c565b90610326979695949392916128f4565b15612dbe57565b60405162461bcd60e51b815260206004820152602b60248201527f496e697469616c697a61626c653a20636f6e7472616374206973206e6f74206960448201526a6e697469616c697a696e6760a81b6064820152608490fd5b610326612e24600061282a565b612db7565b610326612e17565b9061032691612e43612e24600061282a565b9061032691612e7f565b9061032691612e31565b9061032691612e69612e24600061282a565b90612e78610326926065612bfd565b6066612bfd565b9061032691612e57565b9061032691612e9b612e24600061282a565b9061032691612f19565b9061032691612e89565b9061032691612ec1612e24600061282a565b612ed4565b90611fb661033c6112409290565b90612f11612efc612ee56103269490565b612ef7612ef0825190565b9160200190565b209290565b612f07612ef0825190565b209161012d612ec6565b61012e612ec6565b9061032691612eaf565b612f36612f3061033c9290565b60e01b90565b6102f7565b15612f4257565b60405162461bcd60e51b815260206004820152601c60248201527b115490cc4d8d4e881a5b9d985b1a59081a5b9d195c999858d9481a5960221b6044820152606490fd5b61033c906102f7565b90610f7a90612f86565b61032690612fbd612fad63ffffffff612f23565b612fb6836102f7565b1415612f3b565b611271600191610193612f8f565b61033c6101c7611b18565b15612fdd57565b60405162461bcd60e51b8152602060048201526017602482015276151bdad95b881a5908191bd95cc81b9bdd08195e1a5cdd604a1b6044820152606490fd5b6130346130399193929361302e600090565b506121c9565b612fd6565b61033c61305c61304a6101c961157e565b936130566101ca610ffb565b9061267b565b6125db6101cb610ffb565b1561306e57565b60405162461bcd60e51b81526020600482015260196024820152784163636f756e7420686173206e6f2061646d696e20726f6c6560381b6044820152606490fd5b156130b657565b60405162461bcd60e51b815260206004820152601d60248201527f496d706c656d656e746174696f6e20646f6573206e6f742065786973740000006044820152606490fd5b60206131559161311b61311661310f610cda565b3390610fcb565b613067565b61312c61168c61168c6101c661157e565b61314a6395add14c61313d60405190565b9586948593849360e01b90565b835260048301610605565b03915afa801561319e5761032691600091613180575b506131796117346000610a37565b14156130af565b613198915060203d811161176c5761175d818361038b565b3861316b565b6115e8565b156131aa57565b60405162461bcd60e51b815260206004820152600f60248201526e26b2ba30b230ba3090333937bd32b760891b6044820152606490fd5b612d6d906131f361311661310f610cda565b612d246132016101cc610fc1565b61320d60005b91151590565b146131a3565b61032690612d2c61311661310f610cda565b61032690612d4861311661310f610cda565b90612d586103269261324d61311661310f610cda565b612d5061325e8261271c6002610a37565b8490612cb5565b61033c81613271610cda565b61327f613116338093610fcb565b61331f565b1561328b57565b60405162461bcd60e51b815280611163600482016020808252818101527f4552433732313a206d696e7420746f20746865207a65726f2061646472657373604082015260600190565b156132db57565b60405162461bcd60e51b815260206004820152601c60248201527b115490cdcc8c4e881d1bdad95b88185b1c9958591e481b5a5b9d195960221b6044820152606490fd5b9060009161332c836119e8565b92613349613339856105f0565b613342846105f0565b1415613284565b61335d6133586110cf856121c9565b6132d4565b613368838386613ec5565b6133836133756001610a37565b61205f61206b856068610fae565b61339282612089856067611a8b565b506112ac6120ac6112a660008051602061420183398151915295610fa5565b156133b857565b60405162461bcd60e51b815260206004820152601760248201527626b2ba30b230ba309030b63932b0b23c90333937bd32b760491b6044820152606490fd5b61340561311661310f610cda565b6134236134136101cc610fc1565b61341d6000613207565b146133b1565b61343060016101cc611229565b6101c761298c7fc6a6c2b165e62c9d37fc51a18ed76e5be22304bc1d337877c98f31c23e40b0f591612d9e60405190565b1561346857565b60405162461bcd60e51b815260206004820152601e60248201527f5369676e617475726520697320616c72656164792063616e63656c6c656400006044820152606490fd5b61033c90516105f0565b156134be57565b60405162461bcd60e51b815260206004820152602a60248201527f4f6e6c7920746865207369676e65722063616e2063616e63656c6c2074686973604482015269207369676e617475726560b01b6064820152608490fd5b610326906112716101cd6060830161353d6135386110cf610fef8451866104d4565b613461565b61357a61356861356061354f876134ad565b602088015160408901515b916138f4565b835190613585565b6135746113be336105f0565b146134b7565b6001935051906104d4565b61033c916135929161377b565b9091906135c9565b634e487b7160e01b600052602160045260246000fd5b600511156135ba57565b61359a565b90610326826135b0565b6135d360006135bf565b6135dc826135bf565b036135e45750565b6135ee60016135bf565b6135f7826135bf565b0361363c5760405162461bcd60e51b815260206004820152601860248201527745434453413a20696e76616c6964207369676e617475726560401b6044820152606490fd5b61364660026135bf565b61364f826135bf565b036136995760405162461bcd60e51b815260206004820152601f60248201527f45434453413a20696e76616c6964207369676e6174757265206c656e677468006044820152606490fd5b6136a360036135bf565b6136ac826135bf565b036137015760405162461bcd60e51b815260206004820152602260248201527f45434453413a20696e76616c6964207369676e6174757265202773272076616c604482015261756560f01b6064820152608490fd5b600490613716613710836135bf565b916135bf565b1461371e5750565b6111639061372b60405190565b62461bcd60e51b8152918291820160208082526022908201527f45434453413a20696e76616c6964207369676e6174757265202776272076616c604082015261756560f01b606082015260800190565b90805161378b6117346041610a37565b036137b1576137ad916020820151906060604084015193015160001a906137ec565b9091565b50506137bd60006119e8565b90600290565b6107ef610326946122386060949897956137e2608086019a6000870152565b60ff166020850152565b9192916137f883611063565b61381a6117346fa2a8918ca85bafe22016d0b997e4df60600160ff1b03610a37565b116138c157613829601b612554565b60ff83161415806138ab575b6138975761385460009360209561384b60405190565b948594856137c3565b838052039060015afa1561319e5760005190600091613872836119e8565b61387b816105f0565b613884836105f0565b1461388e57509190565b92905050600190565b505050506138a560006119e8565b90600490565b506138b6601c612554565b60ff83161415613835565b505050506138cf60006119e8565b90600390565b6107ef6103269461223860609498979561222e608086019a6000870152565b6139419061033c93613904600090565b5061113e7f3c4a088b483bf4ac638113be3d33887a2af00d08fc0554e821b6e811ddd17cbb9161393360405190565b9586946020860194856138d5565b61394c612ef0825190565b2061033c906139596139a9565b613981565b602080939261397b6104b46103e19461190160f01b815260020190565b01918252565b61113e9161399a9160405193849260208401928361395e565b6139a5612ef0825190565b2090565b61033c7f8b73c3c69bb8fe3d512ecc4cf759cc79239f7b179b0ffacaa9a75d522b39400f6139d5613a46565b6139dd613a51565b91613a1c565b9095949261032694610974613a1592613a0e608096613a0760a088019c6000890152565b6020870152565b6040850152565b01906105fc565b61399a919061113e46613a2e30610fa5565b90613a3860405190565b9687956020870195866139e3565b61033c61012d610ffb565b61033c61012e610ffb565b15613a6357565b60405162461bcd60e51b815260206004820152601660248201527514da59db985d1d5c99481a5cc818d85b98d95b1b195960521b6044820152606490fd5b15613aa857565b60405162461bcd60e51b8152602060048201526014602482015273696e76616c69642066726f6d206164647265737360601b6044820152606490fd5b15613aeb57565b60405162461bcd60e51b815260206004820152600f60248201526e0e6d2cedccae440dad2e6dac2e8c6d608b1b6044820152606490fd5b15613b2957565b60405162461bcd60e51b815260206004820152601f60248201527f5369676e6572206e6f7420616c6c6f77656420746f206c617a79206d696e74006044820152606490fd5b6101cd9060608101613b8f613b8a6110cf610fef8451876104d4565b613a5c565b60208201613ba66110cf613ba1835190565b6121c9565b613bb1575b50505050565b613c5e613c0c613c59613c6494611271613c6a98613c4f613c4a613c1f613c178a8d61355a6040613c11613be7600085016134ad565b613c03600091613bfc6113be611201856119e8565b1415613aa1565b84019d8e6134ad565b945190565b92015190565b865190613585565b613c3d613c2e6112018a6134ad565b613c37836105f0565b14613ae4565b613c45610cda565b610fcb565b613b22565b60019251906104d4565b6134ad565b92505190565b9061331f565b38808080613bab565b905051906103268261063c565b90929192613c90610401826103c5565b938185526020850190828401116103145761032692610460565b9080601f8301121561031457815161033c92602001613c80565b9060808282031261031457613cd98183613c73565b92613ce782602085016115c7565b92613cf583604083016115c7565b60608201519093906001600160401b0381116103145761033c9201613caa565b61033c60806103b1565b613d27613d15565b600080825260208201819052604082015260608082015290565b61033c613d1f565b9061033f906105f0565b15613d5a57565b60405162461bcd60e51b815260206004820152600f60248201526e0a6cad8d8cae440dad2e6dac2e8c6d608b1b6044820152606490fd5b15613d9857565b60405162461bcd60e51b8152602060048201526012602482015271053656c6c65722063616e6e6f7420626520360741b6044820152606490fd5b6103269383613de36110cf826121c9565b613def575b5050611dab565b613e7061327f613e75611271613e2e613eb6613e1f88613ebe99506020613e14825190565b818301019101613cc4565b9485929793839a929a50610fa5565b98613e538160408c613e48613e41613d41565b9182613d49565b6107ef8c6020830152565b6101cd97613e6a613b8a6110cf610fef878d6104d4565b8a6138f4565b613585565b613e84613c4a82613c45610cda565b613e9f613e90886105f0565b613e99836105f0565b14613d53565b613eaf6113be61120160006119e8565b1415613d91565b6001926104d4565b3883613de8565b6103269290613eff6000613ed8816119e8565b90613ee2826105f0565b613eeb856105f0565b03613f3c57613ef985613fbc565b506105f0565b613f08846105f0565b03613f18575061032691506140a5565b613f21906105f0565b613f2a836105f0565b03613f33575050565b61032691613f62565b613f45866105f0565b613f4e856105f0565b14613ef957613f5d8585613fe0565b613ef9565b613f8782613f8c61032694613f876123d795613f7d81611a4f565b9687916097610fae565b611fa6565b6098611a8b565b80549190600160401b8310156103ac5782613fb691600161032695018155612453565b90612a85565b61032690613fdb609961033c613fd0825490565b613f8785609a611a8b565b613f93565b614028610326926123d76000936123d08561402861400a61400085611a4f565b6126166001610a37565b95609861401a611a868383611a8b565b88810361402d575b50611a8b565b612a9e565b80613f878861405b8c613f87614061966123d7614053611a866097956123d78988610fae565b958694610fae565b84611a8b565b38614022565b634e487b7160e01b600052603160045260246000fd5b805480156140a057600019019061409d6140978383612453565b90612a9e565b55565b614067565b6140f36103269161033c60006140286099936140c2614000865490565b6123d7609a91613f876140e56124a86140de611a868888611a8b565b938b612453565b61405b81613fb6858d612453565b61407d565b61033c9061410581614121565b908115614110575090565b61033c9150610fef90610193612f8f565b614131637965db0b60e01b6102f7565b61413a826102f7565b14908115614146575090565b61033c915061415b63780e9d6360e01b6102f7565b614164826102f7565b14908115614170575090565b61033c91506141856380ac58cd60e01b6102f7565b61418e826102f7565b149081156141ab575b81156141a1575090565b61033c91506141cd565b90506141bd635b5e139f60e01b6102f7565b6141c6826102f7565b1490614197565b611ea06123066301ffc9a760e01b6102f756fe46756e6374696f6e206d7573742062652063616c6c6564207468726f75676820ddf252ad1be2c89b69c2b068fc378daa952ba7f163c4a11628f55a4df523b3efa26469706673582212201bcd72b0d58c96212cc82c18b82decfe1d527b21b24165690dab5eae45f4218e64736f6c63430008150033",
  "linkReferences": {},
  "deployedLinkReferences": {}
}