{
  "_format": "hh-sol-artifact-1",
  "contractName": "SFTCollection",
  "sourceName": "contracts/SFTCollection.sol",
  "abi": [
    {
      "inputs": [],
      "stateMutability": "nonpayable",
      "type": "constructor"
    },
    {
      "anonymous": false,
      "inputs": [
        {
          "indexed": false,
          "internalType": "address",
          "name": "previousAdmin",
          "type": "address"
        },
        {
          "indexed": false,
          "internalType": "address",
          "name": "newAdmin",
          "type": "address"
        }
      ],
      "name": "AdminChanged",
      "type": "event"
    },
    {
      "anonymous": false,
      "inputs": [
        {
          "indexed": true,
          "internalType": "address",
          "name": "account",
          "type": "address"
        },
        {
          "indexed": true,
          "internalType": "address",
          "name": "operator",
          "type": "address"
        },
        {
          "indexed": false,
          "internalType": "bool",
          "name": "approved",
          "type": "bool"
        }
      ],
      "name": "ApprovalForAll",
      "type": "event"
    },
    {
      "anonymous": false,
      "inputs": [
        {
          "indexed": true,
          "internalType": "address",
          "name": "beacon",
          "type": "address"
        }
      ],
      "name": "BeaconUpgraded",
      "type": "event"
    },
    {
      "anonymous": false,
      "inputs": [
        {
          "indexed": false,
          "internalType": "uint8",
          "name": "version",
          "type": "uint8"
        }
      ],
      "name": "Initialized",
      "type": "event"
    },
    {
      "anonymous": false,
      "inputs": [
        {
          "indexed": true,
          "internalType": "string",
          "name": "OldBaseUri",
          "type": "string"
        },
        {
          "indexed": true,
          "internalType": "string",
          "name": "NewBaseUri",
          "type": "string"
        }
      ],
      "name": "NewBaseURI",
      "type": "event"
    },
    {
      "anonymous": false,
      "inputs": [
        {
          "indexed": true,
          "internalType": "string",
          "name": "OldContractUri",
          "type": "string"
        },
        {
          "indexed": true,
          "internalType": "string",
          "name": "NewContractUri",
          "type": "string"
        }
      ],
      "name": "NewContractURI",
      "type": "event"
    },
    {
      "anonymous": false,
      "inputs": [
        {
          "indexed": true,
          "internalType": "bytes32",
          "name": "role",
          "type": "bytes32"
        },
        {
          "indexed": true,
          "internalType": "bytes32",
          "name": "previousAdminRole",
          "type": "bytes32"
        },
        {
          "indexed": true,
          "internalType": "bytes32",
          "name": "newAdminRole",
          "type": "bytes32"
        }
      ],
      "name": "RoleAdminChanged",
      "type": "event"
    },
    {
      "anonymous": false,
      "inputs": [
        {
          "indexed": true,
          "internalType": "bytes32",
          "name": "role",
          "type": "bytes32"
        },
        {
          "indexed": true,
          "internalType": "address",
          "name": "account",
          "type": "address"
        },
        {
          "indexed": true,
          "internalType": "address",
          "name": "sender",
          "type": "address"
        }
      ],
      "name": "RoleGranted",
      "type": "event"
    },
    {
      "anonymous": false,
      "inputs": [
        {
          "indexed": true,
          "internalType": "bytes32",
          "name": "role",
          "type": "bytes32"
        },
        {
          "indexed": true,
          "internalType": "address",
          "name": "account",
          "type": "address"
        },
        {
          "indexed": true,
          "internalType": "address",
          "name": "sender",
          "type": "address"
        }
      ],
      "name": "RoleRevoked",
      "type": "event"
    },
    {
      "anonymous": false,
      "inputs": [
        {
          "indexed": true,
          "internalType": "address",
          "name": "operator",
          "type": "address"
        },
        {
          "indexed": true,
          "internalType": "address",
          "name": "from",
          "type": "address"
        },
        {
          "indexed": true,
          "internalType": "address",
          "name": "to",
          "type": "address"
        },
        {
          "indexed": false,
          "internalType": "uint256[]",
          "name": "ids",
          "type": "uint256[]"
        },
        {
          "indexed": false,
          "internalType": "uint256[]",
          "name": "values",
          "type": "uint256[]"
        }
      ],
      "name": "TransferBatch",
      "type": "event"
    },
    {
      "anonymous": false,
      "inputs": [
        {
          "indexed": true,
          "internalType": "address",
          "name": "operator",
          "type": "address"
        },
        {
          "indexed": true,
          "internalType": "address",
          "name": "from",
          "type": "address"
        },
        {
          "indexed": true,
          "internalType": "address",
          "name": "to",
          "type": "address"
        },
        {
          "indexed": false,
          "internalType": "uint256",
          "name": "id",
          "type": "uint256"
        },
        {
          "indexed": false,
          "internalType": "uint256",
          "name": "value",
          "type": "uint256"
        }
      ],
      "name": "TransferSingle",
      "type": "event"
    },
    {
      "anonymous": false,
      "inputs": [
        {
          "indexed": false,
          "internalType": "string",
          "name": "value",
          "type": "string"
        },
        {
          "indexed": true,
          "internalType": "uint256",
          "name": "id",
          "type": "uint256"
        }
      ],
      "name": "URI",
      "type": "event"
    },
    {
      "anonymous": false,
      "inputs": [
        {
          "indexed": true,
          "internalType": "address",
          "name": "implementation",
          "type": "address"
        }
      ],
      "name": "Upgraded",
      "type": "event"
    },
    {
      "inputs": [],
      "name": "DEFAULT_ADMIN_ROLE",
      "outputs": [
        {
          "internalType": "bytes32",
          "name": "",
          "type": "bytes32"
        }
      ],
      "stateMutability": "view",
      "type": "function"
    },
    {
      "inputs": [],
      "name": "SFTCollectionInterfaceId",
      "outputs": [
        {
          "internalType": "bytes4",
          "name": "",
          "type": "bytes4"
        }
      ],
      "stateMutability": "view",
      "type": "function"
    },
    {
      "inputs": [
        {
          "internalType": "address",
          "name": "account",
          "type": "address"
        },
        {
          "internalType": "uint256",
          "name": "id",
          "type": "uint256"
        }
      ],
      "name": "balanceOf",
      "outputs": [
        {
          "internalType": "uint256",
          "name": "",
          "type": "uint256"
        }
      ],
      "stateMutability": "view",
      "type": "function"
    },
    {
      "inputs": [
        {
          "internalType": "address[]",
          "name": "accounts",
          "type": "address[]"
        },
        {
          "internalType": "uint256[]",
          "name": "ids",
          "type": "uint256[]"
        }
      ],
      "name": "balanceOfBatch",
      "outputs": [
        {
          "internalType": "uint256[]",
          "name": "",
          "type": "uint256[]"
        }
      ],
      "stateMutability": "view",
      "type": "function"
    },
    {
      "inputs": [],
      "name": "baseUri",
      "outputs": [
        {
          "internalType": "string",
          "name": "",
          "type": "string"
        }
      ],
      "stateMutability": "view",
      "type": "function"
    },
    {
      "inputs": [],
      "name": "beneficiary",
      "outputs": [
        {
          "internalType": "address",
          "name": "",
          "type": "address"
        }
      ],
      "stateMutability": "view",
      "type": "function"
    },
    {
      "inputs": [
        {
          "components": [
            {
              "internalType": "address",
              "name": "from",
              "type": "address"
            },
            {
              "internalType": "uint256[]",
              "name": "tokenIds",
              "type": "uint256[]"
            },
            {
              "internalType": "uint256[]",
              "name": "amounts",
              "type": "uint256[]"
            },
            {
              "internalType": "uint256",
              "name": "nonce",
              "type": "uint256"
            },
            {
              "internalType": "bytes",
              "name": "signature",
              "type": "bytes"
            }
          ],
          "internalType": "struct ISFTCollection.SignedMintBatch",
          "name": "sigMintBatch",
          "type": "tuple"
        }
      ],
      "name": "cancelMintBatchSignature",
      "outputs": [],
      "stateMutability": "nonpayable",
      "type": "function"
    },
    {
      "inputs": [
        {
          "components": [
            {
              "internalType": "address",
              "name": "from",
              "type": "address"
            },
            {
              "internalType": "uint256",
              "name": "tokenId",
              "type": "uint256"
            },
            {
              "internalType": "uint256",
              "name": "amount",
              "type": "uint256"
            },
            {
              "internalType": "uint256",
              "name": "nonce",
              "type": "uint256"
            },
            {
              "internalType": "bytes",
              "name": "signature",
              "type": "bytes"
            }
          ],
          "internalType": "struct ISFTCollection.SignedMint",
          "name": "sigMint",
          "type": "tuple"
        }
      ],
      "name": "cancelMintSignature",
      "outputs": [],
      "stateMutability": "nonpayable",
      "type": "function"
    },
    {
      "inputs": [
        {
          "internalType": "bytes",
          "name": "",
          "type": "bytes"
        }
      ],
      "name": "cancelledSignatures",
      "outputs": [
        {
          "internalType": "bool",
          "name": "",
          "type": "bool"
        }
      ],
      "stateMutability": "view",
      "type": "function"
    },
    {
      "inputs": [],
      "name": "collectionCreator",
      "outputs": [
        {
          "internalType": "address",
          "name": "",
          "type": "address"
        }
      ],
      "stateMutability": "view",
      "type": "function"
    },
    {
      "inputs": [],
      "name": "contractUri",
      "outputs": [
        {
          "internalType": "string",
          "name": "",
          "type": "string"
        }
      ],
      "stateMutability": "view",
      "type": "function"
    },
    {
      "inputs": [],
      "name": "freeze",
      "outputs": [],
      "stateMutability": "nonpayable",
      "type": "function"
    },
    {
      "inputs": [],
      "name": "frozen",
      "outputs": [
        {
          "internalType": "bool",
          "name": "",
          "type": "bool"
        }
      ],
      "stateMutability": "view",
      "type": "function"
    },
    {
      "inputs": [
        {
          "internalType": "bytes32",
          "name": "role",
          "type": "bytes32"
        }
      ],
      "name": "getRoleAdmin",
      "outputs": [
        {
          "internalType": "bytes32",
          "name": "",
          "type": "bytes32"
        }
      ],
      "stateMutability": "view",
      "type": "function"
    },
    {
      "inputs": [
        {
          "internalType": "bytes32",
          "name": "role",
          "type": "bytes32"
        },
        {
          "internalType": "address",
          "name": "account",
          "type": "address"
        }
      ],
      "name": "grantRole",
      "outputs": [],
      "stateMutability": "nonpayable",
      "type": "function"
    },
    {
      "inputs": [
        {
          "internalType": "bytes32",
          "name": "role",
          "type": "bytes32"
        },
        {
          "internalType": "address",
          "name": "account",
          "type": "address"
        }
      ],
      "name": "hasRole",
      "outputs": [
        {
          "internalType": "bool",
          "name": "",
          "type": "bool"
        }
      ],
      "stateMutability": "view",
      "type": "function"
    },
    {
      "inputs": [],
      "name": "implementationProvider",
      "outputs": [
        {
          "internalType": "address",
          "name": "",
          "type": "address"
        }
      ],
      "stateMutability": "view",
      "type": "function"
    },
    {
      "inputs": [
        {
          "internalType": "address",
          "name": "_collectionCreator",
          "type": "address"
        },
        {
          "internalType": "string",
          "name": "_name",
          "type": "string"
        },
        {
          "internalType": "string",
          "name": "_symbol",
          "type": "string"
        },
        {
          "internalType": "string",
          "name": "_baseUri",
          "type": "string"
        },
        {
          "internalType": "string",
          "name": "_contractUri",
          "type": "string"
        },
        {
          "internalType": "address",
          "name": "_beneficiary",
          "type": "address"
        },
        {
          "internalType": "uint256",
          "name": "_royaltyPercentNominator",
          "type": "uint256"
        },
        {
          "internalType": "uint256",
          "name": "_royaltyPercentDenominator",
          "type": "uint256"
        }
      ],
      "name": "initialize",
      "outputs": [],
      "stateMutability": "nonpayable",
      "type": "function"
    },
    {
      "inputs": [
        {
          "internalType": "address",
          "name": "account",
          "type": "address"
        },
        {
          "internalType": "address",
          "name": "operator",
          "type": "address"
        }
      ],
      "name": "isApprovedForAll",
      "outputs": [
        {
          "internalType": "bool",
          "name": "",
          "type": "bool"
        }
      ],
      "stateMutability": "view",
      "type": "function"
    },
    {
      "inputs": [
        {
          "internalType": "uint256",
          "name": "_tokenId",
          "type": "uint256"
        },
        {
          "internalType": "uint256",
          "name": "_amount",
          "type": "uint256"
        }
      ],
      "name": "mint",
      "outputs": [],
      "stateMutability": "nonpayable",
      "type": "function"
    },
    {
      "inputs": [
        {
          "internalType": "uint256[]",
          "name": "_tokenIds",
          "type": "uint256[]"
        },
        {
          "internalType": "uint256[]",
          "name": "_amounts",
          "type": "uint256[]"
        }
      ],
      "name": "mintBatch",
      "outputs": [],
      "stateMutability": "nonpayable",
      "type": "function"
    },
    {
      "inputs": [
        {
          "components": [
            {
              "internalType": "address",
              "name": "from",
              "type": "address"
            },
            {
              "internalType": "uint256[]",
              "name": "tokenIds",
              "type": "uint256[]"
            },
            {
              "internalType": "uint256[]",
              "name": "amounts",
              "type": "uint256[]"
            },
            {
              "internalType": "uint256",
              "name": "nonce",
              "type": "uint256"
            },
            {
              "internalType": "bytes",
              "name": "signature",
              "type": "bytes"
            }
          ],
          "internalType": "struct ISFTCollection.SignedMintBatch",
          "name": "sigMintBatch",
          "type": "tuple"
        }
      ],
      "name": "mintBatchWithSignature",
      "outputs": [],
      "stateMutability": "nonpayable",
      "type": "function"
    },
    {
      "inputs": [
        {
          "components": [
            {
              "internalType": "address",
              "name": "from",
              "type": "address"
            },
            {
              "internalType": "uint256",
              "name": "tokenId",
              "type": "uint256"
            },
            {
              "internalType": "uint256",
              "name": "amount",
              "type": "uint256"
            },
            {
              "internalType": "uint256",
              "name": "nonce",
              "type": "uint256"
            },
            {
              "internalType": "bytes",
              "name": "signature",
              "type": "bytes"
            }
          ],
          "internalType": "struct ISFTCollection.SignedMint",
          "name": "sigMint",
          "type": "tuple"
        }
      ],
      "name": "mintWithSignature",
      "outputs": [],
      "stateMutability": "nonpayable",
      "type": "function"
    },
    {
      "inputs": [],
      "name": "name",
      "outputs": [
        {
          "internalType": "string",
          "name": "",
          "type": "string"
        }
      ],
      "stateMutability": "view",
      "type": "function"
    },
    {
      "inputs": [],
      "name": "proxiableUUID",
      "outputs": [
        {
          "internalType": "bytes32",
          "name": "",
          "type": "bytes32"
        }
      ],
      "stateMutability": "view",
      "type": "function"
    },
    {
      "inputs": [
        {
          "internalType": "bytes32",
          "name": "role",
          "type": "bytes32"
        },
        {
          "internalType": "address",
          "name": "account",
          "type": "address"
        }
      ],
      "name": "renounceRole",
      "outputs": [],
      "stateMutability": "nonpayable",
      "type": "function"
    },
    {
      "inputs": [
        {
          "internalType": "bytes32",
          "name": "role",
          "type": "bytes32"
        },
        {
          "internalType": "address",
          "name": "account",
          "type": "address"
        }
      ],
      "name": "revokeRole",
      "outputs": [],
      "stateMutability": "nonpayable",
      "type": "function"
    },
    {
      "inputs": [],
      "name": "royaltyPercentDenominator",
      "outputs": [
        {
          "internalType": "uint256",
          "name": "",
          "type": "uint256"
        }
      ],
      "stateMutability": "view",
      "type": "function"
    },
    {
      "inputs": [],
      "name": "royaltyPercentNominator",
      "outputs": [
        {
          "internalType": "uint256",
          "name": "",
          "type": "uint256"
        }
      ],
      "stateMutability": "view",
      "type": "function"
    },
    {
      "inputs": [
        {
          "internalType": "address",
          "name": "from",
          "type": "address"
        },
        {
          "internalType": "address",
          "name": "to",
          "type": "address"
        },
        {
          "internalType": "uint256[]",
          "name": "ids",
          "type": "uint256[]"
        },
        {
          "internalType": "uint256[]",
          "name": "amounts",
          "type": "uint256[]"
        },
        {
          "internalType": "bytes",
          "name": "data",
          "type": "bytes"
        }
      ],
      "name": "safeBatchTransferFrom",
      "outputs": [],
      "stateMutability": "nonpayable",
      "type": "function"
    },
    {
      "inputs": [
        {
          "internalType": "address",
          "name": "from",
          "type": "address"
        },
        {
          "internalType": "address",
          "name": "to",
          "type": "address"
        },
        {
          "internalType": "uint256",
          "name": "id",
          "type": "uint256"
        },
        {
          "internalType": "uint256",
          "name": "amount",
          "type": "uint256"
        },
        {
          "internalType": "bytes",
          "name": "data",
          "type": "bytes"
        }
      ],
      "name": "safeTransferFrom",
      "outputs": [],
      "stateMutability": "nonpayable",
      "type": "function"
    },
    {
      "inputs": [
        {
          "internalType": "address",
          "name": "operator",
          "type": "address"
        },
        {
          "internalType": "bool",
          "name": "approved",
          "type": "bool"
        }
      ],
      "name": "setApprovalForAll",
      "outputs": [],
      "stateMutability": "nonpayable",
      "type": "function"
    },
    {
      "inputs": [
        {
          "internalType": "string",
          "name": "_baseUri",
          "type": "string"
        }
      ],
      "name": "setBaseURI",
      "outputs": [],
      "stateMutability": "nonpayable",
      "type": "function"
    },
    {
      "inputs": [
        {
          "internalType": "address",
          "name": "_beneficiary",
          "type": "address"
        }
      ],
      "name": "setBeneficiary",
      "outputs": [],
      "stateMutability": "nonpayable",
      "type": "function"
    },
    {
      "inputs": [
        {
          "internalType": "string",
          "name": "_contractUri",
          "type": "string"
        }
      ],
      "name": "setContractURI",
      "outputs": [],
      "stateMutability": "nonpayable",
      "type": "function"
    },
    {
      "inputs": [
        {
          "internalType": "uint256",
          "name": "_royaltyPercentNominator",
          "type": "uint256"
        },
        {
          "internalType": "uint256",
          "name": "_royaltyPercentDenominator",
          "type": "uint256"
        }
      ],
      "name": "setRoyalties",
      "outputs": [],
      "stateMutability": "nonpayable",
      "type": "function"
    },
    {
      "inputs": [
        {
          "internalType": "bytes4",
          "name": "interfaceId",
          "type": "bytes4"
        }
      ],
      "name": "supportsInterface",
      "outputs": [
        {
          "internalType": "bool",
          "name": "",
          "type": "bool"
        }
      ],
      "stateMutability": "view",
      "type": "function"
    },
    {
      "inputs": [],
      "name": "symbol",
      "outputs": [
        {
          "internalType": "string",
          "name": "",
          "type": "string"
        }
      ],
      "stateMutability": "view",
      "type": "function"
    },
    {
      "inputs": [
        {
          "internalType": "address",
          "name": "newImplementation",
          "type": "address"
        }
      ],
      "name": "upgradeTo",
      "outputs": [],
      "stateMutability": "nonpayable",
      "type": "function"
    },
    {
      "inputs": [
        {
          "internalType": "address",
          "name": "newImplementation",
          "type": "address"
        },
        {
          "internalType": "bytes",
          "name": "data",
          "type": "bytes"
        }
      ],
      "name": "upgradeToAndCall",
      "outputs": [],
      "stateMutability": "payable",
      "type": "function"
    },
    {
      "inputs": [
        {
          "internalType": "uint256",
          "name": "tokenId",
          "type": "uint256"
        }
      ],
      "name": "uri",
      "outputs": [
        {
          "internalType": "string",
          "name": "",
          "type": "string"
        }
      ],
      "stateMutability": "view",
      "type": "function"
    }
  ],
  "bytecode": "0x60a0604052346200003657620000146200003b565b6040516143ee62000213823960805181818161157a015261169e01526143ee90f35b600080fd5b6200004562000051565b6200004f62000185565b565b6200004f6200004f6200009a565b620000759062000078906001600160a01b031682565b90565b6001600160a01b031690565b62000075906200005f565b620000759062000084565b620000a5306200008f565b608052565b620000759060081c5b60ff1690565b620000759054620000aa565b60208082526027908201527f496e697469616c697a61626c653a20636f6e747261637420697320696e697469604082015266616c697a696e6760c81b606082015260800190565b156200011457565b60405162461bcd60e51b8152806200012f60048201620000c5565b0390fd5b6200007590620000b3565b62000075905462000133565b620000b362000075620000759260ff1690565b90620001716200007562000181926200014a565b825460ff191660ff919091161790565b9055565b620001a36200019d620001996000620000b9565b1590565b6200010c565b620001af60006200013e565b60ff908190811610620001bf5750565b620001cc8160006200015d565b6200020d7f7f26b83ff96e1f2b6a682f133852f6798a09c465da95921460cefb384740249891620001fc60405190565b9182918260ff909116815260200190565b0390a156fe6080604052600436101561001257600080fd5b60003560e01c8062fdd58e146102a157806301ffc9a71461029c578063034e786114610297578063054f7d9c1461029257806306fdde031461028d578063074d7c5b146102885780630e89341c14610283578063137b48431461027e5780631b2ef1ca146102795780631c31f71014610274578063248a9ca31461026f5780632eb2c2d61461026a5780632f2ff15d1461026557806336568abe146102605780633659cfe61461025b57806338af3eed1461025657806345f5d2b2146102515780634e1273f41461024c5780634f1ef2861461024757806352d1902d1461024257806355f804b31461023d57806358def6be1461023857806362a5af3b14610233578063847f95471461022e57806391d1485414610229578063938e3d7b1461022457806395d89b411461021f5780639abc83201461021a578063a217fddf14610215578063a22cb46514610210578063b91a46801461020b578063c0e24d5e14610206578063c59dfee014610201578063d11dc1f0146101fc578063d351cfdc146101f7578063d547741f146101f2578063e985e9c5146101ed578063f242432a146101e8578063f926d309146101e3578063fa06fe86146101de5763fddecd19036102c557611140565b611125565b6110fd565b6110d4565b611077565b611044565b61102b565b610fe0565b610f08565b610eed565b610ec5565b610e9f565b610e4c565b610e12565b610dea565b610dc5565b610da9565b610d91565b610d79565b610d5e565b610d23565b610d08565b610cf4565b610c97565b610b69565b610a9f565b610a42565b610a29565b610a10565b6109d1565b6108b4565b61089c565b61086f565b610830565b6107fc565b6107cb565b6106fd565b610575565b610542565b61037a565b610313565b6001600160a01b031690565b90565b6102be816102a6565b036102c557565b600080fd5b905035906102d7826102b5565b565b806102be565b905035906102d7826102d9565b91906040838203126102c5576102b29061030681856102ca565b936020016102df565b9052565b346102c55761033f61032f6103293660046102ec565b90611c3a565b6040519182918290815260200190565b0390f35b6001600160e01b03191690565b6102be81610343565b905035906102d782610350565b906020828203126102c5576102b291610359565b346102c55761033f610395610390366004610366565b614275565b6040515b91829182901515815260200190565b634e487b7160e01b600052604160045260246000fd5b90601f01601f191681019081106001600160401b038211176103df57604052565b6103a8565b906102d76103f160405190565b92836103be565b6001600160401b0381116103df57602090601f01601f19160190565b0190565b90826000939282370152565b90929192610439610434826103f8565b6103e4565b938185526020850190828401116102c5576102d792610418565b9080601f830112156102c5578160206102b293359101610424565b906020828203126102c55781356001600160401b0381116102c5576102b29201610453565b60005b8381106104a65750506000910152565b8181015183820152602001610496565b6104146104ce926020926104c8815190565b94859290565b93849101610493565b6104e761041491602094936104b6565b918252565b6105016104f860405190565b928392836104d7565b03902090565b6102b2916104ec565b6102b2916008021c5b60ff1690565b906102b29154610510565b6102b29061053d61016b91600092610507565b61051f565b346102c55761033f61039561055836600461046e565b61052a565b60009103126102c557565b6102b2600061016a61051f565b346102c55761058536600461055d565b61033f610395610568565b634e487b7160e01b600052600060045260246000fd5b634e487b7160e01b600052602260045260246000fd5b90600160028304921680156105dc575b60208310146105d757565b6105a6565b91607f16916105cc565b805460009392916106036105f9836105bc565b8085529360200190565b9160018116908115610655575060011461061c57505050565b61062f9192939450600052602060002090565b916000925b8184106106415750500190565b805484840152602090930192600101610634565b92949550505060ff1916825215156020020190565b906102b2916105e6565b906102d761068e9261068560405190565b9384809261066a565b03836103be565b906000106106a6576102b290610674565b610590565b6102b26000610163610695565b6106d96106e2602093610414936106cd815190565b80835293849260200190565b95869101610493565b601f01601f191690565b60208082526102b2929101906106b8565b346102c55761070d36600461055d565b61033f6107186106ab565b604051918291826106ec565b91909160a0818403126102c55761073b60a06103e4565b92600061074882846102ca565b90850152602061075a828285016102df565b90850152604061076c828285016102df565b90850152606061077e828285016102df565b9085015260808201356001600160401b0381116102c55761079f9201610453565b6080830152565b906020828203126102c55781356001600160401b0381116102c5576102b29201610724565b346102c5576107e36107de3660046107a6565b613859565b604051005b906020828203126102c5576102b2916102df565b346102c55761033f6107186108123660046107e8565b613296565b61030f90610343565b6020810192916102d79190610817565b346102c55761084036600461055d565b6040518061033f630695df5f60e11b82610820565b91906040838203126102c5576102b29061030681856102df565b346102c5576107e3610882366004610855565b906134b0565b906020828203126102c5576102b2916102ca565b346102c5576107e36108af366004610888565b61344e565b346102c55761033f61032f6108ca3660046107e8565b6111e5565b6001600160401b0381116103df5760208091020190565b909291926108f6610434826108cf565b93818552602080860192028301928184116102c557915b83831061091a5750505050565b6020809161092884866102df565b81520192019161090d565b9080601f830112156102c5578160206102b2933591016108e6565b91909160a0818403126102c55761096583826102ca565b9261097381602084016102ca565b9260408301356001600160401b0381116102c55782610993918501610933565b9260608101356001600160401b0381116102c557836109b3918301610933565b9260808201356001600160401b0381116102c5576102b29201610453565b346102c5576107e36109e436600461094e565b93929092611ece565b91906040838203126102c5576102b290610a0781856102df565b936020016102ca565b346102c5576107e3610a233660046109ed565b9061121c565b346102c5576107e3610a3c3660046109ed565b906113d0565b346102c5576107e3610a55366004610888565b61174c565b6102b2916008021c6001600160a01b031690565b906102b29154610a5a565b6102b26000610167610a6e565b61030f906102a6565b6020810192916102d79190610a86565b346102c557610aaf36600461055d565b61033f610aba610a79565b60405191829182610a8f565b91909160a0818403126102c557610add60a06103e4565b926000610aea82846102ca565b9085015260208201356001600160401b0381116102c55781610b0d918401610933565b602085015260408201356001600160401b0381116102c55781610b31918401610933565b6040850152606061077e828285016102df565b906020828203126102c55781356001600160401b0381116102c5576102b29201610ac6565b346102c5576107e3610b7c366004610b44565b6140d2565b90929192610b91610434826108cf565b93818552602080860192028301928184116102c557915b838310610bb55750505050565b60208091610bc384866102ca565b815201920191610ba8565b9080601f830112156102c5578160206102b293359101610b81565b9190916040818403126102c55780356001600160401b0381116102c55783610c12918301610bce565b9260208201356001600160401b0381116102c5576102b29201610933565b90610c50610c49610c3f845190565b8084529260200190565b9260200190565b9060005b818110610c615750505090565b909192610c7e610c776001928651815260200190565b9460200190565b929101610c54565b60208082526102b292910190610c30565b346102c55761033f610cb3610cad366004610be9565b90611d69565b60405191829182610c86565b9190916040818403126102c557610cd683826102ca565b9260208201356001600160401b0381116102c5576102b29201610453565b6107e3610d02366004610cbf565b90611bb1565b346102c557610d1836600461055d565b61033f61032f6115e1565b346102c5576107e3610d3636600461046e565b6131fd565b6102b2916008021c81565b906102b29154610d3b565b6102b26000610168610d46565b346102c557610d6e36600461055d565b61033f61032f610d51565b346102c557610d8936600461055d565b6107e361372e565b346102c5576107e3610da4366004610b44565b613dd3565b346102c55761033f610395610dbf3660046109ed565b906111ab565b346102c5576107e3610dd836600461046e565b613404565b6102b26000610164610695565b346102c557610dfa36600461055d565b61033f610718610ddd565b6102b26000610165610695565b346102c557610e2236600461055d565b61033f610718610e05565b6102b26102b26102b29290565b6102b26000610e2d565b6102b2610e3a565b346102c557610e5c36600461055d565b61033f61032f610e44565b8015156102be565b905035906102d782610e67565b91906040838203126102c5576102b290610e9681856102ca565b93602001610e6f565b346102c5576107e3610eb2366004610e7c565b90611e00565b6102b26000610162610a6e565b346102c557610ed536600461055d565b61033f610aba610eb8565b6102b26000610166610695565b346102c557610efd36600461055d565b61033f610718610ee0565b346102c5576107e3610f1b366004610855565b90613470565b9190610100838203126102c557610f3881846102ca565b9260208101356001600160401b0381116102c55782610f58918301610453565b9260408201356001600160401b0381116102c55783610f78918401610453565b9260608301356001600160401b0381116102c55781610f98918501610453565b9260808101356001600160401b0381116102c55782610fb8918301610453565b926102b2610fc98460a085016102ca565b93610fd78160c086016102df565b9360e0016102df565b346102c5576107e3610ff3366004610f21565b96959095949194939293612ee9565b9190916040818403126102c55780356001600160401b0381116102c55783610c12918301610933565b346102c5576107e361103e366004611002565b906135de565b346102c5576107e36110573660046109ed565b90611362565b91906040838203126102c5576102b290610a0781856102ca565b346102c55761033f61039561108d36600461105d565b90611e0b565b91909160a0818403126102c5576110aa83826102ca565b926110b881602084016102ca565b926110c682604085016102df565b926109b383606083016102df565b346102c5576107e36110e7366004611093565b93929092611e8a565b6102b26000610169610d46565b346102c55761110d36600461055d565b61033f61032f6110f0565b6102b26000610161610a6e565b346102c55761113536600461055d565b61033f610aba611118565b346102c5576107e36111533660046107a6565b613f7e565b905b600052602052604060002090565b6102b2906102a6906001600160a01b031682565b6102b290611168565b6102b29061117c565b9061115a90611185565b6102b290610519565b6102b29054611198565b6102b29160006111c96111cf936111c0600090565b5061012f611158565b0161118e565b6111a1565b6102b29081565b6102b290546111d4565b60016111f66102b2926111c0600090565b016111db565b906102d79161121261120d826111e5565b611226565b906102d791611424565b906102d7916111fc565b6102d79033906112a1565b6102b29081906001600160a01b031681565b6102b290610e2d565b6112846102b2939261127e61127e9376020b1b1b2b9b9a1b7b73a3937b61d1030b1b1b7bab73a1604d1b815260170190565b906104b6565b7001034b99036b4b9b9b4b733903937b6329607d1b815260110190565b906112b36112af82846111ab565b1590565b6112bb575050565b611343916102b26112f66112f06112d68561132a965061117c565b6112ea6112e4601492611231565b91610e2d565b90612804565b92611243565b6113056020916112ea83610e2d565b9261131e61131260405190565b9485938401928361124c565b908103825203826103be565b6040515b62461bcd60e51b8152918291600483016106ec565b0390fd5b906102d79161135861120d826111e5565b906102d79161149c565b906102d791611347565b1561137357565b60405162461bcd60e51b815260206004820152602f60248201527f416363657373436f6e74726f6c3a2063616e206f6e6c792072656e6f756e636560448201526e103937b632b9903337b91039b2b63360891b6064820152608490fd5b6102d791906113f56113e6336102a6565b6102a6565b6113ef846102a6565b1461136c565b61149c565b9060ff905b9181191691161790565b906114196102b261142092151590565b82546113fa565b9055565b906114326112af82846111ab565b61143a575050565b61145660016114518360006111c98761012f611158565b611409565b339061148c6114866114867f2f8788117e7eff1d82e926ec794901d17c78024a50270940304540a733656f0d9590565b92611185565b9261149660405190565b600090a4565b906114a781836111ab565b6114af575050565b6114c5600061145183826111c98761012f611158565b339061148c6114866114867ff6391f5c32d9c69d2a47ea670b442974b53935d1edc7fd64eb21e047a839171b9590565b156114fc57565b60405162461bcd60e51b815260206004820152603860248201527f555550535570677261646561626c653a206d757374206e6f742062652063616c6044820152771b1959081d1a1c9bdd59da0819195b1959d85d1958d85b1b60421b6064820152608490fd5b6102b2906115aa61157230611185565b6115a461159e7f00000000000000000000000000000000000000000000000000000000000000006102a6565b916102a6565b146114f5565b6115d8565b6102b27f360894a13ba1a3210667c828492db98dca3e2076cc3735a920a3ca505d382bbc610e2d565b506102b26115af565b6102b26000611562565b156115f257565b60405162461bcd60e51b815260206004820152602c602482015260008051602061439983398151915260448201526b19195b1959d85d1958d85b1b60a21b6064820152608490fd5b1561164157565b60405162461bcd60e51b815260206004820152602c602482015260008051602061439983398151915260448201526b6163746976652070726f787960a01b6064820152608490fd5b6102d7906116eb61169930611185565b6116d17f0000000000000000000000000000000000000000000000000000000000000000916116ca61159e846102a6565b14156115eb565b6116e561159e6116df611768565b926102a6565b1461163a565b611725565b906104e7610434836103f8565b369037565b906102d7611718611712846116f0565b936103f8565b601f1901602084016116fd565b6102d790611732816130f0565b60009061174661174183610e2d565b611702565b90611832565b6102d790611689565b6102b2906102a6565b6102b29054611755565b6102b260006117786102b26115af565b0161175e565b6102b27f4910fdfa16fed3260ed0e7147f7cc6da11a60208b5b9406d12a635614ffd9143610e2d565b905051906102d7826102d9565b906020828203126102c5576102b2916117a7565b6040513d6000823e3d90fd5b156117db57565b60405162461bcd60e51b815260206004820152602960248201527f45524331393637557067726164653a20756e737570706f727465642070726f786044820152681a58589b195555525160ba1b6064820152608490fd5b919061184a60006118446102b261177e565b016111a1565b1561185b57506102d79190506119db565b611889602061187161186c86611185565b611185565b6352d1902d9061188060405190565b93849260e01b90565b825260049082905afa60009181611923575b506118fd575060405162461bcd60e51b815260206004820152602e60248201527f45524331393637557067726164653a206e657720696d706c656d656e7461746960448201526d6f6e206973206e6f74205555505360901b6064820152608490fd5b6102d7939061191e906119186119146102b26115af565b9190565b146117d4565b611a03565b61194591925060203d811161194c575b61193d81836103be565b8101906117b4565b903861189b565b503d611933565b1561195a57565b60405162461bcd60e51b815260206004820152602d60248201527f455243313936373a206e657720696d706c656d656e746174696f6e206973206e60448201526c1bdd08184818dbdb9d1c9858dd609a1b6064820152608490fd5b906001600160a01b03906113ff565b906119d46102b261142092611185565b82546119b5565b6102d7906119f06119eb8261270e565b611953565b60006119fd6102b26115af565b016119c4565b91611a0d83611a42565b8151611a1c6119146000610e2d565b11908115611a3a575b50611a2e575050565b611a3791611b4a565b50565b905038611a25565b611a4b816119db565b611a757fbc7cd75a20ee27fd9adebab32041f755214dbc6bffa90cc0225b39da2e5c2d3b91611185565b90611a7f60405190565b600090a2565b15611a8c57565b60405162461bcd60e51b815260206004820152602660248201527f416464726573733a2064656c65676174652063616c6c20746f206e6f6e2d636f6044820152651b9d1c9858dd60d21b6064820152608490fd5b3d15611afa57611aef3d6116f0565b903d6000602084013e565b606090565b611b0960276116f0565b7f416464726573733a206c6f772d6c6576656c2064656c65676174652063616c6c6020820152660819985a5b195960ca1b604082015290565b6102b2611aff565b600080916102b293611b5a606090565b50611b6c611b678361270e565b611a85565b602081019051915af4611b7d611ae0565b611b85611b42565b91612720565b906102d791611b9c61169930611185565b6102d791611ba9826130f0565b600191611832565b906102d791611b8b565b6102a66102b26102b29290565b6102b290611bbb565b15611bd857565b60405162461bcd60e51b815260206004820152602a60248201527f455243313135353a2061646472657373207a65726f206973206e6f742061207660448201526930b634b21037bbb732b960b11b6064820152608490fd5b9061115a90610e2d565b611c7a90611c756102b293611c4d600090565b50611c6e611c5e6113e16000611bc8565b611c67856102a6565b1415611bd1565b6065611c30565b61118e565b6111db565b15611c8657565b60405162461bcd60e51b815260206004820152602960248201527f455243313135353a206163636f756e747320616e6420696473206c656e677468604482015268040dad2e6dac2e8c6d60bb1b6064820152608490fd5b906104e7610434836108cf565b906102d7611718611cfa84611cdd565b936108cf565b634e487b7160e01b600052601160045260246000fd5b6000198114611d255760010190565b611d00565b634e487b7160e01b600052603260045260246000fd5b90611d49825190565b811015611d5a576020809102010190565b611d2a565b6102b290516102a6565b90611d89611d75835190565b611d836119146102b2855190565b14611c7f565b611d99611d94835190565b611cea565b91611da46000610e2d565b611daf6102b2835190565b811015611dfa57611df590611df0611de3611dd2611dcd8487611d40565b611d5f565b610329611ddf8589611d40565b5190565b611ded8388611d40565b52565b611d16565b611da4565b50505090565b6102d79190336122cd565b6102b291611c756111cf92611e1e600090565b50606661118e565b15611e2d57565b60405162461bcd60e51b815260206004820152602f60248201527f455243313135353a2063616c6c6572206973206e6f7420746f6b656e206f776e60448201526e195c881b9bdc88185c1c1c9bdd9959608a1b6064820152608490fd5b6102d79493929190611eb8335b611ea0816102a6565b611ea9846102a6565b14908115611ebd575b50611e26565b611feb565b611ec8915083611e0b565b38611eb2565b6102d79493929190611edf33611e97565b612158565b15611eeb57565b60405162461bcd60e51b815260206004820152602560248201527f455243313135353a207472616e7366657220746f20746865207a65726f206164604482015264647265737360d81b6064820152608490fd5b15611f4557565b60405162461bcd60e51b815260206004820152602a60248201527f455243313135353a20696e73756666696369656e742062616c616e636520666f60448201526939103a3930b739b332b960b11b6064820152608490fd5b90600019906113ff565b90611fb76102b261142092610e2d565b8254611f9d565b9190611fc9565b9290565b8201809211611d2557565b9081526040810192916102d79160200152565b0152565b906102d7949392916120136120036113e16000611bc8565b61200c846102a6565b1415611ee4565b3361201d846126ea565b50612027856126ea565b5061208d61207584611c7587606561207061205d8c61204d611c7a8c611c758888611c30565b61205982821015611f3e565b0390565b61206b8a611c758686611c30565b611fa7565b611c30565b61208787612082836111db565b611fbe565b90611fa7565b6000805160206143598339815191526120a582611185565b6120ae84611185565b906120b886611185565b926120c260405190565b806120ce8b8b83611fd4565b0390a4612439565b156120dd57565b60405162461bcd60e51b815260206004820152602860248201527f455243313135353a2069647320616e6420616d6f756e7473206c656e677468206044820152670dad2e6dac2e8c6d60c31b6064820152608490fd5b60408082526102b293919261214a91840190610c30565b916020818403910152610c30565b93949291909261217d612169835190565b6121776119146102b2875190565b146120d6565b60009561219861218f6113e189611bc8565b61200c876102a6565b6121a23397610e2d565b6121ad6102b2855190565b81101561221d5780611df08861208761220e8a611c758b6121e4611ddf896121de8f6122189d81611ddf9250611d40565b93611d40565b9561207060659161206b6122038a61204d611c7a85611c758a8a611c30565b91611c758686611c30565b91612082836111db565b6121a2565b50939095946102d79560008051602061433983398151915261223e82611185565b61224784611185565b9061225186611185565b9261225b60405190565b806122678b8b83612133565b0390a461264b565b1561227657565b60405162461bcd60e51b815260206004820152602960248201527f455243313135353a2073657474696e6720617070726f76616c20737461747573604482015268103337b91039b2b63360b91b6064820152608490fd5b6122e96122d9836102a6565b6122e2836102a6565b141561226f565b6122fc8361145184611c7585606661118e565b61233c61233261232c7f17307eab39ab6107e8899845ad3d59bd9653f200f220920489ca2b5937696c3193611185565b93611185565b9361039960405190565b0390a3565b905051906102d782610350565b906020828203126102c5576102b291612341565b91936123976102b2969461239061239e949761238660a08801996000890190610a86565b6020870190610a86565b6040850152565b6060830152565b60808184039101526106b8565b60009060033d116123b857565b905060046000803e60005160e01c90565b60009060443d106102d75760405160043d036004823e8051906001600160401b0382113d6024840111176124355780820180519092906001600160401b03811161242f5780602085010160043d0384011061242f576102b29394955060200101906103be565b50505050565b5050565b92939190946124478261270e565b612454575b505050505050565b60209461249660009261246e61186c8661248b9750611185565b9563f23a6e619361247e60405190565b9a8b998a98899760e01b90565b875260048701612362565b03925af1600091816125c4575b50612550575060016124b36123ab565b6308c379a014612530575b6124ce575b38808080808061244c565b60405162461bcd60e51b815260206004820152603460248201527f455243313135353a207472616e7366657220746f206e6f6e20455243313135356044820152732932b1b2b4bb32b91034b6b83632b6b2b73a32b960611b6064820152608490fd5b6125386123c9565b8061254357506124be565b6113439061132e60405190565b61256961256363f23a6e6160e01b610343565b91610343565b146124c35760405162461bcd60e51b815260206004820152602860248201527f455243313135353a204552433131353552656365697665722072656a656374656044820152676420746f6b656e7360c01b6064820152608490fd5b6125e691925060203d81116125ed575b6125de81836103be565b81019061234e565b90386124a3565b503d6125d4565b939061262f906102b2969461262261263d9561261860a08a019460008b0190610a86565b6020890190610a86565b8682036040880152610c30565b908482036060860152610c30565b9160808184039101526106b8565b92939190946126598261270e565b61266557505050505050565b60209461269a60009261267f61186c8661268f9750611185565b9563bc197c819361247e60405190565b8752600487016125f4565b03925af1600091816126ca575b506126b7575060016124b36123ab565b61256961256363bc197c8160e01b610343565b6126e391925060203d81116125ed576125de81836103be565b90386126a7565b6102b26126fa611d946001610e2d565b91611ded6127086000610e2d565b84611d40565b3b61271c6119146000610e2d565b1190565b9091901561272c575090565b815161273b6119146000610e2d565b111561274a5750805190602001fd5b604051611343919061132e565b81810292918115918404141715611d2557565b90612773825190565b811015611d5a570160200190565b8015611d25576000190190565b6105196102b26102b29290565b6102b2906127af6119146102b29460ff1690565b901c90565b156127bb57565b60405162461bcd60e51b815280611343600482016020808252818101527f537472696e67733a20686578206c656e67746820696e73756666696369656e74604082015260600190565b91906002926128306117416128218461281c88610e2d565b612757565b61282a87610e2d565b90611fbe565b91600090603061284861284284610e2d565b8661276a565b53612882612879600f60fb1b9261281c600199858b9650871a61287361286d88610e2d565b8b61276a565b53610e2d565b61282a83610e2d565b905b6128a6575b506102b2939450906128a06119146102b293610e2d565b146127b4565b916128b086610e2d565b83111561291e576f181899199a1a9b1b9c1cb0b131b232b360811b6128d5600f610e2d565b8216906010821015611d5a5787926128f561291292612918941a60f81b90565b851a612901878961276a565b5361290c600461278e565b9061279b565b93612781565b90612884565b91612889565b6102b29060081c610519565b6102b29054612924565b1561294157565b60405162461bcd60e51b815260206004820152602e60248201527f496e697469616c697a61626c653a20636f6e747261637420697320616c72656160448201526d191e481a5b9a5d1a585b1a5e995960921b6064820152608490fd5b6105196102b26102b29260ff1690565b906114196102b26114209261299d565b9061ff009060081b6113ff565b906129da6102b261142092151590565b82546129bd565b61030f9061278e565b6020810192916102d791906129e1565b9693909592612a499592612a116112af6000612930565b978880612aec575b8015612aa7575b612a299061293a565b600199612a3f612a388c61278e565b60006129ad565b89612a9757612db8565b612a505750565b612a5b6000806129ca565b612a927f7f26b83ff96e1f2b6a682f133852f6798a09c465da95921460cefb384740249891612a8960405190565b918291826129ea565b0390a1565b612aa28b60006129ca565b612db8565b50612abc6112af612ab730611185565b61270e565b8015612a205750612a29612ad060006111a1565b612ae4612add600161278e565b9160ff1690565b149050612a20565b50612af760006111a1565b612b04612add600161278e565b10612a19565b15612b1157565b60405162461bcd60e51b815260206004820152601b60248201527a526f79616c74696573206d75737420626520757020746f2035302560281b6044820152606490fd5b612b5e60056116f0565b64302e302e3160d81b602082015290565b6102b2612b54565b9160001960089290920291821b911b6113ff565b9190612b9c6102b261142093610e2d565b908354612b77565b6102d791600091612b8b565b818110612bbb575050565b80612bc96000600193612ba4565b01612bb0565b9190601f8111612bde57505050565b612bf06102d793600052602060002090565b906020601f840181900483019310612c12575b6020601f909101040190612bb0565b9091508190612c03565b9060001960089091021c191690565b81612c3591612c1c565b906002021790565b90612c46815190565b906001600160401b0382116103df57612c6982612c6385546105bc565b85612bcf565b602090601f8311600114612c9757611420929160009183612c8c575b5050612c2b565b015190503880612c85565b601f19831691612cac85600052602060002090565b9260005b818110612ceb57509160029391856001969410612cd1575b50505002019055565b612ce1910151601f841690612c1c565b9055388080612cc8565b91936020600181928787015181550195019201612cb0565b906102d791612c3d565b156102c557565b6040518080610501565b80546000939291612d35612d31836105bc565b9390565b9160018116908115612d865750600114612d4e57505050565b612d619192939450600052602060002090565b6000905b838210612d725750500190565b600181602092548486015201910190612d65565b60ff191683525050811515909102019150565b6102b291612d1e565b61050190612daf60405190565b91829182612d99565b959194612e4f8895612e47612ea596612e3f612ead9a612e37612e9d98612eb59f8f612dfd612e2f92612df68f611fc56119149161281c6002610e2d565b1115612b0a565b612e0687612f8d565b612e0e612f6b565b612e1f612e19612b6f565b84612fe0565b612e27612f6b565b611212610e3a565b610163612d03565b610164612d03565b610165612d03565b610166612d03565b612e95612e71600098612e89612e648b611bc8565b91612e81612e71846102a6565b612e7a836102a6565b1415612d0d565b6101616119c4565b6113e1336101626119c4565b6101676119c4565b610168611fa7565b610169611fa7565b61016a611409565b600080516020614379833981519152610165612ed8612ed2612d14565b91612da2565b91612ee260405190565b808061233c565b906102d7979695949392916129fa565b15612f0057565b60405162461bcd60e51b815260206004820152602b60248201527f496e697469616c697a61626c653a20636f6e7472616374206973206e6f74206960448201526a6e697469616c697a696e6760a81b6064820152608490fd5b6102d7612f666000612930565b612ef9565b6102d7612f59565b6102d790612f84612f666000612930565b6102d790612fb0565b6102d790612f73565b6102d790612fa7612f666000612930565b6102d790612fb9565b6102d790612f96565b6102d7906067612d03565b906102d791612fd6612f666000612930565b906102d791613052565b906102d791612fc4565b906102d791612ffc612f666000612930565b61300f565b90611fb76102b26114209290565b9061304b6130376130206102d79490565b61303261302b825190565b9160200190565b209290565b61304261302b825190565b209160fb613001565b60fc613001565b906102d791612fea565b1561306357565b60405162461bcd60e51b81526020600482015260196024820152784163636f756e7420686173206e6f2061646d696e20726f6c6560381b6044820152606490fd5b156130ab57565b60405162461bcd60e51b815260206004820152601d60248201527f496d706c656d656e746174696f6e20646f6573206e6f742065786973740000006044820152606490fd5b60206131499161310f61310a613104610e3a565b33610dbf565b61305c565b61312061186c61186c61016261175e565b61313e63119583b461313160405190565b9586948593849360e01b90565b835260048301610a8f565b03915afa8015613192576102d791600091613174575b5061316d6119146000610e2d565b14156130a4565b61318c915060203d811161194c5761193d81836103be565b3861315f565b6117c8565b1561319e57565b60405162461bcd60e51b815260206004820152600f60248201526e26b2ba30b230ba3090333937bd32b760891b6044820152606490fd5b6102b290610674565b6102b2916104b6565b610501906131f460405190565b918291826131de565b61320b61310a613104610e3a565b61322b61321961016a6111a1565b61322560005b91151590565b14613197565b61016561324161323a826131d5565b9282612d03565b612ed8612ed2600080516020614379833981519152936131e7565b61127e906102b29392612d1e565b61328a92916102d79161327c60405190565b94859260208401928361325c565b908103825203836103be565b6102b2906132a66101659161332a565b9061326a565b6132b660016116f0565b600360fc1b602082015290565b6102b26132ac565b634e487b7160e01b600052601260045260246000fd5b81156132eb570490565b6132cb565b91908203918211611d2557565b81156132eb570690565b61331d6133176102b29260ff1690565b60f81b90565b6001600160f81b03191690565b90600061333681610e2d565b83146133f9579091908160005b61334c83610e2d565b8414613376576133709061335f90611d16565b9361336a600a610e2d565b906132e1565b92613343565b9193925061338382611702565b915b61338e85610e2d565b82146133ee576133ab6133e8916133a56001610e2d565b906132f0565b9161336a600a846128736133df6133da6133d560306120826112e46133cf89610e2d565b8b6132fd565b61278e565b613307565b8a1a918861276a565b90613385565b50506102b291925090565b5090506102b26132c3565b61341261310a613104610e3a565b61016661342161323a826131d5565b612ed8612ed27f962851954f373fc38b871111bcd5cc7e893e454911e30e7911046a5d41cf4e6c936131e7565b6102d79061346061310a613104610e3a565b612e95612e716113e16000611bc8565b90612ea56102d79261348661310a613104610e3a565b612e9d6134978261281c6002610e2d565b8490612df6565b6102b260006116f0565b6102b261349e565b6102d7916134bc610e3a565b916134cc61310a335b80956111ab565b6134d46134a8565b92613530565b156134e157565b60405162461bcd60e51b815260206004820152602160248201527f455243313135353a206d696e7420746f20746865207a65726f206164647265736044820152607360f81b6064820152608490fd5b906102d7939291600061354281611bc8565b9061355f61354f836102a6565b613558856102a6565b14156134da565b339061356a856126ea565b50613574866126ea565b5061359461358785611c75886065611c30565b61208788612082836111db565b6000805160206143598339815191526135ac83611185565b6135b585611185565b906135bf87611185565b926135c960405190565b806135d58c8c83611fd4565b0390a450612439565b6102d7916135ea610e3a565b916135f761310a336134c5565b6135ff6134a8565b925b9391909160009361361185611bc8565b61362661361d826102a6565b613558896102a6565b61363f613631865190565b6121776119146102b2885190565b3361364987610e2d565b6136546102b2885190565b8110156136945761368f90611df061366f611ddf838a611d40565b61208761220e8d611c758d613689611ddf89606593611d40565b90611c30565b613649565b506102d79697929593976000805160206143398339815191526136b683611185565b6136bf85611185565b906136c987611185565b926136d360405190565b806136df8c8c83612133565b0390a45061264b565b156136ef57565b60405162461bcd60e51b815260206004820152601760248201527626b2ba30b230ba309030b63932b0b23c90333937bd32b760491b6044820152606490fd5b61373c61310a613104610e3a565b61375a61374a61016a6111a1565b613754600061321f565b146136e8565b6102d7600161016a611409565b1561376e57565b60405162461bcd60e51b815260206004820152601e60248201527f5369676e617475726520697320616c72656164792063616e63656c6c656400006044820152606490fd5b7fb710532f443b87328b392222d65c2b3880e27def160feffccb0828feec668ce790565b909594926102d794612397611fe79261239060809661238660a088019c6000890152565b1561380257565b60405162461bcd60e51b815260206004820152602960248201527f4f6e6c7920746865207369676e65722063616e2063616e63656c2074686973206044820152687369676e617475726560b81b6064820152608490fd5b6102d79061145161016b6080830161388061387b6112af6111cf845186610507565b613767565b6139006138ee6138e66138916137b3565b6138d561389d89611d5f565b60208a01519261131e8b6138bd60606138b7604084015190565b92015190565b906138c760405190565b9687956020870195866137d7565b6138e061302b825190565b20613c62565b83519061390b565b6138fa61159e336102a6565b146137fb565b600193505190610507565b6102b29161391891613b01565b90919061394f565b634e487b7160e01b600052602160045260246000fd5b6005111561394057565b613920565b906102d782613936565b6139596000613945565b61396282613945565b0361396a5750565b6139746001613945565b61397d82613945565b036139c25760405162461bcd60e51b815260206004820152601860248201527745434453413a20696e76616c6964207369676e617475726560401b6044820152606490fd5b6139cc6002613945565b6139d582613945565b03613a1f5760405162461bcd60e51b815260206004820152601f60248201527f45434453413a20696e76616c6964207369676e6174757265206c656e677468006044820152606490fd5b613a296003613945565b613a3282613945565b03613a875760405162461bcd60e51b815260206004820152602260248201527f45434453413a20696e76616c6964207369676e6174757265202773272076616c604482015261756560f01b6064820152608490fd5b600490613a9c613a9683613945565b91613945565b14613aa45750565b61134390613ab160405190565b62461bcd60e51b8152918291820160208082526022908201527f45434453413a20696e76616c6964207369676e6174757265202776272076616c604082015261756560f01b606082015260800190565b908051613b116119146041610e2d565b03613b3757613b33916020820151906060604084015193015160001a90613b79565b9091565b5050613b436000611bc8565b90600290565b611fe76102d794613b72606094989795613b68608086019a6000870152565b60ff166020850152565b6040830152565b919291613b8583611243565b613ba76119146fa2a8918ca85bafe22016d0b997e4df60600160ff1b03610e2d565b11613c4e57613bb6601b61278e565b60ff8316141580613c38575b613c2457613be1600093602095613bd860405190565b94859485613b49565b838052039060015afa156131925760005190600091613bff83611bc8565b613c08816102a6565b613c11836102a6565b14613c1b57509190565b92905050600190565b50505050613c326000611bc8565b90600490565b50613c43601c61278e565b60ff83161415613bc2565b50505050613c5c6000611bc8565b90600390565b6102b290613c6e613cbe565b613c96565b6020809392613c906104e76104149461190160f01b815260020190565b01918252565b61131e91613caf91604051938492602084019283613c73565b613cba61302b825190565b2090565b6102b27f8b73c3c69bb8fe3d512ecc4cf759cc79239f7b179b0ffacaa9a75d522b39400f613cea613d54565b613cf2613d5e565b91613d2a565b909594926102d794612397613d2392612390608096613d1c60a088019c6000890152565b6020870152565b0190610a86565b613caf919061131e46613d3c30611185565b90613d4660405190565b968795602087019586613cf8565b6102b260fb6111db565b6102b260fc6111db565b7f0292b7f545e93e34ebf38fa0d75b75fd3a3564bea49baa54acd072c0c6c7a21b90565b90613d9b610c49611fc5845190565b9060005b818110613dac5750505090565b909192613dc2610c776001928651815260200190565b929101613d9f565b6102b291613d8c565b6102d79061145161016b60808301613df561387b6112af6111cf845186610507565b6139006138ee6138e6613e06613d68565b6138d5613e1289611d5f565b60208a0151613e33613e2360405190565b809261131e602083019182613dca565b613e3e61302b825190565b209261131e8b6138bd60606040830151613e5a613e2360405190565b613e6561302b825190565b2092015190565b15613e7357565b60405162461bcd60e51b8152602060048201526014602482015273696e76616c69642066726f6d206164647265737360601b6044820152606490fd5b15613eb657565b60405162461bcd60e51b815260206004820152601660248201527514da59db985d1d5c99481a5cc818d85b98d95b1b195960521b6044820152606490fd5b15613efb57565b60405162461bcd60e51b815260206004820152600f60248201526e0e6d2cedccae440dad2e6dac2e8c6d608b1b6044820152606490fd5b15613f3957565b60405162461bcd60e51b815260206004820152601f60248201527f5369676e6572206e6f7420616c6c6f77656420746f206c617a79206d696e74006044820152606490fd5b613f8781611d5f565b90600091613f9483611bc8565b613f9d906102a6565b90613fa7906102a6565b1415613fb290613e6c565b61016b608082018051613fc59083610507565b613fce906111a1565b15613fd890613eaf565b613fe06137b3565b93830190613fed82611d5f565b926020850195613ffb875190565b6040870195614008875190565b9261401460608a015190565b604051948594602086019461402994866137d7565b90810382520361403990826103be565b8051906020012061404990613c62565b82516140549161390b565b61405d84611d5f565b614066906102a6565b61406f826102a6565b1461407990613ef4565b614081610e3a565b9061408b916111ab565b61409490613f32565b600191516140a191610507565b906140ab91611409565b6140b490611d5f565b925191506140c0905190565b6140c86134a8565b916102d793613530565b6140db81611d5f565b906000916140e883611bc8565b6140f1906102a6565b906140fb906102a6565b141561410690613e6c565b61016b6080820180516141199083610507565b614122906111a1565b1561412c90613eaf565b614134613d68565b9383019061414182611d5f565b926020850195865161415260405190565b809160208201906141639082613dca565b90810382520361417390826103be565b805190602001206040870195865161418a60405190565b8091602082019061419b9082613dca565b9081038252036141ab90826103be565b80519060200120926141be60608a015190565b60405194859460208601946141d394866137d7565b9081038252036141e390826103be565b805190602001206141f390613c62565b82516141fe9161390b565b61420784611d5f565b614210906102a6565b614219826102a6565b1461422390613ef4565b61422b610e3a565b90614235916111ab565b61423e90613f32565b6001915161424b91610507565b9061425591611409565b61425e90611d5f565b925191505161426b6134a8565b916102d793613601565b614285630695df5f60e11b610343565b61428e82610343565b1490811561429a575090565b6102b291506142af637965db0b60e01b610343565b6142b882610343565b149081156142c4575090565b6102b291506142d9636cdb3d1360e11b610343565b6142e282610343565b149081156142ff575b81156142f5575090565b6102b29150614321565b90506143116303a24d0760e21b610343565b61431a82610343565b14906142eb565b6143346125636301ffc9a760e01b610343565b149056fe4a39dc06d4c0dbc64b70af90fd698a233a518aa5d07e595d983b8c0526c8f7fbc3d58168c5ae7397731d063d5bbf3d657854427343f4c083240f7aacaa2d0f62e42c4ff7ed5a969c1c1fcd7643715904c183c77f402b829b07c5bec02cba10bf46756e6374696f6e206d7573742062652063616c6c6564207468726f75676820a2646970667358221220307f7763f7e586847e9aac8dff3bbcb310c6b4a89136b260732594f39015c2f864736f6c63430008150033",
  "linkReferences": {},
  "deployedLinkReferences": {}
}