{
  "_format": "hh-sol-artifact-1",
  "contractName": "NFTAuction",
  "sourceName": "contracts/Marketplace.sol",
  "abi": [
    {
      "inputs": [],
      "stateMutability": "nonpayable",
      "type": "constructor"
    },
    {
      "anonymous": false,
      "inputs": [
        {
          "indexed": false,
          "internalType": "address",
          "name": "nftContractAddress",
          "type": "address"
        },
        {
          "indexed": false,
          "internalType": "uint256",
          "name": "tokenId",
          "type": "uint256"
        },
        {
          "indexed": false,
          "internalType": "uint256",
          "name": "auctionEndPeriod",
          "type": "uint256"
        }
      ],
      "name": "AuctionPeriodUpdated",
      "type": "event"
    },
    {
      "anonymous": false,
      "inputs": [
        {
          "indexed": false,
          "internalType": "address",
          "name": "nftContractAddress",
          "type": "address"
        },
        {
          "indexed": false,
          "internalType": "uint256",
          "name": "tokenId",
          "type": "uint256"
        },
        {
          "indexed": false,
          "internalType": "address",
          "name": "auctionSettler",
          "type": "address"
        }
      ],
      "name": "AuctionSettled",
      "type": "event"
    },
    {
      "anonymous": false,
      "inputs": [
        {
          "indexed": false,
          "internalType": "address",
          "name": "nftContractAddress",
          "type": "address"
        },
        {
          "indexed": false,
          "internalType": "uint256",
          "name": "tokenId",
          "type": "uint256"
        },
        {
          "indexed": false,
          "internalType": "address",
          "name": "nftOwner",
          "type": "address"
        }
      ],
      "name": "AuctionWithdrawn",
      "type": "event"
    },
    {
      "anonymous": false,
      "inputs": [
        {
          "indexed": false,
          "internalType": "address",
          "name": "nftContractAddress",
          "type": "address"
        },
        {
          "indexed": false,
          "internalType": "uint256",
          "name": "tokenId",
          "type": "uint256"
        },
        {
          "indexed": false,
          "internalType": "address",
          "name": "bidder",
          "type": "address"
        },
        {
          "indexed": false,
          "internalType": "uint256",
          "name": "ethAmount",
          "type": "uint256"
        }
      ],
      "name": "BidMade",
      "type": "event"
    },
    {
      "anonymous": false,
      "inputs": [
        {
          "indexed": false,
          "internalType": "address",
          "name": "nftContractAddress",
          "type": "address"
        },
        {
          "indexed": false,
          "internalType": "uint256",
          "name": "tokenId",
          "type": "uint256"
        },
        {
          "indexed": false,
          "internalType": "address",
          "name": "highestBidder",
          "type": "address"
        }
      ],
      "name": "BidWithdrawn",
      "type": "event"
    },
    {
      "anonymous": false,
      "inputs": [
        {
          "indexed": false,
          "internalType": "address",
          "name": "nftContractAddress",
          "type": "address"
        },
        {
          "indexed": false,
          "internalType": "uint256",
          "name": "tokenId",
          "type": "uint256"
        },
        {
          "indexed": false,
          "internalType": "uint256",
          "name": "newBuyNowPrice",
          "type": "uint256"
        }
      ],
      "name": "BuyNowPriceUpdated",
      "type": "event"
    },
    {
      "anonymous": false,
      "inputs": [
        {
          "indexed": false,
          "internalType": "address",
          "name": "nftContractAddress",
          "type": "address"
        },
        {
          "indexed": false,
          "internalType": "uint256",
          "name": "tokenId",
          "type": "uint256"
        }
      ],
      "name": "HighestBidTaken",
      "type": "event"
    },
    {
      "anonymous": false,
      "inputs": [
        {
          "indexed": false,
          "internalType": "address",
          "name": "nftContractAddress",
          "type": "address"
        },
        {
          "indexed": false,
          "internalType": "uint256",
          "name": "tokenId",
          "type": "uint256"
        },
        {
          "indexed": false,
          "internalType": "uint256",
          "name": "newMinPrice",
          "type": "uint256"
        }
      ],
      "name": "MinPriceUpdated",
      "type": "event"
    },
    {
      "anonymous": false,
      "inputs": [
        {
          "indexed": false,
          "internalType": "address",
          "name": "nftContractAddress",
          "type": "address"
        },
        {
          "indexed": false,
          "internalType": "uint256",
          "name": "tokenId",
          "type": "uint256"
        },
        {
          "indexed": false,
          "internalType": "address",
          "name": "nftSeller",
          "type": "address"
        },
        {
          "indexed": false,
          "internalType": "uint256",
          "name": "minPrice",
          "type": "uint256"
        },
        {
          "indexed": false,
          "internalType": "uint256",
          "name": "buyNowPrice",
          "type": "uint256"
        },
        {
          "indexed": false,
          "internalType": "uint256",
          "name": "bidPeriod",
          "type": "uint256"
        }
      ],
      "name": "NFTAuctionCreated",
      "type": "event"
    },
    {
      "anonymous": false,
      "inputs": [
        {
          "indexed": false,
          "internalType": "address",
          "name": "nftContractAddress",
          "type": "address"
        },
        {
          "indexed": false,
          "internalType": "uint256",
          "name": "tokenId",
          "type": "uint256"
        },
        {
          "indexed": false,
          "internalType": "address",
          "name": "nftSeller",
          "type": "address"
        },
        {
          "indexed": false,
          "internalType": "uint256",
          "name": "highestBid",
          "type": "uint256"
        },
        {
          "indexed": false,
          "internalType": "address",
          "name": "highestBidder",
          "type": "address"
        }
      ],
      "name": "NFTTransferredAndSellerPaid",
      "type": "event"
    },
    {
      "anonymous": false,
      "inputs": [
        {
          "indexed": false,
          "internalType": "address",
          "name": "nftContractAddress",
          "type": "address"
        },
        {
          "indexed": false,
          "internalType": "uint256",
          "name": "tokenId",
          "type": "uint256"
        },
        {
          "indexed": false,
          "internalType": "address",
          "name": "nftSeller",
          "type": "address"
        },
        {
          "indexed": false,
          "internalType": "uint256",
          "name": "buyNowPrice",
          "type": "uint256"
        }
      ],
      "name": "SaleCreated",
      "type": "event"
    },
    {
      "inputs": [
        {
          "internalType": "address",
          "name": "nftContractAddress",
          "type": "address"
        },
        {
          "internalType": "uint256",
          "name": "tokenId",
          "type": "uint256"
        }
      ],
      "name": "buyNow",
      "outputs": [
        {
          "internalType": "bool",
          "name": "",
          "type": "bool"
        }
      ],
      "stateMutability": "payable",
      "type": "function"
    },
    {
      "inputs": [
        {
          "internalType": "address",
          "name": "nftContractAddress",
          "type": "address"
        },
        {
          "internalType": "uint256",
          "name": "tokenId",
          "type": "uint256"
        },
        {
          "internalType": "uint256",
          "name": "tokenAmount",
          "type": "uint256"
        }
      ],
      "name": "buyNowWithToken",
      "outputs": [
        {
          "internalType": "bool",
          "name": "",
          "type": "bool"
        }
      ],
      "stateMutability": "nonpayable",
      "type": "function"
    },
    {
      "inputs": [
        {
          "internalType": "address",
          "name": "nftContractAddress",
          "type": "address"
        },
        {
          "internalType": "uint256",
          "name": "tokenId",
          "type": "uint256"
        },
        {
          "internalType": "uint256",
          "name": "_minPrice",
          "type": "uint256"
        },
        {
          "internalType": "uint256",
          "name": "_buyNowPrice",
          "type": "uint256"
        }
      ],
      "name": "createDefaultAuction",
      "outputs": [],
      "stateMutability": "nonpayable",
      "type": "function"
    },
    {
      "inputs": [
        {
          "internalType": "address",
          "name": "nftContractAddress",
          "type": "address"
        },
        {
          "internalType": "uint256",
          "name": "tokenId",
          "type": "uint256"
        },
        {
          "internalType": "uint256",
          "name": "_minPrice",
          "type": "uint256"
        },
        {
          "internalType": "uint256",
          "name": "_buyNowPrice",
          "type": "uint256"
        },
        {
          "internalType": "uint256",
          "name": "bidPeriod",
          "type": "uint256"
        }
      ],
      "name": "createNewNftAuction",
      "outputs": [],
      "stateMutability": "nonpayable",
      "type": "function"
    },
    {
      "inputs": [
        {
          "internalType": "address",
          "name": "nftContractAddress",
          "type": "address"
        },
        {
          "internalType": "uint256",
          "name": "tokenId",
          "type": "uint256"
        },
        {
          "internalType": "uint256",
          "name": "_buyNowPrice",
          "type": "uint256"
        },
        {
          "internalType": "uint256",
          "name": "tokenPrice",
          "type": "uint256"
        }
      ],
      "name": "createSale",
      "outputs": [],
      "stateMutability": "nonpayable",
      "type": "function"
    },
    {
      "inputs": [],
      "name": "defaultBidPeriod",
      "outputs": [
        {
          "internalType": "uint256",
          "name": "",
          "type": "uint256"
        }
      ],
      "stateMutability": "view",
      "type": "function"
    },
    {
      "inputs": [],
      "name": "defaultFeesRecipient",
      "outputs": [
        {
          "internalType": "address",
          "name": "",
          "type": "address"
        }
      ],
      "stateMutability": "view",
      "type": "function"
    },
    {
      "inputs": [
        {
          "internalType": "address",
          "name": "nftContractAddress",
          "type": "address"
        },
        {
          "internalType": "uint256",
          "name": "tokenId",
          "type": "uint256"
        }
      ],
      "name": "getNFTPrice",
      "outputs": [
        {
          "internalType": "uint256",
          "name": "",
          "type": "uint256"
        }
      ],
      "stateMutability": "view",
      "type": "function"
    },
    {
      "inputs": [
        {
          "internalType": "address",
          "name": "nftContractAddress",
          "type": "address"
        },
        {
          "internalType": "uint256",
          "name": "tokenId",
          "type": "uint256"
        }
      ],
      "name": "makeBid",
      "outputs": [],
      "stateMutability": "payable",
      "type": "function"
    },
    {
      "inputs": [
        {
          "internalType": "address",
          "name": "nftContractAddress",
          "type": "address"
        },
        {
          "internalType": "uint256",
          "name": "tokenId",
          "type": "uint256"
        },
        {
          "internalType": "uint256",
          "name": "tokenAmount",
          "type": "uint256"
        }
      ],
      "name": "makeBidWithToken",
      "outputs": [],
      "stateMutability": "nonpayable",
      "type": "function"
    },
    {
      "inputs": [
        {
          "internalType": "address",
          "name": "",
          "type": "address"
        },
        {
          "internalType": "uint256",
          "name": "",
          "type": "uint256"
        }
      ],
      "name": "nftContractAuctions",
      "outputs": [
        {
          "internalType": "uint256",
          "name": "bidPeriod",
          "type": "uint256"
        },
        {
          "internalType": "uint256",
          "name": "auctionEndPeriod",
          "type": "uint256"
        },
        {
          "internalType": "uint256",
          "name": "minPrice",
          "type": "uint256"
        },
        {
          "internalType": "uint256",
          "name": "buyNowPrice",
          "type": "uint256"
        },
        {
          "internalType": "uint256",
          "name": "tokenBuyNowPrice",
          "type": "uint256"
        },
        {
          "internalType": "uint256",
          "name": "nftHighestBid",
          "type": "uint256"
        },
        {
          "internalType": "address",
          "name": "nftHighestBidder",
          "type": "address"
        },
        {
          "internalType": "address",
          "name": "nftSeller",
          "type": "address"
        }
      ],
      "stateMutability": "view",
      "type": "function"
    },
    {
      "inputs": [],
      "name": "nftOnSale",
      "outputs": [
        {
          "internalType": "uint256",
          "name": "",
          "type": "uint256"
        }
      ],
      "stateMutability": "view",
      "type": "function"
    },
    {
      "inputs": [
        {
          "internalType": "address",
          "name": "nftContractAddress",
          "type": "address"
        },
        {
          "internalType": "uint256",
          "name": "tokenId",
          "type": "uint256"
        }
      ],
      "name": "ownerOfNft",
      "outputs": [
        {
          "internalType": "address",
          "name": "",
          "type": "address"
        }
      ],
      "stateMutability": "view",
      "type": "function"
    },
    {
      "inputs": [
        {
          "internalType": "address",
          "name": "nftContractAddress",
          "type": "address"
        },
        {
          "internalType": "uint256",
          "name": "tokenId",
          "type": "uint256"
        }
      ],
      "name": "settleAuction",
      "outputs": [],
      "stateMutability": "nonpayable",
      "type": "function"
    },
    {
      "inputs": [
        {
          "internalType": "address",
          "name": "nftContractAddress",
          "type": "address"
        },
        {
          "internalType": "uint256",
          "name": "tokenId",
          "type": "uint256"
        }
      ],
      "name": "takeHighestBid",
      "outputs": [],
      "stateMutability": "nonpayable",
      "type": "function"
    },
    {
      "inputs": [
        {
          "internalType": "address",
          "name": "nftContractAddress",
          "type": "address"
        },
        {
          "internalType": "uint256",
          "name": "tokenId",
          "type": "uint256"
        },
        {
          "internalType": "uint256",
          "name": "newBuyNowPrice",
          "type": "uint256"
        }
      ],
      "name": "updateBuyNowPrice",
      "outputs": [],
      "stateMutability": "nonpayable",
      "type": "function"
    },
    {
      "inputs": [
        {
          "internalType": "address",
          "name": "nftContractAddress",
          "type": "address"
        },
        {
          "internalType": "uint256",
          "name": "tokenId",
          "type": "uint256"
        },
        {
          "internalType": "uint256",
          "name": "newMinPrice",
          "type": "uint256"
        }
      ],
      "name": "updateMinimumPrice",
      "outputs": [],
      "stateMutability": "nonpayable",
      "type": "function"
    },
    {
      "inputs": [
        {
          "internalType": "address",
          "name": "nftContractAddress",
          "type": "address"
        },
        {
          "internalType": "uint256",
          "name": "tokenId",
          "type": "uint256"
        }
      ],
      "name": "withdrawAuction",
      "outputs": [],
      "stateMutability": "nonpayable",
      "type": "function"
    },
    {
      "inputs": [
        {
          "internalType": "address",
          "name": "nftContractAddress",
          "type": "address"
        },
        {
          "internalType": "uint256",
          "name": "tokenId",
          "type": "uint256"
        }
      ],
      "name": "withdrawBid",
      "outputs": [],
      "stateMutability": "nonpayable",
      "type": "function"
    },
    {
      "inputs": [],
      "name": "withdrawFailedCredits",
      "outputs": [],
      "stateMutability": "nonpayable",
      "type": "function"
    }
  ],
  "bytecode": "0x6080604052733a966ea2de9423c3357a2cfc58a9c040793fe1fc6000806101000a81548173ffffffffffffffffffffffffffffffffffffffff021916908373ffffffffffffffffffffffffffffffffffffffff160217905550733febab631305bbce5ab4eb2e5cf297008fadb1e1600160006101000a81548173ffffffffffffffffffffffffffffffffffffffff021916908373ffffffffffffffffffffffffffffffffffffffff1602179055503480156100b957600080fd5b506201518060078190555033600860006101000a81548173ffffffffffffffffffffffffffffffffffffffff021916908373ffffffffffffffffffffffffffffffffffffffff160217905550600260058190555033600660006101000a81548173ffffffffffffffffffffffffffffffffffffffff021916908373ffffffffffffffffffffffffffffffffffffffff160217905550614b878061015d6000396000f3fe60806040526004361061011f5760003560e01c806397829113116100a0578063c54e479f11610064578063c54e479f146103bc578063ce25e972146103e5578063de4b1f9114610422578063e1d544c91461044b578063ebea6025146104745761011f565b806397829113146102e6578063bb3e6f0814610311578063bc2417931461033a578063bc24555a14610377578063c0df671c146103935761011f565b80635138b08c116100e75780635138b08c146102155780635cc2f1171461023e5780637f915bdc14610267578063848e5c77146102925780638996b420146102bb5761011f565b806301c210f714610124578063041fa0b81461013b5780630b6fd8d61461017f5780630e4bdc90146101bc5780634cb8ef5b146101ec575b600080fd5b34801561013057600080fd5b5061013961049d565b005b34801561014757600080fd5b50610162600480360381019061015d9190613bc9565b6105e6565b604051610176989796959493929190613c27565b60405180910390f35b34801561018b57600080fd5b506101a660048036038101906101a19190613ca5565b61067b565b6040516101b39190613d13565b60405180910390f35b6101d660048036038101906101d19190613bc9565b6109fb565b6040516101e39190613d13565b60405180910390f35b3480156101f857600080fd5b50610213600480360381019061020e9190613bc9565b610d6f565b005b34801561022157600080fd5b5061023c60048036038101906102379190613bc9565b610f02565b005b34801561024a57600080fd5b5061026560048036038101906102609190613d2e565b611035565b005b34801561027357600080fd5b5061027c611355565b6040516102899190613d95565b60405180910390f35b34801561029e57600080fd5b506102b960048036038101906102b49190613bc9565b61135b565b005b3480156102c757600080fd5b506102d06114f2565b6040516102dd9190613d95565b60405180910390f35b3480156102f257600080fd5b506102fb6114f8565b6040516103089190613db0565b60405180910390f35b34801561031d57600080fd5b5061033860048036038101906103339190613dcb565b61151e565b005b34801561034657600080fd5b50610361600480360381019061035c9190613bc9565b611860565b60405161036e9190613d95565b60405180910390f35b610391600480360381019061038c9190613bc9565b611971565b005b34801561039f57600080fd5b506103ba60048036038101906103b59190613ca5565b6119cc565b005b3480156103c857600080fd5b506103e360048036038101906103de9190613ca5565b611cae565b005b3480156103f157600080fd5b5061040c60048036038101906104079190613bc9565b611f43565b6040516104199190613db0565b60405180910390f35b34801561042e57600080fd5b5061044960048036038101906104449190613d2e565b612035565b005b34801561045757600080fd5b50610472600480360381019061046d9190613ca5565b612318565b005b34801561048057600080fd5b5061049b60048036038101906104969190613bc9565b6125fb565b005b6000600360003373ffffffffffffffffffffffffffffffffffffffff1673ffffffffffffffffffffffffffffffffffffffff16815260200190815260200160002054905060008103610524576040517f08c379a000000000000000000000000000000000000000000000000000000000815260040161051b90613ea3565b60405180910390fd5b6000600360003373ffffffffffffffffffffffffffffffffffffffff1673ffffffffffffffffffffffffffffffffffffffff1681526020019081526020016000208190555060003373ffffffffffffffffffffffffffffffffffffffff166108fc839081150290604051600060405180830381858888f193505050509050806105e2576040517f08c379a00000000000000000000000000000000000000000000000000000000081526004016105d990613f0f565b60405180910390fd5b5050565b6002602052816000526040600020602052806000526040600020600091509150508060000154908060010154908060020154908060030154908060040154908060050154908060060160009054906101000a900473ffffffffffffffffffffffffffffffffffffffff16908060070160009054906101000a900473ffffffffffffffffffffffffffffffffffffffff16905088565b60008383600260008373ffffffffffffffffffffffffffffffffffffffff1673ffffffffffffffffffffffffffffffffffffffff168152602001908152602001600020600082815260200190815260200160002060070160009054906101000a900473ffffffffffffffffffffffffffffffffffffffff1673ffffffffffffffffffffffffffffffffffffffff163373ffffffffffffffffffffffffffffffffffffffff1603610760576040517f08c379a000000000000000000000000000000000000000000000000000000000815260040161075790613f7b565b60405180910390fd5b6000600260008873ffffffffffffffffffffffffffffffffffffffff1673ffffffffffffffffffffffffffffffffffffffff1681526020019081526020016000206000878152602001908152602001600020905060008160040154905060008260070160009054906101000a900473ffffffffffffffffffffffffffffffffffffffff169050338360060160006101000a81548173ffffffffffffffffffffffffffffffffffffffff021916908373ffffffffffffffffffffffffffffffffffffffff1602179055506000820361086c576040517f08c379a000000000000000000000000000000000000000000000000000000000815260040161086390613fe7565b60405180910390fd5b818710156108af576040517f08c379a00000000000000000000000000000000000000000000000000000000081526004016108a690614053565b60405180910390fd5b600083600301819055506000836004018190555060008054906101000a900473ffffffffffffffffffffffffffffffffffffffff1673ffffffffffffffffffffffffffffffffffffffff166323b872dd33838a6040518463ffffffff1660e01b815260040161092093929190614073565b6020604051808303816000875af115801561093f573d6000803e3d6000fd5b505050506040513d601f19601f8201168201806040525081019061096391906140d6565b508873ffffffffffffffffffffffffffffffffffffffff166323b872dd30338b6040518463ffffffff1660e01b81526004016109a193929190614073565b600060405180830381600087803b1580156109bb57600080fd5b505af11580156109cf573d6000803e3d6000fd5b50505050600460008154809291906109e690614132565b91905055506001955050505050509392505050565b60008282600260008373ffffffffffffffffffffffffffffffffffffffff1673ffffffffffffffffffffffffffffffffffffffff168152602001908152602001600020600082815260200190815260200160002060070160009054906101000a900473ffffffffffffffffffffffffffffffffffffffff1673ffffffffffffffffffffffffffffffffffffffff163373ffffffffffffffffffffffffffffffffffffffff1603610ae0576040517f08c379a0000000000000000000000000000000000000000000000000000000008152600401610ad790613f7b565b60405180910390fd5b6000600260008773ffffffffffffffffffffffffffffffffffffffff1673ffffffffffffffffffffffffffffffffffffffff1681526020019081526020016000206000868152602001908152602001600020905060008160030154905060008260070160009054906101000a900473ffffffffffffffffffffffffffffffffffffffff169050338360060160006101000a81548173ffffffffffffffffffffffffffffffffffffffff021916908373ffffffffffffffffffffffffffffffffffffffff16021790555060008203610bec576040517f08c379a0000000000000000000000000000000000000000000000000000000008152600401610be3906141a7565b60405180910390fd5b81341015610c2f576040517f08c379a0000000000000000000000000000000000000000000000000000000008152600401610c2690614053565b60405180910390fd5b60008360030181905550600083600401819055508773ffffffffffffffffffffffffffffffffffffffff166323b872dd30338a6040518463ffffffff1660e01b8152600401610c8093929190614073565b600060405180830381600087803b158015610c9a57600080fd5b505af1158015610cae573d6000803e3d6000fd5b5050505060008173ffffffffffffffffffffffffffffffffffffffff166108fc349081150290604051600060405180830381858888f19350505050905080610d475734600360008473ffffffffffffffffffffffffffffffffffffffff1673ffffffffffffffffffffffffffffffffffffffff1681526020019081526020016000206000828254610d3f91906141c7565b925050819055505b60046000815480929190610d5a90614132565b91905055506001965050505050505092915050565b6000600260008473ffffffffffffffffffffffffffffffffffffffff1673ffffffffffffffffffffffffffffffffffffffff168152602001908152602001600020600083815260200190815260200160002060060160009054906101000a900473ffffffffffffffffffffffffffffffffffffffff1690503373ffffffffffffffffffffffffffffffffffffffff168173ffffffffffffffffffffffffffffffffffffffff1614610e55576040517f08c379a0000000000000000000000000000000000000000000000000000000008152600401610e4c90614247565b60405180910390fd5b6000600260008573ffffffffffffffffffffffffffffffffffffffff1673ffffffffffffffffffffffffffffffffffffffff1681526020019081526020016000206000848152602001908152602001600020600501549050610eb78484612829565b610ec182826128d0565b7f10d9bddf66f639dd3c5a6ad2db5ae3102c2b468dfb90a4b0da219435f24a970d848484604051610ef493929190614267565b60405180910390a150505050565b8181610f0e828261296a565b15610f4e576040517f08c379a0000000000000000000000000000000000000000000000000000000008152600401610f45906142ea565b60405180910390fd5b610f5884846129da565b15610f6c57610f678484612a9e565b610fdc565b8373ffffffffffffffffffffffffffffffffffffffff166323b872dd3033866040518463ffffffff1660e01b8152600401610fa993929190614073565b600060405180830381600087803b158015610fc357600080fd5b505af1158015610fd7573d6000803e3d6000fd5b505050505b7fe6b94748c5d6e0d188a0fcb9b7f2973b01fc0095627f1ec5accdcd9d2e65ca3684843360405161100f93929190614267565b60405180910390a16004600081548092919061102a90614132565b919050555050505050565b83833373ffffffffffffffffffffffffffffffffffffffff16600260008473ffffffffffffffffffffffffffffffffffffffff1673ffffffffffffffffffffffffffffffffffffffff168152602001908152602001600020600083815260200190815260200160002060070160009054906101000a900473ffffffffffffffffffffffffffffffffffffffff1673ffffffffffffffffffffffffffffffffffffffff1603611118576040517f08c379a000000000000000000000000000000000000000000000000000000000815260040161110f90614356565b60405180910390fd5b600073ffffffffffffffffffffffffffffffffffffffff16600260008473ffffffffffffffffffffffffffffffffffffffff1673ffffffffffffffffffffffffffffffffffffffff168152602001908152602001600020600083815260200190815260200160002060070160009054906101000a900473ffffffffffffffffffffffffffffffffffffffff1673ffffffffffffffffffffffffffffffffffffffff16146112a7578173ffffffffffffffffffffffffffffffffffffffff16636352211e826040518263ffffffff1660e01b81526004016111f89190613d95565b602060405180830381865afa158015611215573d6000803e3d6000fd5b505050506040513d601f19601f82011682018060405250810190611239919061438b565b73ffffffffffffffffffffffffffffffffffffffff163373ffffffffffffffffffffffffffffffffffffffff16146112a6576040517f08c379a000000000000000000000000000000000000000000000000000000000815260040161129d90614404565b60405180910390fd5b5b83600081116112eb576040517f08c379a00000000000000000000000000000000000000000000000000000000081526004016112e290614470565b60405180910390fd5b6112f787878787612c22565b7fab1974f8abd2912b6b20b14ee11e640214e139fba8f368d46e21eaf0ce3e5d658787338860405161132c9493929190614490565b60405180910390a160046000815480929190611347906144d5565b919050555050505050505050565b60045481565b8181600260008373ffffffffffffffffffffffffffffffffffffffff1673ffffffffffffffffffffffffffffffffffffffff168152602001908152602001600020600082815260200190815260200160002060070160009054906101000a900473ffffffffffffffffffffffffffffffffffffffff1673ffffffffffffffffffffffffffffffffffffffff163373ffffffffffffffffffffffffffffffffffffffff161461143e576040517f08c379a000000000000000000000000000000000000000000000000000000000815260040161143590614569565b60405180910390fd5b6114488484612d41565b611487576040517f08c379a000000000000000000000000000000000000000000000000000000000815260040161147e906145d5565b60405180910390fd5b6114918484612da1565b61149b8484612a9e565b600460008154809291906114ae90614132565b91905055507f711f4eae05533b90c24ff0ae762d6e9e1ef1b2c85d4c484a2913c5201bcbb7c984846040516114e49291906145f5565b60405180910390a150505050565b60075481565b600860009054906101000a900473ffffffffffffffffffffffffffffffffffffffff1681565b84843373ffffffffffffffffffffffffffffffffffffffff16600260008473ffffffffffffffffffffffffffffffffffffffff1673ffffffffffffffffffffffffffffffffffffffff168152602001908152602001600020600083815260200190815260200160002060070160009054906101000a900473ffffffffffffffffffffffffffffffffffffffff1673ffffffffffffffffffffffffffffffffffffffff1603611601576040517f08c379a00000000000000000000000000000000000000000000000000000000081526004016115f890614356565b60405180910390fd5b600073ffffffffffffffffffffffffffffffffffffffff16600260008473ffffffffffffffffffffffffffffffffffffffff1673ffffffffffffffffffffffffffffffffffffffff168152602001908152602001600020600083815260200190815260200160002060070160009054906101000a900473ffffffffffffffffffffffffffffffffffffffff1673ffffffffffffffffffffffffffffffffffffffff1614611790578173ffffffffffffffffffffffffffffffffffffffff16636352211e826040518263ffffffff1660e01b81526004016116e19190613d95565b602060405180830381865afa1580156116fe573d6000803e3d6000fd5b505050506040513d601f19601f82011682018060405250810190611722919061438b565b73ffffffffffffffffffffffffffffffffffffffff163373ffffffffffffffffffffffffffffffffffffffff161461178f576040517f08c379a000000000000000000000000000000000000000000000000000000000815260040161178690614404565b60405180910390fd5b5b84600081116117d4576040517f08c379a00000000000000000000000000000000000000000000000000000000081526004016117cb90614470565b60405180910390fd5b6000600260008a73ffffffffffffffffffffffffffffffffffffffff1673ffffffffffffffffffffffffffffffffffffffff1681526020019081526020016000206000898152602001908152602001600020905084816000018190555061183d8989898961310d565b60046000815480929190611850906144d5565b9190505550505050505050505050565b600080600260008573ffffffffffffffffffffffffffffffffffffffff1673ffffffffffffffffffffffffffffffffffffffff16815260200190815260200160002060008481526020019081526020016000209050600073ffffffffffffffffffffffffffffffffffffffff168160070160009054906101000a900473ffffffffffffffffffffffffffffffffffffffff1673ffffffffffffffffffffffffffffffffffffffff1603611948576040517f08c379a000000000000000000000000000000000000000000000000000000000815260040161193f9061466a565b60405180910390fd5b60008160030154111561196257806003015491505061196b565b80600501549150505b92915050565b818161197d828261296a565b6119bc576040517f08c379a00000000000000000000000000000000000000000000000000000000081526004016119b3906146d6565b60405180910390fd5b6119c68484613169565b50505050565b82826119d8828261296a565b611a17576040517f08c379a0000000000000000000000000000000000000000000000000000000008152600401611a0e906146d6565b60405180910390fd5b6000600260008773ffffffffffffffffffffffffffffffffffffffff1673ffffffffffffffffffffffffffffffffffffffff168152602001908152602001600020600086815260200190815260200160002060060160009054906101000a900473ffffffffffffffffffffffffffffffffffffffff1690506000600260008873ffffffffffffffffffffffffffffffffffffffff1673ffffffffffffffffffffffffffffffffffffffff168152602001908152602001600020600087815260200190815260200160002060050154905084600260008973ffffffffffffffffffffffffffffffffffffffff1673ffffffffffffffffffffffffffffffffffffffff16815260200190815260200160002060008881526020019081526020016000206005018190555033600260008973ffffffffffffffffffffffffffffffffffffffff1673ffffffffffffffffffffffffffffffffffffffff168152602001908152602001600020600088815260200190815260200160002060060160006101000a81548173ffffffffffffffffffffffffffffffffffffffff021916908373ffffffffffffffffffffffffffffffffffffffff160217905550600073ffffffffffffffffffffffffffffffffffffffff168273ffffffffffffffffffffffffffffffffffffffff1614611ca55760008054906101000a900473ffffffffffffffffffffffffffffffffffffffff1673ffffffffffffffffffffffffffffffffffffffff1663a9059cbb83836040518363ffffffff1660e01b8152600401611c609291906145f5565b6020604051808303816000875af1158015611c7f573d6000803e3d6000fd5b505050506040513d601f19601f82011682018060405250810190611ca391906140d6565b505b50505050505050565b8282600260008373ffffffffffffffffffffffffffffffffffffffff1673ffffffffffffffffffffffffffffffffffffffff168152602001908152602001600020600082815260200190815260200160002060070160009054906101000a900473ffffffffffffffffffffffffffffffffffffffff1673ffffffffffffffffffffffffffffffffffffffff163373ffffffffffffffffffffffffffffffffffffffff1614611d91576040517f08c379a0000000000000000000000000000000000000000000000000000000008152600401611d8890614569565b60405180910390fd5b8260008111611dd5576040517f08c379a0000000000000000000000000000000000000000000000000000000008152600401611dcc90614470565b60405180910390fd5b83600260008873ffffffffffffffffffffffffffffffffffffffff1673ffffffffffffffffffffffffffffffffffffffff1681526020019081526020016000206000878152602001908152602001600020600201546000821480611e43575080611e408360506132f3565b10155b611e82576040517f08c379a0000000000000000000000000000000000000000000000000000000008152600401611e7990614742565b60405180910390fd5b85600260008a73ffffffffffffffffffffffffffffffffffffffff1673ffffffffffffffffffffffffffffffffffffffff1681526020019081526020016000206000898152602001908152602001600020600301819055507f4f15fa313cb566165a50ebd19ae85a46e69e5f6b5a9269bd90cde606bf90cd61888888604051611f0d93929190614762565b60405180910390a1611f1f8888613315565b15611f3957611f2e8888612da1565b611f388888612a9e565b5b5050505050505050565b600080600260008573ffffffffffffffffffffffffffffffffffffffff1673ffffffffffffffffffffffffffffffffffffffff168152602001908152602001600020600084815260200190815260200160002060070160009054906101000a900473ffffffffffffffffffffffffffffffffffffffff169050600073ffffffffffffffffffffffffffffffffffffffff168173ffffffffffffffffffffffffffffffffffffffff160361202b576040517f08c379a00000000000000000000000000000000000000000000000000000000081526004016120229061466a565b60405180910390fd5b8091505092915050565b83833373ffffffffffffffffffffffffffffffffffffffff16600260008473ffffffffffffffffffffffffffffffffffffffff1673ffffffffffffffffffffffffffffffffffffffff168152602001908152602001600020600083815260200190815260200160002060070160009054906101000a900473ffffffffffffffffffffffffffffffffffffffff1673ffffffffffffffffffffffffffffffffffffffff1603612118576040517f08c379a000000000000000000000000000000000000000000000000000000000815260040161210f90614356565b60405180910390fd5b600073ffffffffffffffffffffffffffffffffffffffff16600260008473ffffffffffffffffffffffffffffffffffffffff1673ffffffffffffffffffffffffffffffffffffffff168152602001908152602001600020600083815260200190815260200160002060070160009054906101000a900473ffffffffffffffffffffffffffffffffffffffff1673ffffffffffffffffffffffffffffffffffffffff16146122a7578173ffffffffffffffffffffffffffffffffffffffff16636352211e826040518263ffffffff1660e01b81526004016121f89190613d95565b602060405180830381865afa158015612215573d6000803e3d6000fd5b505050506040513d601f19601f82011682018060405250810190612239919061438b565b73ffffffffffffffffffffffffffffffffffffffff163373ffffffffffffffffffffffffffffffffffffffff16146122a6576040517f08c379a000000000000000000000000000000000000000000000000000000000815260040161229d90614404565b60405180910390fd5b5b83600081116122eb576040517f08c379a00000000000000000000000000000000000000000000000000000000081526004016122e290614470565b60405180910390fd5b6122f78787878761310d565b6004600081548092919061230a906144d5565b919050555050505050505050565b8282600260008373ffffffffffffffffffffffffffffffffffffffff1673ffffffffffffffffffffffffffffffffffffffff168152602001908152602001600020600082815260200190815260200160002060070160009054906101000a900473ffffffffffffffffffffffffffffffffffffffff1673ffffffffffffffffffffffffffffffffffffffff163373ffffffffffffffffffffffffffffffffffffffff16146123fb576040517f08c379a00000000000000000000000000000000000000000000000000000000081526004016123f290614569565b60405180910390fd5b848461240782826129da565b15612447576040517f08c379a000000000000000000000000000000000000000000000000000000000815260040161243e906147e5565b60405180910390fd5b846000811161248b576040517f08c379a000000000000000000000000000000000000000000000000000000000815260040161248290614470565b60405180910390fd5b600260008973ffffffffffffffffffffffffffffffffffffffff1673ffffffffffffffffffffffffffffffffffffffff1681526020019081526020016000206000888152602001908152602001600020600301548660008214806124f95750806124f68360506132f3565b10155b612538576040517f08c379a000000000000000000000000000000000000000000000000000000000815260040161252f90614742565b60405180910390fd5b87600260008c73ffffffffffffffffffffffffffffffffffffffff1673ffffffffffffffffffffffffffffffffffffffff16815260200190815260200160002060008b8152602001908152602001600020600201819055507f7564c7561da6498903a6be7331c07a37805e017b4bff084fe89fd3a2147c90cc8a8a8a6040516125c393929190614762565b60405180910390a16125d58a8a6129da565b156125ef576125e48a8a612da1565b6125ee8a8a6133da565b5b50505050505050505050565b8181600260008373ffffffffffffffffffffffffffffffffffffffff1673ffffffffffffffffffffffffffffffffffffffff168152602001908152602001600020600082815260200190815260200160002060070160009054906101000a900473ffffffffffffffffffffffffffffffffffffffff1673ffffffffffffffffffffffffffffffffffffffff163373ffffffffffffffffffffffffffffffffffffffff16146126de576040517f08c379a00000000000000000000000000000000000000000000000000000000081526004016126d590614569565b60405180910390fd5b6000600260008673ffffffffffffffffffffffffffffffffffffffff1673ffffffffffffffffffffffffffffffffffffffff168152602001908152602001600020600085815260200190815260200160002060070160009054906101000a900473ffffffffffffffffffffffffffffffffffffffff1690508473ffffffffffffffffffffffffffffffffffffffff166323b872dd3083876040518463ffffffff1660e01b815260040161279393929190614073565b600060405180830381600087803b1580156127ad57600080fd5b505af11580156127c1573d6000803e3d6000fd5b505050506127cf8585613489565b7fec19f84af4aad6523d37faa19e243c77717842cca9bf492dc5379830cac958d085853360405161280293929190614267565b60405180910390a16004600081548092919061281d90614132565b91905055505050505050565b6000600260008473ffffffffffffffffffffffffffffffffffffffff1673ffffffffffffffffffffffffffffffffffffffff1681526020019081526020016000206000838152602001908152602001600020905060008160060160006101000a81548173ffffffffffffffffffffffffffffffffffffffff021916908373ffffffffffffffffffffffffffffffffffffffff16021790555060008160050181905550505050565b60008273ffffffffffffffffffffffffffffffffffffffff166108fc839081150290604051600060405180830381858888f193505050509050806129655781600360008573ffffffffffffffffffffffffffffffffffffffff1673ffffffffffffffffffffffffffffffffffffffff168152602001908152602001600020600082825461295d91906141c7565b925050819055505b505050565b600080600260008573ffffffffffffffffffffffffffffffffffffffff1673ffffffffffffffffffffffffffffffffffffffff168152602001908152602001600020600084815260200190815260200160002060000154905060008114806129d157508042105b91505092915050565b600080600260008573ffffffffffffffffffffffffffffffffffffffff1673ffffffffffffffffffffffffffffffffffffffff1681526020019081526020016000206000848152602001908152602001600020600201549050600081118015612a95575080600260008673ffffffffffffffffffffffffffffffffffffffff1673ffffffffffffffffffffffffffffffffffffffff168152602001908152602001600020600085815260200190815260200160002060050154115b91505092915050565b6000600260008473ffffffffffffffffffffffffffffffffffffffff1673ffffffffffffffffffffffffffffffffffffffff1681526020019081526020016000206000838152602001908152602001600020905060008160070160009054906101000a900473ffffffffffffffffffffffffffffffffffffffff16905060008260060160009054906101000a900473ffffffffffffffffffffffffffffffffffffffff169050600083600501549050612b5885848361359c565b612b628686612829565b8573ffffffffffffffffffffffffffffffffffffffff166323b872dd3084886040518463ffffffff1660e01b8152600401612b9f93929190614073565b600060405180830381600087803b158015612bb957600080fd5b505af1158015612bcd573d6000803e3d6000fd5b50505050612bdb8686613489565b7fb6f39cb293a5c9d3e74eff705e35beff6ab24c381538731c40e03d54fa56a1d38686858486604051612c12959493929190614805565b60405180910390a1505050505050565b6000600260008673ffffffffffffffffffffffffffffffffffffffff1673ffffffffffffffffffffffffffffffffffffffff16815260200190815260200160002060008581526020019081526020016000209050828160030181905550338160070160006101000a81548173ffffffffffffffffffffffffffffffffffffffff021916908373ffffffffffffffffffffffffffffffffffffffff1602179055508181600401819055508473ffffffffffffffffffffffffffffffffffffffff166323b872dd3330876040518463ffffffff1660e01b8152600401612d0893929190614073565b600060405180830381600087803b158015612d2257600080fd5b505af1158015612d36573d6000803e3d6000fd5b505050505050505050565b600080600260008573ffffffffffffffffffffffffffffffffffffffff1673ffffffffffffffffffffffffffffffffffffffff16815260200190815260200160002060008481526020019081526020016000206005015411905092915050565b6000600260008473ffffffffffffffffffffffffffffffffffffffff1673ffffffffffffffffffffffffffffffffffffffff168152602001908152602001600020600083815260200190815260200160002060070160009054906101000a900473ffffffffffffffffffffffffffffffffffffffff1690508073ffffffffffffffffffffffffffffffffffffffff168373ffffffffffffffffffffffffffffffffffffffff16636352211e846040518263ffffffff1660e01b8152600401612e699190613d95565b602060405180830381865afa158015612e86573d6000803e3d6000fd5b505050506040513d601f19601f82011682018060405250810190612eaa919061438b565b73ffffffffffffffffffffffffffffffffffffffff1603613020578273ffffffffffffffffffffffffffffffffffffffff166323b872dd8230856040518463ffffffff1660e01b8152600401612f0293929190614073565b600060405180830381600087803b158015612f1c57600080fd5b505af1158015612f30573d6000803e3d6000fd5b505050503073ffffffffffffffffffffffffffffffffffffffff168373ffffffffffffffffffffffffffffffffffffffff16636352211e846040518263ffffffff1660e01b8152600401612f849190613d95565b602060405180830381865afa158015612fa1573d6000803e3d6000fd5b505050506040513d601f19601f82011682018060405250810190612fc5919061438b565b73ffffffffffffffffffffffffffffffffffffffff161461301b576040517f08c379a0000000000000000000000000000000000000000000000000000000008152600401613012906148a4565b60405180910390fd5b613108565b3073ffffffffffffffffffffffffffffffffffffffff168373ffffffffffffffffffffffffffffffffffffffff16636352211e846040518263ffffffff1660e01b81526004016130709190613d95565b602060405180830381865afa15801561308d573d6000803e3d6000fd5b505050506040513d601f19601f820116820180604052508101906130b1919061438b565b73ffffffffffffffffffffffffffffffffffffffff1614613107576040517f08c379a00000000000000000000000000000000000000000000000000000000081526004016130fe90614910565b60405180910390fd5b5b505050565b61311984848484613712565b7ff58db91d8f6636c48ee40bdcf039592a6ad8d332660b2848a0a763c7f837612584843385856131498a8a613828565b60405161315b96959493929190614930565b60405180910390a150505050565b8181600260008373ffffffffffffffffffffffffffffffffffffffff1673ffffffffffffffffffffffffffffffffffffffff168152602001908152602001600020600082815260200190815260200160002060070160009054906101000a900473ffffffffffffffffffffffffffffffffffffffff1673ffffffffffffffffffffffffffffffffffffffff163373ffffffffffffffffffffffffffffffffffffffff160361324c576040517f08c379a000000000000000000000000000000000000000000000000000000000815260040161324390613f7b565b60405180910390fd5b83833461325a83838361389f565b613299576040517f08c379a0000000000000000000000000000000000000000000000000000000008152600401613290906149dd565b60405180910390fd5b6132a38787613905565b7fedaf6d9c1d6c948b723fe76f06024d095fe2026b77ed16e2ec4987432cddeec4878733346040516132d89493929190614490565b60405180910390a16132ea8787613a24565b50505050505050565b60006064828461330391906149fd565b61330d9190614a6e565b905092915050565b600080600260008573ffffffffffffffffffffffffffffffffffffffff1673ffffffffffffffffffffffffffffffffffffffff16815260200190815260200160002060008481526020019081526020016000206003015490506000811180156133d1575080600260008673ffffffffffffffffffffffffffffffffffffffff1673ffffffffffffffffffffffffffffffffffffffff16815260200190815260200160002060008581526020019081526020016000206005015410155b91505092915050565b6000600260008473ffffffffffffffffffffffffffffffffffffffff1673ffffffffffffffffffffffffffffffffffffffff16815260200190815260200160002060008381526020019081526020016000206001015490504261343d8484613828565b61344791906141c7565b90507f86dfe42cdd55a98787dad0c1abd84accf1ff905d6d6aa754eb8f9033c3cd9e4283838360405161347c93929190614762565b60405180910390a1505050565b6000600260008473ffffffffffffffffffffffffffffffffffffffff1673ffffffffffffffffffffffffffffffffffffffff16815260200190815260200160002060008381526020019081526020016000209050600081600101819055506000816000018190555060008160030181905550600081600201819055506000816005018190555060008160060160006101000a81548173ffffffffffffffffffffffffffffffffffffffff021916908373ffffffffffffffffffffffffffffffffffffffff16021790555060008160070160006101000a81548173ffffffffffffffffffffffffffffffffffffffff021916908373ffffffffffffffffffffffffffffffffffffffff160217905550505050565b6000806064600554846135af91906149fd565b6135b99190614a6e565b905080826135c791906141c7565b9150600080600160009054906101000a900473ffffffffffffffffffffffffffffffffffffffff1673ffffffffffffffffffffffffffffffffffffffff16632a55205a88876040518363ffffffff1660e01b8152600401613629929190614a9f565b6040805180830381865afa158015613645573d6000803e3d6000fd5b505050506040513d601f19601f820116820180604052508101906136699190614add565b91509150600081146136bd578173ffffffffffffffffffffffffffffffffffffffff166108fc829081150290604051600060405180830381858888f193505050501580156136bb573d6000803e3d6000fd5b505b6136e9600860009054906101000a900473ffffffffffffffffffffffffffffffffffffffff16856128d0565b6137098682866136f991906141c7565b876137049190614b1d565b6128d0565b50505050505050565b8082600082148061372d57508061372a8360506132f3565b10155b61376c576040517f08c379a000000000000000000000000000000000000000000000000000000000815260040161376390614742565b60405180910390fd5b6000600260008873ffffffffffffffffffffffffffffffffffffffff1673ffffffffffffffffffffffffffffffffffffffff16815260200190815260200160002060008781526020019081526020016000209050848160020181905550838160030181905550338160070160006101000a81548173ffffffffffffffffffffffffffffffffffffffff021916908373ffffffffffffffffffffffffffffffffffffffff16021790555061381f8787612da1565b50505050505050565b600080600260008573ffffffffffffffffffffffffffffffffffffffff1673ffffffffffffffffffffffffffffffffffffffff16815260200190815260200160002060008481526020019081526020016000206000015490506000810361389457600754915050613899565b809150505b92915050565b600080600260008673ffffffffffffffffffffffffffffffffffffffff1673ffffffffffffffffffffffffffffffffffffffff16815260200190815260200160002060008581526020019081526020016000206005015490508083119150509392505050565b6000600260008473ffffffffffffffffffffffffffffffffffffffff1673ffffffffffffffffffffffffffffffffffffffff168152602001908152602001600020600083815260200190815260200160002060060160009054906101000a900473ffffffffffffffffffffffffffffffffffffffff1690506000600260008573ffffffffffffffffffffffffffffffffffffffff1673ffffffffffffffffffffffffffffffffffffffff16815260200190815260200160002060008481526020019081526020016000206005015490506139df8484613a42565b600073ffffffffffffffffffffffffffffffffffffffff168273ffffffffffffffffffffffffffffffffffffffff1614613a1e57613a1d82826128d0565b5b50505050565b613a2e8282613315565b15613a3e57613a3d8282612a9e565b5b5050565b34600260008473ffffffffffffffffffffffffffffffffffffffff1673ffffffffffffffffffffffffffffffffffffffff16815260200190815260200160002060008381526020019081526020016000206005018190555033600260008473ffffffffffffffffffffffffffffffffffffffff1673ffffffffffffffffffffffffffffffffffffffff168152602001908152602001600020600083815260200190815260200160002060060160006101000a81548173ffffffffffffffffffffffffffffffffffffffff021916908373ffffffffffffffffffffffffffffffffffffffff1602179055505050565b600080fd5b600073ffffffffffffffffffffffffffffffffffffffff82169050919050565b6000613b6082613b35565b9050919050565b613b7081613b55565b8114613b7b57600080fd5b50565b600081359050613b8d81613b67565b92915050565b6000819050919050565b613ba681613b93565b8114613bb157600080fd5b50565b600081359050613bc381613b9d565b92915050565b60008060408385031215613be057613bdf613b30565b5b6000613bee85828601613b7e565b9250506020613bff85828601613bb4565b9150509250929050565b613c1281613b93565b82525050565b613c2181613b55565b82525050565b600061010082019050613c3d600083018b613c09565b613c4a602083018a613c09565b613c576040830189613c09565b613c646060830188613c09565b613c716080830187613c09565b613c7e60a0830186613c09565b613c8b60c0830185613c18565b613c9860e0830184613c18565b9998505050505050505050565b600080600060608486031215613cbe57613cbd613b30565b5b6000613ccc86828701613b7e565b9350506020613cdd86828701613bb4565b9250506040613cee86828701613bb4565b9150509250925092565b60008115159050919050565b613d0d81613cf8565b82525050565b6000602082019050613d286000830184613d04565b92915050565b60008060008060808587031215613d4857613d47613b30565b5b6000613d5687828801613b7e565b9450506020613d6787828801613bb4565b9350506040613d7887828801613bb4565b9250506060613d8987828801613bb4565b91505092959194509250565b6000602082019050613daa6000830184613c09565b92915050565b6000602082019050613dc56000830184613c18565b92915050565b600080600080600060a08688031215613de757613de6613b30565b5b6000613df588828901613b7e565b9550506020613e0688828901613bb4565b9450506040613e1788828901613bb4565b9350506060613e2888828901613bb4565b9250506080613e3988828901613bb4565b9150509295509295909350565b600082825260208201905092915050565b7f4e6f206372656469747320746f20776974686472617700000000000000000000600082015250565b6000613e8d601683613e46565b9150613e9882613e57565b602082019050919050565b60006020820190508181036000830152613ebc81613e80565b9050919050565b7f5769746864726177206661696c65640000000000000000000000000000000000600082015250565b6000613ef9600f83613e46565b9150613f0482613ec3565b602082019050919050565b60006020820190508181036000830152613f2881613eec565b9050919050565b7f4f776e65722063616e6e6f7420627579207468656972206f776e204e46540000600082015250565b6000613f65601e83613e46565b9150613f7082613f2f565b602082019050919050565b60006020820190508181036000830152613f9481613f58565b9050919050565b7f43616e6e6f7420627579207769746820746f6b656e0000000000000000000000600082015250565b6000613fd1601583613e46565b9150613fdc82613f9b565b602082019050919050565b6000602082019050818103600083015261400081613fc4565b9050919050565b7f5072696365206e6f74206d657420666f7220696e7374616e742073616c650000600082015250565b600061403d601e83613e46565b915061404882614007565b602082019050919050565b6000602082019050818103600083015261406c81614030565b9050919050565b60006060820190506140886000830186613c18565b6140956020830185613c18565b6140a26040830184613c09565b949350505050565b6140b381613cf8565b81146140be57600080fd5b50565b6000815190506140d0816140aa565b92915050565b6000602082840312156140ec576140eb613b30565b5b60006140fa848285016140c1565b91505092915050565b7f4e487b7100000000000000000000000000000000000000000000000000000000600052601160045260246000fd5b600061413d82613b93565b9150600082036141505761414f614103565b5b600182039050919050565b7f43616e6e6f742073656e64203020707269636500000000000000000000000000600082015250565b6000614191601383613e46565b915061419c8261415b565b602082019050919050565b600060208201905081810360008301526141c081614184565b9050919050565b60006141d282613b93565b91506141dd83613b93565b92508282019050808211156141f5576141f4614103565b5b92915050565b7f43616e6e6f742077697468647261770000000000000000000000000000000000600082015250565b6000614231600f83613e46565b915061423c826141fb565b602082019050919050565b6000602082019050818103600083015261426081614224565b9050919050565b600060608201905061427c6000830186613c18565b6142896020830185613c09565b6142966040830184613c18565b949350505050565b7f41756374696f6e206973206e6f74206f76657220796574000000000000000000600082015250565b60006142d4601783613e46565b91506142df8261429e565b602082019050919050565b60006020820190508181036000830152614303816142c7565b9050919050565b7f41756374696f6e20616c72656164792073746172746564206279206f776e6572600082015250565b6000614340602083613e46565b915061434b8261430a565b602082019050919050565b6000602082019050818103600083015261436f81614333565b9050919050565b60008151905061438581613b67565b92915050565b6000602082840312156143a1576143a0613b30565b5b60006143af84828501614376565b91505092915050565b7f53656c6c657220646f6573206e6f74206f776e204e4654000000000000000000600082015250565b60006143ee601783613e46565b91506143f9826143b8565b602082019050919050565b6000602082019050818103600083015261441d816143e1565b9050919050565b7f50726963652068617320746f2062652067726561746572207468616e20300000600082015250565b600061445a601e83613e46565b915061446582614424565b602082019050919050565b600060208201905081810360008301526144898161444d565b9050919050565b60006080820190506144a56000830187613c18565b6144b26020830186613c09565b6144bf6040830185613c18565b6144cc6060830184613c09565b95945050505050565b60006144e082613b93565b91507fffffffffffffffffffffffffffffffffffffffffffffffffffffffffffffffff820361451257614511614103565b5b600182019050919050565b7f4f6e6c79204e46542073656c6c65720000000000000000000000000000000000600082015250565b6000614553600f83613e46565b915061455e8261451d565b602082019050919050565b6000602082019050818103600083015261458281614546565b9050919050565b7f43616e6e6f74207061796f757420302062696400000000000000000000000000600082015250565b60006145bf601383613e46565b91506145ca82614589565b602082019050919050565b600060208201905081810360008301526145ee816145b2565b9050919050565b600060408201905061460a6000830185613c18565b6146176020830184613c09565b9392505050565b7f4e4654206e6f74206465706f7369746564000000000000000000000000000000600082015250565b6000614654601183613e46565b915061465f8261461e565b602082019050919050565b6000602082019050818103600083015261468381614647565b9050919050565b7f41756374696f6e2068617320656e646564000000000000000000000000000000600082015250565b60006146c0601183613e46565b91506146cb8261468a565b602082019050919050565b600060208201905081810360008301526146ef816146b3565b9050919050565b7f4d696e5072696365203e20383025206f66204275794e6f775072696365000000600082015250565b600061472c601d83613e46565b9150614737826146f6565b602082019050919050565b6000602082019050818103600083015261475b8161471f565b9050919050565b60006060820190506147776000830186613c18565b6147846020830185613c09565b6147916040830184613c09565b949350505050565b7f41756374696f6e2068617320612076616c696420626964000000000000000000600082015250565b60006147cf601783613e46565b91506147da82614799565b602082019050919050565b600060208201905081810360008301526147fe816147c2565b9050919050565b600060a08201905061481a6000830188613c18565b6148276020830187613c09565b6148346040830186613c18565b6148416060830185613c09565b61484e6080830184613c18565b9695505050505050565b7f4e4654205472616e73666572204661696c656400000000000000000000000000600082015250565b600061488e601383613e46565b915061489982614858565b602082019050919050565b600060208201905081810360008301526148bd81614881565b9050919050565b7f53656c6c657220646f65736e2774206f776e204e465400000000000000000000600082015250565b60006148fa601683613e46565b9150614905826148c4565b602082019050919050565b60006020820190508181036000830152614929816148ed565b9050919050565b600060c0820190506149456000830189613c18565b6149526020830188613c09565b61495f6040830187613c18565b61496c6060830186613c09565b6149796080830185613c09565b61498660a0830184613c09565b979650505050505050565b7f4e6f7420656e6f7567682066756e647320746f20626964000000000000000000600082015250565b60006149c7601783613e46565b91506149d282614991565b602082019050919050565b600060208201905081810360008301526149f6816149ba565b9050919050565b6000614a0882613b93565b9150614a1383613b93565b9250828202614a2181613b93565b91508282048414831517614a3857614a37614103565b5b5092915050565b7f4e487b7100000000000000000000000000000000000000000000000000000000600052601260045260246000fd5b6000614a7982613b93565b9150614a8483613b93565b925082614a9457614a93614a3f565b5b828204905092915050565b6000604082019050614ab46000830185613c09565b614ac16020830184613c09565b9392505050565b600081519050614ad781613b9d565b92915050565b60008060408385031215614af457614af3613b30565b5b6000614b0285828601614376565b9250506020614b1385828601614ac8565b9150509250929050565b6000614b2882613b93565b9150614b3383613b93565b9250828203905081811115614b4b57614b4a614103565b5b9291505056fea2646970667358221220b31a55bfe2553fc4858b3546e2fab99f0048bda7ca4bdf10bdd2d70dc644d1c064736f6c63430008180033",
  "linkReferences": {},
  "deployedLinkReferences": {}
}